:100000000C94C1010C9453050C9480050C945B0C6A
:100010000C947F0C0C94A30C0C94E9010C94E90152
:100020000C94E9010C94E9010C94E9010C94E901A8
:100030000C94E9010C94E9010C94E9010C94E90198
:100040000C94AD050C94E9010C9442070C948507BF
:100050000C94E9010C94E9010C94E9010C94E90178
:100060000C94E9010C94E90146726565203A090097
:100070006E4765696769650053656E736F72204DE1
:100080006F64656C3A204C4E44203733313700475B
:1000900065742074696D652E20004F4B00466169C0
:1000A0006C65642074696D652E00496E69746961C0
:1000B0006C697A696E672E2E200075532F480053A5
:1000C00075636365656465642E002F736372697080
:1000D00074732F73686F72742E7068703F617069EB
:1000E0005F6B65793D2573266C61743D2573266CC5
:1000F0006F6E3D25732663706D3D25732669643DE3
:1001000025730024424E5244442C25732C2C2C2C55
:1001100025732C2C2C2C25732C2C25732C2C2C2C5F
:100120002C2C002A302558002A25580053656E646F
:10013000204F4B210053656E64204F4B004E6F20C3
:1001400048545450006E6F20485454500000C2016F
:10015000000100110011000C0000E100000A002560
:1001600000250021000096000019003900390036F2
:1001700000127A00001F0046004600440080700014
:100180000022004D004D004A00004B000036007573
:100190000075007200403800004A009C009C0099E5
:1001A00000802500007200EC00EC00E900C01200A5
:1001B00000E900DA01DA01D70160090000D701B6D1
:1001C00003B603B303B0040000B3036E076E076BFE
:1001D00007580200006E07DC0EDC0ED80E2C010062
:1001E00000DC0EC11DC11DBE1D0000000700020184
:1001F00000000304060000000000000000010204EB
:100200000810204080010204081020010204081098
:10021000200404040404040404020202020202038F
:10022000030303030300000000230026002900004D
:10023000000000250028002B0000000000240027FB
:10024000002A00494E46494E4954594E414E00003D
:1002500020410000C84200401C4620BCBE4CCA1BC6
:100260000E5AAEC59D74CDCCCC3D0AD7233C17B7F2
:10027000D13877CC2B329595E6241FB14F0A004038
:100280007A10F35A00A0724E18090010A5D4E800A5
:1002900000E87648170000E40B54020000CA9A3BBD
:1002A000000000E1F5050000809698000000404243
:1002B0000F000000A08601000000102700000000D1
:1002C000E803000000006400000000000A000000D5
:1002D00000000100000000002C76D888DC674F0881
:1002E00023DFC1DFAE59E1B1B796E5E3E453C63A87
:1002F000E651997696E8E6C28426EB898C9B62EDFE
:10030000407C6FFCEFBC9C9F40F2BAA56FA5F490B7
:10031000055A2AF75C936B6CF9676DC11BFCE0E42E
:100320000D47FEF520E6B500D0ED902E0300943584
:1003300077050080841E080000204E0A000000C8D7
:100340000C333333330F986E12831141EF8D211428
:10035000893BE65516CFFEE6DB18D1844B381BF7F8
:100360007C1D901DA4BBE424203284725E22810097
:10037000C9F124ECA1E53D2719053D0885121E05AC
:100380008A1211241FBECFEFD8E0DEBFCDBF13E02D
:10039000A0E0B1E0EAE8F9E302C005900D92A232D4
:1003A000B107D9F716E0A2E2B3E001C01D92AF3D5C
:1003B000B107E1F713E0CEE7D3E004C02297FE01D6
:1003C0000E94C515C837D107C9F70E94F20A0C94DC
:1003D000B81C0C94000080912A0390912B03019685
:1003E00090932B0380932A0381E080932C0308953C
:1003F000CF92EF920F9381309105A1F48BE493E0BB
:100400006AE04DE020E00E94150D85E393E06EE088
:100410004FE028E009E03BE0E32E5CE0C52E0E94BF
:10042000B40F06C0009721F48BE493E00E94180EED
:100430000F91EF90CF900895A2E0B0E0E2E2F2E0F9
:100440000C9488152091D9063091DA0621153105D2
:1004500011F42FED36E0CE010196821B930B22960C
:10046000E2E00C94A415DC018C9121E030E007C09F
:10047000FD01E20FF31F908189272F5F3F4F261761
:100480003707B4F30895A4E1B0E0E9E4F2E00C9496
:100490008815A89585EF94E040E855E260E070E0AB
:1004A0000E94C0078BE493E040E855E260E070E012
:1004B0000E94420D85EF94E060EF72E00E94070910
:1004C00085EF94E068E670E00E94B7080E941C0285
:1004D000BC0185EF94E04AE050E00E94BD0985E34D
:1004E00093E068E042E020E00E94FE0E85E393E0A6
:1004F0000E94F60E85E393E060E770E00E94B70883
:1005000085E393E060E041E00E94D10E85E393E053
:1005100060EF72E00E94D60868EB7BE080E090E03C
:100520000E94330685EF94E068E770E00E94F508CA
:100530008DEE9DE0AEE3BBE3809322039093230313
:10054000A0932403B093250385EF94E06FE870E057
:100550000E94B70885E393E00E94F60E85E393E0DE
:1005600060E040E00E94D10E85E393E060E071E03E
:100570000E94D60885E393E060E041E00E94D10E3E
:1005800085E393E068E071E00E94D60868EB7BE0C9
:1005900080E090E00E94330683E296E060E070E045
:1005A0000E940D10009709F04AC083E296E060E0D7
:1005B00070E00E941B11009709F041C085EF94E0A4
:1005C0006AE970E00E94F50883E296E0BE01665F8A
:1005D0007F4FAE014F5F5F4F0E945811009749F562
:1005E00085EF94E0BE01665F7F4F0E94D60885EFDD
:1005F00094E0BE016F5F7F4F0E94070985E393E09F
:1006000060E040E00E94D10E85E393E0BE01665FAA
:100610007F4F0E94D60885E393E060E041E00E94AE
:10062000D10E85E393E0BE016F5F7F4F0E94D60835
:1006300006C085EF94E06DE970E00E94F50881E066
:100640006BEE71E043E050E00E94230580E69AEEF5
:10065000A0E0B0E08093310390933203A093330382
:10066000B09334030E94F705DC01CB0140913103C4
:10067000509132036091330370913403840F951FBE
:10068000A61FB71F80932D0390932E03A0932F03D3
:10069000B09330036496E2E00C94A415A0E1B0E0BE
:1006A000E4E5F3E00C947E156B017C0120912203BC
:1006B0003091230340912403509125030E94DC14C0
:1006C000B62EA72E982E892EC701B60140E020E055
:1006D0006E010894C11CD11C86010E94C91585EFCA
:1006E00094E0B6010E94070985EF94E06AEA70E0A1
:1006F0000E94B70885E393E00E94F60E85E393E03D
:1007000060E040E00E94D10E85E393E0F5019401A2
:100710004F2F5E2F632F722F22E030E00E94EF0AEE
:1007200085E393E06AEB70E00E94B70883E296E00D
:1007300060E070E00E940D10009709F01EC183E296
:1007400096E060E070E00E941B11009709F015C16F
:1007500085EF94E06FEB70E00E94F50881EC90E08B
:1007600090936803809367038DB79EB70E970FB67B
:10077000F8949EBF0FBE8DBFEDB7FEB731968AE2EB
:1007800094E0ADB7BEB712969C938E9311978AEC06
:1007900090E0938382838091EC029091ED029583A7
:1007A00084838091EA029091EB0297838683809103
:1007B000E8029091E90291878087D386C286809172
:1007C000E6029091E702958784870E94631619E8F4
:1007D000E12E14E0F12E8FE5F70111928A95E9F7E9
:1007E0000F900F90EDB7FEB73196ADB7BEB712962A
:1007F000FC92EE92119783E091E093838283809143
:10080000E6029091E70295838483D782C682809125
:10081000EA029091EB02918780878091E8029091A3
:10082000E902938782870E946316F70101900020F6
:10083000E9F7BF01615070406E197F09709368033A
:10084000609367038B010E0D1F1DD8011C92EDB73D
:10085000FEB73C960FB6F894FEBF0FBEEDBFC701C2
:1008600001960E94330280934A03803178F400D0CD
:1008700000D000D0EDB7FEB73196ADB7BEB7129637
:100880001C930E93119723E231E00EC000D000D0EC
:1008900000D0EDB7FEB73196ADB7BEB712961C9338
:1008A0000E93119728E231E03383228384831582EB
:1008B0000E946316EDB7FEB736960FB6F894FEBFEA
:1008C0000FBEEDBF8BE493E069E874E00E94070976
:1008D0006091EE027091EF02E0906703F090680380
:1008E00083E296E040E550E02AE234E009E613E0D6
:1008F000CC240E94A011009799F485EF94E06CE25B
:1009000071E00E94F50885E393E060E041E00E9419
:10091000D10E85E393E065E371E00E94B7081AC049
:1009200085EF94E06DE371E00E94B70885E393E002
:1009300060E041E00E94D10E85E393E065E471E060
:100940000E94B7086091EE027091EF0285EF94E08B
:100950000E9407098FE5EAE2F4E0DF011D928A9523
:10096000E9F783E296E00E94F90F83E296E00E94A5
:100970004D106096ECE00C949A158FE5E9E8F4E0F0
:10098000DF011D928A95E9F7E5CFCF92DF92EF92D2
:10099000FF920F931F936B017C010E94F705DC010E
:1009A000CB0197018601081B190B2A0B3B0BC816BC
:1009B000D906EA06FB0620F400951095209530959F
:1009C000B801C9011F910F91FF90EF90DF90CF9078
:1009D00008956091260370912703809128039091D8
:1009E00029030E94C504AB01BC01809131039091A1
:1009F0003203A0913303B0913403481759076A07B3
:100A00007B07B0F060912A0370912B03882777FD54
:100A10008095982F0E94281410922B0310922A037D
:100A2000462F572F682F792FCB01BA010E944E0312
:100A3000089581E090E00E94F801089580E090E040
:100A40000E94F80108958230E8F4E82FF0E0EE0FFC
:100A5000FF1FE851FB4F71836083813041F080912B
:100A600069008C7F842B80936900E89A08958091B7
:100A70006900440F551F440F551F837F842B8093BB
:100A80006900E99A0895823068F4813011F0E8989D
:100A900001C0E998E82FF0E0EE0FFF1FE851FB4F8F
:100AA0001182108208951F920F920FB60F92112497
:100AB0002F933F934F935F936F937F938F939F9366
:100AC000AF93BF93EF93FF938091E8049091E90473
:100AD000009729F0E091E804F091E9040995FF916D
:100AE000EF91BF91AF919F918F917F916F915F91A6
:100AF0004F913F912F910F900FBE0F901F9018951F
:100B00001F920F920FB60F9211242F933F934F9382
:100B10005F936F937F938F939F93AF93BF93EF9365
:100B2000FF938091EA049091EB04009729F0E09103
:100B3000EA04F091EB040995FF91EF91BF91AF9119
:100B40009F918F917F916F915F914F913F912F91E5
:100B50000F900FBE0F901F9018951F920F920FB617
:100B60000F9211242F933F938F939F93AF93BF9333
:100B70008091EC049091ED04A091EE04B091EF040B
:100B80003091F404232F2D5F2D3720F40196A11D01
:100B9000B11D05C0232F2A570296A11DB11D209318
:100BA000F4048093EC049093ED04A093EE04B093CE
:100BB000EF048091F0049091F104A091F204B091BF
:100BC000F3040196A11DB11D8093F0049093F104EC
:100BD000A093F204B093F304BF91AF919F918F91D2
:100BE0003F912F910F900FBE0F901F9018950F936C
:100BF0001F938FB7F8940091EC041091ED042091AD
:100C0000EE043091EF048FBFB801C9011F910F911D
:100C100008950F931F939FB7F8940091F0041091DB
:100C2000F1042091F2043091F30486B5A89B06C02C
:100C30008F3F21F00F5F1F4F2F4F3F4F9FBF322F2E
:100C4000212F102F0027080F111D211D311D42E0FB
:100C5000000F111F221F331F4A95D1F7B801C90198
:100C60001F910F910895CF92DF92EF92FF92CF9351
:100C7000DF936B017C010E940906DC01CB01EC01D2
:100C80000FC00E9409066C1B7D0B83E0683E78074D
:100C900038F00894C108D108E108F108C851DC4FC8
:100CA000C114D104E104F10461F7DF91CF91FF9009
:100CB000EF90DF90CF900895019739F0880F991F3A
:100CC000880F991F02970197F1F70895789484B5DA
:100CD000826084BD84B5816084BD85B5826085BD38
:100CE00085B5816085BDEEE6F0E08081816080831E
:100CF000E1E8F0E010828081826080838081816001
:100D00008083E0E8F0E0808181608083E1EBF0E0C7
:100D1000808184608083E0EBF0E08081816080836B
:100D2000EAE7F0E080818460808380818260808354
:100D30008081816080838081806880831092C1007F
:100D40000895FC0124853585F901E05CFF4F808121
:100D500091812E5B3F4FF90120813181821B930BE2
:100D60008F7390700895FC0144855585FA01E05C0D
:100D7000FF4F80819181FA01EE5BFF4F208131812D
:100D80008217930741F00190F081E02DE40FF51FE9
:100D9000808190E008958FEF9FEF0895FC014485D6
:100DA0005585FA01E05CFF4F20813181FA01EE5B4D
:100DB000FF4F808191812817390779F0A081B18197
:100DC000A40FB51F8C91208131812F5F3F4F2F736E
:100DD00030703183208390E008958FEF9FEF089566
:100DE000FC0181A1882329F0A489B5898C9186FF13
:100DF000FBCF11A20895CF93DF93DC011E964D9196
:100E00005C911F97EA01C05CDF4F288139812F5F19
:100E10003F4F2F733070FA01EE5BFF4F808191815D
:100E200028173907D9F3E881F981E40FF51F6083AA
:100E30001E96ED91FC911F97E05CFF4F318320835C
:100E40005696ED91FC915797208181E090E05F9656
:100E50000C905F9702C0880F991F0A94E2F7282B25
:100E6000208381E091968C9391975496ED91FC911B
:100E7000559780818064808381E090E0DF91CF91FD
:100E8000089508951F920F920FB60F9211242F9379
:100E90003F934F938F939F93EF93FF938091C00065
:100EA00082FD1CC04091C60080919B0590919C05DD
:100EB00001968F73907020919D0530919E05821749
:100EC000930771F0E0919B05F0919C05E55AFA4F6C
:100ED000408390939C0580939B0502C08091C6003F
:100EE000FF91EF919F918F914F913F912F910F9093
:100EF0000FBE0F901F90189585EF94E00E94A106F9
:100F0000009711F00E94410708951F920F920FB6AB
:100F10000F9211242F933F938F939F93EF93FF93FF
:100F200020915705309158058091590590915A05A7
:100F30002817390731F48091C1008F7D8093C1005B
:100F400014C0E0915905F0915A05E95EFA4F2081ED
:100F50008091590590915A0501968F7390709093E6
:100F60005A05809359052093C600FF91EF919F91F8
:100F70008F913F912F910F900FBE0F901F9018955A
:100F8000A0E0B0E0E6ECF7E00C948115EC016A011A
:100F90007B01BB24B394403081EE580780E06807A2
:100FA00080E0780749F4BB24EC89FD89108260E871
:100FB00074E88EE190E00FC0EC89FD8981E090E05B
:100FC00008A002C0880F991F0A94E2F7808360E0AE
:100FD00079E08DE390E0A70196010E945615890102
:100FE0009A010150104020403040369527951795C2
:100FF000079580E10030180710F0BB20A1F6E889C2
:10100000F9891083EA89FB89008319A2EE89FF8997
:10101000408121E030E0C9010C8C02C0880F991F8B
:101020000A94E2F7482B4083EE89FF894081C90189
:101030000D8C02C0880F991F0A94E2F7482B408359
:10104000EE89FF894081C9010E8C02C0880F991F6B
:101050000A94E2F7482B4083EE89FF8980810F8C48
:1010600002C0220F331F0A94E2F720952823208321
:10107000CDB7DEB7E9E00C949D151092F8041092FC
:10108000F70488EE93E0A0E0B0E08093F904909339
:10109000FA04A093FB04B093FC04E7EFF4E08DEFB7
:1010A00092E0929382938BE595E09587848787E120
:1010B00095E09787868785EC90E0918B808B84EC18
:1010C00090E0938B828B80EC90E0958B848B81EC0D
:1010D00090E0978B868B82EC90E0918F808F86ECEE
:1010E00090E0938F828F84E0848F83E0858F87E008
:1010F000868F85E0878F81E080A30895A0E0B0E02F
:10110000E4E8F8E00C9482156C017B01EA0100E050
:1011100010E00EC0D7016D917D01D601ED91FC91DB
:101120000190F081E02DC6010995080F191F219744
:10113000209781F7C801CDB7DEB7E8E00C949E1583
:101140006115710589F0DB010D900020E9F7AD0113
:1011500041505040461B570BDC01ED91FC91028041
:10116000F381E02D0995089580E090E00895EF92D5
:10117000FF920F931F93CF93DF937C01EB0100E06D
:1011800010E0FE0121966491662351F0F701A081E1
:10119000B181ED91FC91C7010995080F191FF1CF9D
:1011A000C801CDB7DEB7E6E00C94A0150E94A008F8
:1011B0000895DC01ED91FC910190F081E02D0995FD
:1011C00008950F931F93CF93DF938C016DE00E94DE
:1011D000D908EC01C8016AE00E94D9088C0F9D1F54
:1011E000DF91CF911F910F9108950F931F93CF938C
:1011F000DF938C010E94B708EC01C8010E94E1084E
:101200008C0F9D1FDF91CF911F910F9108950F9328
:101210001F93CF93DF938C010E94A008EC01C801BB
:101220000E94E1088C0F9D1FDF91CF911F910F91BC
:1012300008954F925F926F927F92AF92BF92CF923A
:10124000DF92EF92FF920F931F93CF93DF93CDB76F
:10125000DEB7A1970FB6F894DEBF0FBECDBF5C011D
:10126000E42ECB01F22E19A221E02F1510F03AE066
:10127000F32E21E2C22ED12CCC0EDD1E4F2C552494
:101280006624772403C0E02E512FC9016E2D752FDF
:10129000A30192010E94561589019A01F09E802DAA
:1012A0001124E81A8E2D0894C108D1088A3010F450
:1012B000805D01C0895CF60180830115110521055F
:1012C000310509F7C501B6010E94A008A1960FB625
:1012D000F894DEBF0FBECDBFDF91CF911F910F916C
:1012E000FF90EF90DF90CF90BF90AF907F906F9086
:1012F0005F904F9008952115310549F4DC01ED917F
:10130000FC910190F081E02D642F099508950E94D1
:1013100019090895A0E0B0E0E0E9F9E00C94821525
:10132000EC016A017B012115310541F4E881F98165
:101330000190F081E02D642F09951AC02A30310503
:10134000A9F477FF12C06DE20E94D9088C014427EE
:101350005527BA014C195D096E097F09CE012AE0B3
:101360000E941909800F911F03C02AE00E941909E9
:10137000CDB7DEB7E8E00C949E150F931F93CF9383
:10138000DF938C019A01CB01AC01662757FD609574
:10139000762FC8010E948A09EC01C8010E94E10869
:1013A0008C0F9D1FDF91CF911F910F9108952F9268
:1013B0003F924F925F927F928F929F92AF92BF9295
:1013C000CF92DF92EF92FF920F931F93CF93DF9311
:1013D0002C014A015B01722ECB01BA01A5019401D7
:1013E0000E943F15882321F0C2016FE471E01BC009
:1013F00075016401E894F7F8C701B6012FEF3FEFDC
:101400004FE75FE70E943F15882389F4C701B601C3
:101410002FEF3FEF4FE75FE70E94891318163CF468
:10142000C20163E571E00E94A0084C01C5C0C5017E
:10143000B4012FEF3FEF4FE75FE40E94D814181676
:1014400054F0C501B4012FEF3FEF4FE75FEC0E946E
:10145000891387FF04C0C20167E571E0E4CFC501CD
:10146000B40120E030E0A9010E94891387FF0AC07F
:10147000C2016DE20E94D9081C01B7FAB094B7F816
:10148000B09402C022243324C0E050E040E030E0B9
:101490002FE313C0FA01B9018F2F942FA72FB22F7A
:1014A000BC01CD0120E030E040E251E40E948D1308
:1014B000562F472F382F292FCF5FC71559F7C50152
:1014C000B401DA01F9010B2F142F2F2F3E2FA901A0
:1014D00098010E9425137B01182FD92F862F9F2D4D
:1014E000A12FBD2FBC01CD010E94FA13C62E072FDC
:1014F000882EC92F0E9426149B01AC018E2D9F2D92
:10150000A12FBD2FBC01CD010E9424137B01182FF8
:10151000D92FC2014C2D502F682D7C2F2AE030E0AE
:101520000E947B094C01820C931C772009F442C075
:10153000C2016BE571E00E94A008880E991E3AC0B6
:101540008E2D9F2DA12FBD2FBC01CD0120E030E0BD
:1015500040E251E40E94DC14EB01182F092F98019E
:10156000862F9D2FA32FB22FBC01CD010E94F51312
:101570006B017C01EE24D7FCE094FE2CC201B70184
:10158000A6012AE030E00E948A09880E991EC70150
:10159000B6010E9428149B01AC01B8018C2F9D2F2D
:1015A000A72FB62FBC01CD010E9424137B01182F59
:1015B000D92F7A94772021F6C401DF91CF911F9122
:1015C0000F91FF90EF90DF90CF90BF90AF909F90E2
:1015D0008F907F905F904F903F902F9008950E9442
:1015E000D70908950E9466060E944302CCE7D7E01F
:1015F0000E94E9042097E1F30E947C07F9CF209133
:1016000021063091220628173907B9F490919F05D9
:101610008091A0059817A1F0E0919F05F0E0EF55AB
:10162000FA4F808120919F0530E02F5F3F4F2F7749
:10163000307020939F0590E008958FEF9FEF0895FD
:101640008FEF9FEF089520912106309122062817F1
:10165000390771F490919F058091A005981759F072
:10166000E0919F05F0E0EF55FA4F808190E00895FA
:101670008FEF9FEF08958FEF9FEF08952091210640
:10168000309122062817390739F48FB7F894109251
:10169000A00510929F058FBF0895209121063091DB
:1016A00022062817390771F48091A00520919F0523
:1016B00090E080589F4F821B910960E870E00E9483
:1016C0004315089580E090E0089520E001972FEF02
:1016D0008F3F9207D9F70895FC01809121069091E0
:1016E00022068E179F0781F0838D8E7F838F8FB7A1
:1016F000F8941092A00510929F05F0932206E093B3
:1017000021068FBF81E0089580E00895EF92FF9257
:101710000F931F93CF93DF93EC018B8DEE85FF85A5
:101720009D8581FF04C08081892329F448C0808180
:10173000892309F044C08B899C890E94650B28E0AD
:10174000E22EF12C01E010E08D899E890E94650B4C
:10175000EE85FF8580819D85892311F0102B03C0C4
:10176000802F80951823000F0894E108F108E114F8
:10177000F10451F78F89988D0E94650B8B8D81FD47
:1017800010958091A00520919F0590E001968F779C
:10179000907030E08217930779F0E091A005F0E0B7
:1017A000EF55FA4F10838091A00590E001968F7756
:1017B00090708093A00503C08B8D81608B8FCDB717
:1017C000DEB7E6E00C94A015FC01A189B2899089EE
:1017D000662329F42C91892F8095822302C08C9155
:1017E000892B8C930895A0E0B0E0E9EFFBE00C9426
:1017F0008315EC01F62E898D9A8D009739F481E0DE
:1018000090E09B838A8380E090E047C0EFB6F89435
:101810008B8D61E081FF60E0CE010E94E40B898D39
:101820009A8D05960E94650B8B8D08E010E0DD24F3
:10183000D39481FF15C08D2D8F2119F0CE0160E06A
:1018400002C0CE0161E00E94E40B898D9A8D0E9456
:10185000650BDD0C0150104071F7CE0160E014C043
:101860008D2D8F2119F0CE0161E002C0CE0160E024
:101870000E94E40B898D9A8D0E94650BDD0C01504E
:10188000104071F7CE0161E00E94E40BEFBE898D3C
:101890009A8D0E94650B81E090E0CDB7DEB7E7E05E
:1018A0000C949F158091210690912206009711F0CB
:1018B0000E94860B08951F920F920FB60F9211246B
:1018C0002F933F934F935F936F937F938F939F9348
:1018D000AF93BF93EF93FF930E94520CFF91EF9150
:1018E000BF91AF919F918F917F916F915F914F9138
:1018F0003F912F910F900FBE0F901F9018951F9240
:101900000F920FB60F9211242F933F934F935F9333
:101910006F937F938F939F93AF93BF93EF93FF93B7
:101920000E94520CFF91EF91BF91AF919F918F91C7
:101930007F916F915F914F913F912F910F900FBECB
:101940000F901F9018951F920F920FB60F921124AF
:101950002F933F934F935F936F937F938F939F93B7
:10196000AF93BF93EF93FF930E94520CFF91EF91BF
:10197000BF91AF919F918F917F916F915F914F91A7
:101980003F912F910F900FBE0F901F9018951F93AE
:10199000CF93DF93EC01162F862F61E00E94BC12DB
:1019A000812F61E00E94F012812F90E0FC01E35052
:1019B000FE4FE491E88BFC01EF5EFD4FE491F0E017
:1019C000EE0FFF1FE15DFD4F85919491898B9A8BFE
:1019D000DF91CF911F9108951F93CF93DF93EC0177
:1019E000162F862F60E00E94BC128B8D81FD04C0F3
:1019F000812F61E00E94F0121C87812F90E0FC0192
:101A0000E350FE4FE491ED87FC01EF5EFD4FE49162
:101A1000F0E0EE0FFF1FEB5DFD4F859194918E87F7
:101A20009F87DF91CF911F9108951F93CF93DF93ED
:101A3000EC01162F1B821A8288EE93E0A0E0B0E042
:101A40008C839D83AE83BF838DE093E099838883ED
:101A50001C8A1B8A1E8A1D8A188E1F8A1A8E198E4E
:101A60008B8D2170220F8C7F822B8B8FCE01642F68
:101A70000E94C70CCE01612F0E94EC0CDF91CF9128
:101A80001F910895CF92DF92EF92FF92CF93DF9351
:101A9000EC016A017B011A8E198E188E1F8A1E8A2C
:101AA0001D8A1C8A1B8A20E030E0A901440F551FC3
:101AB000420F531F440F551F440F551FFA01E35B9C
:101AC000FE4F85919591A591B4918C159D05AE051C
:101AD000BF05E9F4FA01EF5AFE4F859194918B8B83
:101AE0009C8BFA01ED5AFE4F859194918D8B9E8BC4
:101AF000FA01EB5AFE4F859194918F8B988F495A3A
:101B00005E4FFA0185919491898F9A8F06C02F5F5D
:101B10003F4F2D30310509F0C8CF8F89988D009740
:101B200009F448C09C85963108F040C020916800B7
:101B3000983020F09E3020F082E003C084E001C0A5
:101B400081E0822B809368005C85583048F05E30DD
:101B500060F05631C8F1E0E0F0E0A0E0B0E009C08C
:101B6000EDE6F0E0ADE6B0E004C0EBE6F0E0ABE6B9
:101B7000B0E04C91583040F481E090E002C0880F12
:101B8000991F5A95E2F710C0252F30E05E3018F407
:101B90002850304002C02E50304081E090E002C01A
:101BA000880F991F2A95E2F7842B8083898D9A8D5F
:101BB0000E94650BCE010E946C0BDF91CF91FF90CC
:101BC000EF90DF90CF900895ECE6F0E0ACE6B0E067
:101BD000D0CFFC014485463150F5483028F04E30D6
:101BE00030F0ECE6F0E005C0EDE6F0E002C0EBE638
:101BF000F0E05081483040F481E090E002C0880F6E
:101C0000991F4A95E2F710C0242F30E04E3018F4A7
:101C10002850304002C02E50304081E090E002C099
:101C2000880F991F2A95E2F7809585238083089570
:101C30002DE033E0FC01318320830E94E90D0895FB
:101C4000CF93DF93EC018E8160E00E94F01281E07F
:101C500090E00E945C068E8161E00E94F01281E0BB
:101C600090E00E945C068E8160E00E94F01284E6A3
:101C700090E00E945C06DF91CF910895A0E0B0E073
:101C8000E4E4FEE00C9482158C01C0E0D0E0C62EA6
:101C9000DD247801EC0EFD1EF701878161E00E94D2
:101CA000BC12B6010C2E02C0759567950A94E2F736
:101CB0006170F70187810E94F0122196C430D1052E
:101CC00041F7C8010E94200ECDB7DEB7E8E00C94C2
:101CD0009E15A0E0B0E0EFE6FEE00C9482158C01CA
:101CE000C0E0D0E0C62EDD247801EC0EFD1EF70129
:101CF000878161E00E94BC12B6010C2E02C075956E
:101D000067950A94E2F76170F70187810E94F012EB
:101D10002196C830D10541F7C8010E94200ECDB7E9
:101D2000DEB7E8E00C949E151F93CF93DF93EC0190
:101D3000162F8C81642F0E94F0128D818F3F19F035
:101D400060E00E94F0128F8584FF05C0CE01612FF4
:101D50000E94690E0FC0212F30E084E03595279551
:101D60008A95E1F7CE01622F0E943E0ECE01612FCF
:101D70000E943E0EDF91CF911F91089541E00E9495
:101D8000940E81E090E0089540E00E94940E089542
:101D9000FC016089262F2460208B6C600E94C40E99
:101DA0000895A8E0B0E0E7EDFEE00C948815FE0190
:101DB0003196AEE5B1E028E00D9001922150E1F7B7
:101DC000FC012389421710F0422F4150E42FF0E02C
:101DD000EE0FFF1FEC0FFD1F2181260F2068622FE1
:101DE0000E94C40E2896E2E00C94A41561E00E94C3
:101DF000C40E80ED97E00E945C060895CF93DF93B8
:101E0000EC01423018F08F8588608F874B8B1C8ADD
:101E1000222329F0413019F48F8584608F8780E573
:101E200093EC0E945C068C8160E00E94F0128E812F
:101E300060E00E94F0128D818F3F19F060E00E94F7
:101E4000F0126F8564FD1DC0CE0163E00E943E0E5E
:101E500084E991E10E945C06CE0163E00E943E0E9F
:101E600084E991E10E945C06CE0163E00E943E0E8F
:101E700086E990E00E945C06CE0162E00E943E0E80
:101E800016C06062CE010E94C40E84E991E10E94F6
:101E90005C066F856062CE010E94C40E86E990E008
:101EA0000E945C066F856062CE010E94C40E6F8541
:101EB0006062CE010E94C40E84E0888BCE010E9435
:101EC000C80ECE010E94F60E82E0898BCE0166E03C
:101ED0000E94C40EDF91CF9108956F927F928F92EE
:101EE000AF92CF92EF920F931F93CF93DF93CDB723
:101EF000DEB73C01162F842FF3014483258306832C
:101F0000E782C086A18682869D8593879E85948779
:101F10009F8595879889968761E00E94BC12F3019E
:101F200085818F3F19F061E00E94BC12F301868128
:101F300061E00E94BC12112319F0F301178603C05F
:101F400080E1F3018787C30160E141E020E00E9466
:101F5000FE0EDF91CF911F910F91EF90CF90AF9038
:101F60008F907F906F9008958F92AF92CF92EF9263
:101F70000F93CF93DF93A62F742F522F302FAE2CB9
:101F80008C2CEC011B821A82EDE1F3E0F983E883EB
:101F900000D000D0EDB7FEB73196CDB7DEB71982CD
:101FA00011821282138261E04A2F2FEF072FE52E54
:101FB000C32E0E946D0F0F900F900F900F90DF9126
:101FC000CF910F91EF90CF90AF908F900895813087
:101FD000910541F485E296E064E045E020E00E944E
:101FE000150D0895009721F485E296E00E94180EE1
:101FF00008958091410690914206009739F080E063
:102000000E944305109242061092410685E296E036
:102010000E94E90D80E090E0089582E060E00E9477
:10202000BC1287E061E00E94BC1286E061E00E9481
:10203000BC1287E061E00E94F01268EE73E080E07D
:1020400090E00E94330686E060E00E94F01260EDAE
:1020500077E080E090E00E94330686E061E00E9435
:10206000F01268EB78E880E090E00E94330680E0B0
:1020700090E008950F931F93CF93DF938B01C5E2F8
:10208000D6E0CE010E946C0BCE01B8010E94070978
:10209000DF91CF911F910F91089566E671E00E9444
:1020A0003A1068E97AE380E090E00E94330687E026
:1020B00060E00E94F01280E090E008950F931F937B
:1020C000CF93DF938B01C5E2D6E0CE010E946C0B6B
:1020D000CE01B8010E94D608DF91CF911F910F91D8
:1020E0000895CF92DF92EF92FF92CF93DF93C62FA6
:1020F0000E94F7056B017C01D0E00E94F705DC012E
:10210000CB018C199D09AE09BF09883823E19207DC
:1021100020E0A20720E0B20748F485E296E00E94A2
:10212000FF0A97FDEACF8C179D0739F7DF91CF9112
:10213000FF90EF90DF90CF900895A0E0B0E0E3EA49
:10214000F0E10C947A157B016A01480159010E9463
:10215000F7052B013C01C0E0D0E00E94F705DC014F
:10216000CB0184199509A609B70988159905AA050F
:10217000BB0558F585E296E00E944D0B181619062E
:1021800064F785E296E00E94FF0A9C018A3091057F
:1021900029F4F70180818432F1F60DC0F6018081C7
:1021A00091810197C817D907C4F6F701EC0FFD1FFD
:1021B00020832196D2CFF701EC0FFD1F1082F6018C
:1021C000D183C08380E090E002C081E090E0CDB791
:1021D000DEB7E0E10C949615AFE0B0E0E2EFF0E19D
:1021E0000C9484158C017B018DE090E09A838983A7
:1021F000C80163EF71E00E943A10C801BE016D5F33
:102200007F4FAE014F5F5F4F08E813E120E030E001
:102210000E949D10009749F4C701BE01665F7F4F81
:102220000E94151680E090E002C081E090E02F96B9
:10223000E6E00C94A015A6E0B0E0E1E2F1E10C9438
:1022400086158C0185E296E040EC52E160E070E09A
:102250000E94420D81E090E0F8019183808310920A
:1022600042061092410680E00E944305C801BE016B
:102270006F5F7F4F0E94EC100097A1F4CE01019692
:102280000E94EB1520E030E040E85FE30E948913F4
:10229000992787FD90958827990F881F9927880F80
:1022A000991F02C081E090E02696E4E00C94A2150C
:1022B000AEE1B0E0EEE5F1E10C9482158C017B011A
:1022C0006A018CE190E09A838983C8016BEF71E029
:1022D0000E943A10C801BE016D5F7F4FAE014F5F93
:1022E0005F4F08E813E120E030E00E949D10009766
:1022F00009F5CE0103966FEF71E046E050E00E94D1
:102300001C160097B9F4C701BE01665F7F4F4AE013
:1023100050E00E942A16F7011286C601BE016B5ECC
:102320007F4F48E050E00E942A16F601108680E0B8
:1023300090E002C081E090E06E96E8E00C949E157B
:10234000AAE0B0E0E6EAF1E10C9478154C01D62E53
:10235000B72E3A01A22E432E1801FA86E98686E9A5
:1023600090E09A838983E62FF72FDF010D900020FC
:10237000E9F7CD0101978E1B9F0BA22FB32FFD0113
:1023800001900020E9F73197EA1BFB0B8E0F9F1F8E
:10239000CC2049F008968138910508F0ADC0C40101
:1023A00068E672E008C007968138910508F0A4C07D
:1023B000C40165E772E00E945E10C4016D2D7B2DA3
:1023C0000E945E106114710441F1C40163E172E086
:1023D0000E945E1000D000D000D0EDB7FEB731965D
:1023E0008E010D5F1F4FADB7BEB712961C930E93B3
:1023F000119785E192E093838283758264820E94C3
:102400004116EDB7FEB736960FB6F894FEBF0FBE75
:10241000EDBFC401B8010E945E10C4016A2D742D85
:102420000E943A10C40163E476E0AE014F5F5F4F53
:1024300008EB18E820E030E00E949D10009709F0BA
:102440005BC083E496E061E872E046E050E00E9401
:102450001C16009709F050C08AE496E00E94EF1520
:102460007C010E94F7052B013C0100E010E0A984EB
:10247000BA840894A108B10824C00E94F705DC01C1
:10248000CB0184199509A609B709883BF8E89F078D
:10249000F0E0AF07F0E0BF0790F585E296E00E941C
:1024A0004D0B181619064CF785E296E00E94FF0ABC
:1024B0000A151B0524F4F101E00FF11F80830F5F63
:1024C0001F4F0E151F054CF3C4016AE00E947110E6
:1024D00089859A85E816F90644F0280E391E089475
:1024E00021083108D1011C9204C0E20CF31CF70151
:1024F000108280E090E005C081E090E002C082E0C0
:1025000090E02A96E2E10C94941581E090E00E941C
:10251000E70F089580E090E00E94E70F0895833070
:1025200071F0843028F48130A1F0823021F514C09C
:102530008630B1F08730D1F08430E9F404C0809166
:1025400080008F7703C0809180008F7D8093800012
:10255000089584B58F7702C084B58F7D84BD0895BA
:102560008091B0008F778093B00008958091B00083
:102570008F7D8093B000089590E0FC01E350FE4F02
:1025800024918F5E9D4FFC018491882341F190E05E
:10259000880F991FFC01E75CFD4F45915491DA01CA
:1025A000815D9D4FFC0185919491FC019FB7F8944A
:1025B0008C91662331F4209582238C938081822331
:1025C00008C0623049F4322F309583238C93808188
:1025D000822B80839FBF0895822B8C939FBF089589
:1025E000A1E0B0E0E6EFF2E10C948615282F30E090
:1025F000F901E751FE4F8491F901E350FE4F149128
:10260000F901EF5EFD4F04910023D1F0882321F002
:1026100069830E948F126981E02FF0E0EE0FFF1FA7
:10262000E15DFD4F85919491DC019FB7F8948C9109
:10263000662319F41095812301C0812B8C939FBFD1
:102640002196E4E00C94A2155058BB27AA270ED07F
:1026500075C166D130F06BD120F031F49F3F11F499
:102660001EF45BC10EF4E095E7FB51C1E92F77D171
:1026700080F3BA17620773078407950718F071F49F
:102680009EF58FC10EF4E0950B2EBA2FA02D0B01F5
:10269000B90190010C01CA01A0011124FF27591BA7
:1026A00099F0593F50F4503E68F11A16F040A22FAD
:1026B000232F342F4427585FF3CF4695379527951E
:1026C000A795F0405395C9F77EF41F16BA0B620B1D
:1026D000730B840BBAF09150A1F0FF0FBB1F661F64
:1026E000771F881FC2F70EC0BA0F621F731F841FA7
:1026F00048F4879577956795B795F7959E3F08F0CD
:10270000B3CF9395880F08F09927EE0F979587958B
:102710000895D9D008F481E008950CD00FC107D1F5
:1027200040F0FED030F021F45F3F19F0F0C05111BD
:1027300039C1F3C014D198F39923C9F35523B1F3E8
:10274000951B550BBB27AA2762177307840738F020
:102750009F5F5F4F220F331F441FAA1FA9F333D07F
:102760000E2E3AF0E0E830D091505040E695001C33
:10277000CAF729D0FE2F27D0660F771F881FBB1FEF
:10278000261737074807AB07B0E809F0BB0B802DC9
:10279000BF01FF2793585F4F2AF09E3F510568F015
:1027A000B6C000C15F3FECF3983EDCF386957795A9
:1027B0006795B795F7959F5FC9F7880F911D969517
:1027C000879597F90895E1E0660F771F881FBB1F73
:1027D000621773078407BA0720F0621B730B840B20
:1027E000BA0BEE1F88F7E095089504D06894B111F4
:1027F000D9C00895BCD088F09F5790F0B92F992781
:10280000B751A0F0D1F0660F771F881F991F1AF0FB
:10281000BA95C9F712C0B13081F0C3D0B1E00895C4
:10282000C0C0672F782F8827B85F39F0B93FCCF345
:10283000869577956795B395D9F73EF490958095F1
:10284000709561957F4F8F4F9F4F0895E89409C011
:1028500097FB3EF490958095709561957F4F8F4FD3
:102860009F4F9923A9F0F92F96E9BB279395F695E9
:10287000879577956795B795F111F8CFFAF4BB0F67
:1028800011F460FF1BC06F5F7F4F8F4F9F4F16C0CB
:10289000882311F096E911C0772321F09EE8872F55
:1028A000762F05C0662371F096E8862F70E060E011
:1028B0002AF09A95660F771F881FDAF7880F96958A
:1028C000879597F90895990F0008550FAA0BE0E82E
:1028D000FEEF16161706E807F907C0F012161306E2
:1028E000E407F50798F0621B730B840B950B39F422
:1028F0000A2661F0232B242B252B21F408950A2688
:1029000009F4A140A6958FEF811D811D089597F9C7
:102910009F6780E870E060E008959FEF80EC089585
:1029200000240A94161617061806090608950024AE
:102930000A9412161306140605060895092E039428
:10294000000C11F4882352F0BB0F40F4BF2B11F49C
:1029500060FF04C06F5F7F4F8F4F9F4F089557FDFB
:102960009058440F551F59F05F3F71F04795880FFD
:1029700097FB991F61F09F3F79F087950895121694
:1029800013061406551FF2CF4695F1DF08C0161640
:1029900017061806991FF1CF8695710561050894F1
:1029A0000895E894BB2766277727CB0197F9089508
:1029B0008ADF08F48FEF08950BD0C0CFB1DF28F085
:1029C000B6DF18F0952309F0A2CFA7CF1124EACFE4
:1029D000C6DFA0F3959FD1F3950F50E0551F629F7E
:1029E000F001729FBB27F00DB11D639FAA27F00D68
:1029F000B11DAA1F649F6627B00DA11D661F829F8F
:102A00002227B00DA11D621F739FB00DA11D621F73
:102A1000839FA00D611D221F749F3327A00D611D90
:102A2000231F849F600D211D822F762F6A2F112472
:102A30009F5750408AF0E1F088234AF0EE0FFF1FC5
:102A4000BB1F661F771F881F91505040A9F79E3FFC
:102A5000510570F05CCFA6CF5F3FECF3983EDCF3FE
:102A6000869577956795B795F795E7959F5FC1F739
:102A7000FE2B880F911D9695879597F9089523DF72
:102A8000880B990B089597FB092E07260AD077FD2E
:102A900004D065D006D000201AF4709561957F4F60
:102AA0000895F6F7909581959F4F0895A1E21A2E0B
:102AB000AA1BBB1BFD010DC0AA1FBB1FEE1FFF1FE2
:102AC000A217B307E407F50720F0A21BB30BE40B32
:102AD000F50B661F771F881F991F1A9469F7609579
:102AE0007095809590959B01AC01BD01CF01089533
:102AF0002F923F924F925F926F927F928F929F920E
:102B0000AF92BF92CF92DF92EF92FF920F931F93FB
:102B1000CF93DF93CDB7DEB7CA1BDB0B0FB6F894AC
:102B2000DEBF0FBECDBF09942A88398848885F84EC
:102B30006E847D848C849B84AA84B984C884DF805D
:102B4000EE80FD800C811B81AA81B981CE0FD11D41
:102B50000FB6F894DEBF0FBECDBFED010895AA1BDE
:102B6000BB1B51E107C0AA1FBB1FA617B70710F078
:102B7000A61BB70B881F991F5A95A9F780959095AA
:102B8000BC01CD010895EE0FFF1F0590F491E02DDB
:102B90000994EF920F931F93CF93322FC02F47FFCB
:102BA00002C0A4E101C0A4E0E42FFF27E7FDF095F7
:102BB000F7FF03C0F095E195FF4F4C2F512F2E2FBB
:102BC000032FEA2E0E9463188C2F912FCF911F9113
:102BD0000F91EF900895662777270C94BB19FC019D
:102BE00088279927E89421912032E9F3293010F0C1
:102BF0002E30C8F32B3241F02D3239F4689404C0E2
:102C00000E943916820F911D219120532A30C0F362
:102C10001EF4909581959F4F08959111EEC58032D5
:102C200019F089508550D0F70895FB01DC0101901F
:102C30000D920020E1F70895FB01DC014150504066
:102C400030F08D910190801919F40020B9F7881B9C
:102C5000990B0895FB01DC014150504048F0019070
:102C60000D920020C9F701C01D9241505040E0F77D
:102C700008957AE0979F902D879F802D910D1124C4
:102C80000895AEE0B0E0E7E4F6E10C9486150D8916
:102C90001E8986E08C831A8309838FEF9FE79E83CA
:102CA0008D83AE01475E5F4FCE0101966F89788DAF
:102CB0000E948516EF81F885E00FF11F10822E9695
:102CC000E4E00C94A215AEE0B0E0E9E6F6E10C9485
:102CD00086150D891E898EE08C831A8309838FEFF8
:102CE0009FE79E838D83AE01475E5F4FCE010196C5
:102CF0006F89788D0E948516EF81F885E00FF11FAE
:102D000010822E96E4E00C94A215ADE0B0E0EBE862
:102D1000F6E10C9478153C017D876C875A01FC0123
:102D200017821682838181FFC8C12E010894411C3D
:102D3000511CF3019381EC85FD8593FD859193FFF3
:102D40008191FD87EC87882309F4B3C1853241F472
:102D500093FD859193FF8191FD87EC87853229F45E
:102D600090E0B3010E942E1CE4CFFF24EE2410E07B
:102D70001032B0F48B3269F08C3228F4803251F08A
:102D8000833271F40BC08D3239F0803349F4116015
:102D90002CC01260146029C0186027C0106125C0C3
:102DA00017FD2EC0282F20532A3098F416FF08C094
:102DB0008F2D880FF82EFF0CFF0CF80EF20E15C0A9
:102DC0008E2D880FE82EEE0CEE0CE80EE20E10624F
:102DD0000CC08E3221F416FD6CC1106406C08C3616
:102DE00011F4106802C0883659F4EC85FD8593FD16
:102DF000859193FF8191FD87EC87882309F0B8CFF7
:102E0000982F9554933018F09052933038F424E072
:102E100030E0A20EB31E3FE339830FC0833631F09A
:102E2000833781F0833509F05AC022C0F5018081D3
:102E3000898322E030E0A20EB31E21E0C22ED12C05
:102E4000420114C092E0292E312C2A0C3B1CF501C2
:102E50008080918016FF03C06F2D70E002C06FEF7D
:102E60007FEFC4010E94231C6C0151011F7715C024
:102E700082E0282E312C2A0C3B1CF50180809180A9
:102E800016FF03C06F2D70E002C06FEF7FEFC4012B
:102E90000E94181C6C011068510113FD1CC006C073
:102EA00080E290E0B3010E942E1CEA948E2D90E007
:102EB000C816D906A8F30FC0F40117FD859117FFB6
:102EC00081914F0190E0B3010E942E1CE110EA9421
:102ED0000894C108D108C114D10471F7E7C0843641
:102EE00011F0893651F5F50117FF07C080819181F6
:102EF000A281B38124E030E008C080819181AA27BB
:102F000097FDA095BA2F22E030E0A20EB31E012F4C
:102F10000F76B7FF08C0B095A095909581959F4F0B
:102F2000AF4FBF4F0068BC01CD01A2012AE030E0E5
:102F30000E945A1CD82ED4183FC0853721F41F7E1A
:102F40002AE030E020C0197F8F36A9F0803720F4C6
:102F5000883509F0AEC00BC0803721F0883709F002
:102F6000A8C001C0106114FF09C0146007C014FF9D
:102F700008C0166006C028E030E005C020E130E05F
:102F800002C020E132E0F50117FF07C060817181C6
:102F90008281938144E050E006C06081718180E0CD
:102FA00090E042E050E0A40EB51EA2010E945A1C1F
:102FB000D82ED418012F0F7706FF09C00E7FDF141B
:102FC00030F404FF06C002FD04C00F7E02C01D2DB8
:102FD00001C01F2D802F90E004FF0CC0FE01ED0DFD
:102FE000F11D2081203311F4097E09C002FF06C0C3
:102FF0001E5F05C086789070009709F01F5F802ED5
:10300000992403FD12C000FF0DC0FD2C1E1550F4C5
:10301000FE0CF11A1E2D06C080E290E0B3010E9462
:103020002E1C1F5F1E15C0F304C01E1510F4E11AFC
:1030300001C0EE2484FE0FC080E390E0B3010E9443
:103040002E1C82FE1FC081FE03C088E590E010C0E8
:1030500088E790E00DC0C40186789070009791F0E9
:1030600081FC02C080E201C08BE207FD8DE290E0AE
:10307000B3010E942E1C06C080E390E0B3010E94C1
:103080002E1CFA94DF14C0F3DA94F201ED0DF11D59
:10309000808190E0B3010E942E1CDD20A9F706C0BC
:1030A00080E290E0B3010E942E1CEA94EE20C1F76A
:1030B00040CEF3018681978102C08FEF9FEF2D965E
:1030C000E2E10C949415A9E0B0E0E9E6F8E10C9493
:1030D0007C156A01122FF02E2BE3201718F0B02E6A
:1030E000B39402C03CE3B32EAE014F5F5F4F27E0C5
:1030F0000B2D0E94251BBC01A981B0E0CD01897078
:1031000090708130910531F0E1FC06C0E0FE06C010
:1031100040E205C04DE203C04BE201C040E0A3FF26
:1031200036C0442311F084E001C083E0811710F41D
:10313000181B01C010E0E4FC0BC0912FF60180E2E7
:1031400002C0819391509923E1F7C10ED11C10E088
:10315000442319F0F60141936F01E2FE05C08EE4AD
:10316000F601808391E404C08EE6F601808391E647
:103170009183828383E090E0C80ED91E812FF601EF
:1031800090E202C0919381508823E1F73AC0A2FFF8
:103190003FC0442311F084E001C083E0811710F4A4
:1031A000181B01C010E0E4FC0BC0912FF60180E277
:1031B00002C0819391509923E1F7C10ED11C10E018
:1031C000442319F0F60141936F01E2FE07C089E440
:1031D000F60180838EE4818386E406C089E6F601E9
:1031E00080838EE6818386E6828383E090E0C80E4A
:1031F000D91E812FF60190E202C09193815088235D
:10320000E1F7C10ED11CF60110828EEF9FEFAFC027
:1032100021E030E0442311F420E030E016161706D8
:103220001CF4CB01019602C081E090E0280F391F09
:10323000FF2021F08F2D90E0019602C080E090E009
:10324000820F931F212F30E0821793071CF4512F18
:10325000581B01C050E08E2D90E09C012071307011
:10326000E4FC0DC0E3FC0BC0852FF60190E202C028
:10327000919381508823E1F7C50ED11C50E044237F
:1032800019F0F60141936F012115310559F4852F8D
:10329000F60190E302C0919381508823E1F7C50EB7
:1032A000D11C50E0B60E4A8120E1622E712C6A22B8
:1032B0007B22A4FF03C0413309F4BA941B142CF4FD
:1032C0008B2D893018F088E001C081E09B0177FFE9
:1032D00002C020E030E0A0E0B0E09EE2E92E4B0129
:1032E000881A9108CB01821B930B8E010F5F1F4F31
:1032F000080F191F8F2D90E0AA24BB24A81AB90A21
:10330000FFEF2F3F3F0719F4F601E1926F016217BB
:10331000730744F0821693062CF4F801EA0FFB1FA2
:10332000818101C080E32150304011962A153B0570
:1033300024F0F60181936F01E3CF2617370741F49C
:10334000463328F4453321F46114710409F481E310
:10335000F6018193852FDF0190E202C09D93815099
:103360008823E1F7E50FF11D108280E090E02996B7
:10337000EEE00C949815A0E0B0E0E1ECF9E10C94DB
:103380007C155B016115710521F0DB018C931196B1
:103390009C937C01E7010894E11CF11C0881670102
:1033A000802F90E00E940D160097A1F70D3241F496
:1033B000098142E0C42ED12CCC0EDD1E11E009C0E3
:1033C0000B3231F4098132E0C32ED12CCC0EDD1E3C
:1033D00010E0E6012197CE0163E472E043E050E0A3
:1033E0000E94001C0097D1F4E6012296CE0166E40B
:1033F00072E045E050E00E94001C009711F4E601E5
:103400002796A114B10419F0F501D183C08330E0EF
:1034100020E090E8112309F40AC104C1CE016BE455
:1034200072E043E050E00E94001C009759F4A114A0
:10343000B10409F4F9C0C6010296D50111969C9316
:103440008E93F2C040E050E0BA01882499240053E2
:103450000A3090F51260212F30E0C9018870907019
:1034600012FF06C0009769F50894811C911C29C0C1
:10347000009719F0089481089108DB01CA01D2E095
:10348000880F991FAA1FBB1FDA95D1F7480F591F44
:103490006A1F7B1F440F551F661F771F400F511D6A
:1034A000611D711D4839B9E95B07B9E96B07B9E1DD
:1034B0007B0738F0146005C00E3F39F413FD43C09C
:1034C0001860F60101916F01C2CF053311F005318B
:1034D000D1F5D601EC91ED3211F4106108C0EB3258
:1034E00029F0C601019621E030E008C0D60111960E
:1034F000EC911197C601029622E030E0E053EA30E9
:1035000020F06C01C21AD30A1EC0DC0120E030E0BA
:10351000FCE020383F075CF4C901880F991F880F31
:10352000991F280F391F220F331F2E0F311DED91C8
:10353000E0536D01EA3060F314FF03C0309521952C
:103540003F4F820E931EC12FD0E011FF08C0A1147F
:10355000B10429F0C6010197D5018D939C93CB014D
:10356000BA010E9426146B017C01CE018370907019
:103570008330910521F4F7FAF094F7F8F094C7013D
:10358000B60120E030E0A9010E948913882309F4E4
:1035900044C097FE07C09094819491089394CAE721
:1035A000D2E002C0C2E6D2E098EE692E9FEF792EFB
:1035B0006C0E7D1E20E2A22EB12C0FC0FE010591E3
:1035C000159125913491C701B601A90198010E9476
:1035D000DC146B017C018A189B088A149B0474F725
:1035E0002497B594A794C615D705B9F7C601D70196
:1035F0002A2F220F2B2F221F2F3F49F0BC01CD0174
:1036000020E030E0A9010E948913882331F482E28E
:1036100090E09093DE068093DD063C2D2D2D9E2DAF
:103620008F2D06C08FEF04C030E020E090EC8FE7D4
:10363000B901AC01872F922FA52FB42FBC01CD016A
:10364000CDB7DEB7EEE00C949815283008F027E0EF
:103650003327DA01990F311D87FD916000966105CE
:10366000710539F432602E5F3D9330E32A95E1F71E
:1036700008959F3F30F080387105610509F03C5F87
:103680003C5F3D93913008F08068911DDF93CF93AC
:103690001F930F93FF92EF92192F987F9695E92F22
:1036A00096959695E90FFF27E852FD4F9927332706
:1036B000EE24FF24A701E70105900894079428F45D
:1036C000360FE71EF81E491F511D660F771F881F12
:1036D000991F0694A1F70590079428F4E70EF81EA9
:1036E000491F561FC11D770F881F991F661F06941B
:1036F000A1F70590079428F4F80E491F561FC71F1D
:10370000D11D880F991F661F771F0694A1F705909A
:10371000079420F4490F561FC71FD81F990F661F23
:10372000771F881F0694A9F784911095177041F0B0
:10373000D695C79557954795F794E7941A95C1F78D
:10374000EEE7F2E0689415901591359165919591A9
:1037500005907FE27395E118F10A430B560BC90BF4
:10376000D009C0F7E10CF11E431F561FC91FD01D21
:103770007EF4703311F48A95E6CFE894015030F06E
:10378000080F0AF40027021708F4202F2395022FB0
:103790007A3328F079E37D932A95E9F710C07D9379
:1037A0002A9589F6069497956795379517951794F6
:1037B000E118F10A430B560BC90BD00998F0239579
:1037C0007E9173957A3308F070E37C932013B8F7F9
:1037D0007E9170617D9330F0839571E37D9370E30A
:1037E0002A95E1F71124EF90FF900F911F91CF914F
:1037F000DF91992787FD9095089599278827089547
:10380000FB01DC014150504088F08D9181341CF067
:103810008B350CF4805E659161341CF06B350CF4D3
:10382000605E861B611171F3990B0895881BFCCFB4
:10383000FC010590615070400110D8F7809590957B
:103840008E0F9F1F0895FC01615070400190011080
:10385000D8F7809590958E0F9F1F08950F931F9313
:10386000CF93DF938C01EB018B8181FF1BC082FF23
:103870000DC02E813F818C819D812817390764F40A
:10388000E881F9810193F983E88306C0E885F98529
:10389000802F0995009731F48E819F8101969F8337
:1038A0008E8302C00FEF1FEFC801DF91CF911F91F0
:1038B0000F910895FA01AA27283051F1203181F1A2
:1038C000E8946F936E7F6E5F7F4F8F4F9F4FAF4F28
:1038D000B1E03ED0B4E03CD0670F781F891F9A1F3B
:1038E000A11D680F791F8A1F911DA11D6A0F711DEF
:1038F000811D911DA11D20D009F468943F912AE0FB
:10390000269F11243019305D3193DEF6CF010895E2
:10391000462F4770405D4193B3E00FD0C9F7F6CF13
:10392000462F4F70405D4A3318F0495D31FD4052DB
:10393000419302D0A9F7EACFB4E0A6959795879571
:1039400077956795BA95C9F7009761057105089550
:103950009B01AC010A2E06945795479537952795FC
:10396000BA95C9F7620F731F841F951FA01D089594
:1039700013E0CEE7D3E004C0FE010E94C5152296F5
:0A398000C238D107C9F7F894FFCF51
:10398A0047657474696E670074696D652E2E2E0022
:10399A003437003133362E31343733333637003348
:1039AA00342E343737323932330071314C4B753754
:1039BA005251387335706D7978756E6E445700318F
:1039CA0030372E3136312E3136342E313636006EBE
:1039DA00616E00696E66006F7666002E0000000058
:1039EA004000140054002459450024545220310048
:1039FA002454523D4E470024545220256400245436
:103A0A005720220024782530327800220024545787
:103A1A003D4E4700245444002454443D4E4700245C
:103A2A005443202573202564002454433D4E470007
:103A3A0024505200245053202564002450533D4EF4
:103A4A004700244C47204D53424153454400244CDF
:103A5A0047204D53415353495354454400244C473E
:103A6A00205354414E44414C4F4E4500244C473D4F
:103A7A004E47002459560024595200245954002410
:103A8A0059543D4F4B002457502068747470733A50
:103A9A002F2F003A0025750024575020687474703F
:103AAA003A2F2F002F0020220022202200245750D4
:103ABA003D4F4B00746F6B656E3D257326737461C1
:103ACA007475733D25730061726475696E6F2D7428
:103ADA00776565742E61707073706F742E636F6D85
:103AEA0000757064617465002457472068747470A7
:103AFA00733A2F2F0024574720687474703A2F2F77
:103B0A00002457473D4F4B00245352002453523D43
:103B1A004E470024534300245353200022200055CB
:103B2A004E49434F444500415343494900245353A6
:103B3A003D4F4B0024594C2025640024594C3D4FDD
:103B4A004B0024594220256C75002459423D4F4BA5
:103B5A0000245949002459493D4F4B002459530028
:103B6A000000DF062000100113011F012A013F0196
:103B7A00322E322E335F33470000000000FB067EF0
:103B8A0008A106CE06B306F00600000000F30B7E7D
:103B9A00084D0BFF0A230B3E0B00000000BE0E7EF1
:023BAA00080011
:00000001FF
