:100000000C94E2010C9429090C9456090C94DC1010
:100010000C9400110C9424110C940A020C940A0202
:100020000C940A020C940A020C940A020C940A0220
:100030000C940A020C940A020C940A020C940A0210
:100040000C9483090C940A020C94AD0B0C94F00BE5
:100050000C940A020C940A020C940A020C940A02F0
:100060000C940A020C940A0246726565203A090053
:100070006E476569676965004765742074696D65D9
:100080002E20004F4B002530346425632563256303
:1000900025632E6C6F67004661696C656420746926
:1000A0006D652E00253034642D2D2D2D2E6C6F673F
:1000B0000053656E736F72204D6F64656C3A204C0F
:1000C0004E4420373331370053656E736F72204DC5
:1000D0006F64656C3A204C4E442037333137004909
:1000E0006E697469616C697A696E672E2E2000757D
:1000F000532F48005375636365656465642E002F54
:10010000736372697074732F73686F72742E706882
:10011000703F6170695F6B65793D2573266C617412
:100120003D2573266C6F6E3D25732663706D3D25EE
:10013000732669643D25640024424E5244442C25B4
:10014000642C2C2C2C25732C2C2C2C25732C2C253E
:10015000732C2C2C2C2C2C002A302558002A2558A6
:100160000053656E64204F4B210053656E64204F31
:100170004B004E6F2048545450006E6F204854542A
:1001800050007265616420257320302025640000D2
:100190000000070002010000030406000000000048
:1001A0000000000102040810204080010204081031
:1001B00020010204081020040404040404040402BE
:1001C00002020202020303030303030000000023F0
:1001D000002600290000000000250028002B000058
:1001E000000000240027002A0000C20100010011C5
:1001F0000011000C0000E100000A0025002500218C
:1002000000009600001900390039003600127A000B
:10021000001F004600460044008070000022004D90
:10022000004D004A00004B0000360075007500725A
:1002300000403800004A009C009C00990080250086
:10024000007200EC00EC00E900C0120000E900DAE6
:1002500001DA01D70160090000D701B603B603B384
:1002600003B0040000B3036E076E076B075802006B
:10027000006E07DC0EDC0ED80E2C010000DC0EC177
:100280001DC11DBE1D494E46494E4954594E414E51
:10029000000020410000C84200401C4620BCBE4C6B
:1002A000CA1B0E5AAEC59D74CDCCCC3D0AD7233C9B
:1002B00017B7D13877CC2B329595E6241FB14F0A6A
:1002C00000407A10F35A00A0724E18090010A5D40D
:1002D000E80000E87648170000E40B54020000CA6A
:1002E0009A3B000000E1F5050000809698000000B0
:1002F00040420F000000A08601000000102700000F
:100300000000E803000000006400000000000A0094
:10031000000000000100000000002C76D888DC6797
:100320004F0823DFC1DFAE59E1B1B796E5E3E453EF
:10033000C63AE651997696E8E6C28426EB898C9B0C
:1003400062ED407C6FFCEFBC9C9F40F2BAA56FA5AC
:10035000F490055A2AF75C936B6CF9676DC11BFC2E
:10036000E0E40D47FEF520E6B500D0ED902E030049
:10037000943577050080841E080000204E0A000096
:1003800000C80C333333330F986E12831141EF8D55
:100390002114893BE65516CFFEE6DB18D1844B3895
:1003A0001BF77C1D901DA4BBE424203284725E22C6
:1003B0008100C9F124ECA1E53D278406A80C0617AD
:1003C00089060B1711241FBECFEFD8E0DEBFCDBFCB
:1003D00013E0A0E0B1E0E0ECF1E402C005900D9282
:1003E000A032B107D9F717E0A0E2B3E001C01D9237
:1003F000A135B107E1F713E0C0ECD3E004C02297C8
:10040000FE010E94BA19CA3BD107C9F70E94730FB7
:100410000C94D3200C940000809134039091350308
:100420000196909335038093340381E080933603E3
:100430000895CF92EF920F931F938130910501F5AC
:1004400084E693E06AE04DE020E00E9496118FE39D
:1004500093E06EE04FE028E009E03BE0E32E5CE053
:10046000C52E0E94351480E293E064E673E043E415
:1004700054E02AEF34E00FE510E00E948E0606C03B
:10048000009721F484E693E00E9499121F910F9146
:10049000EF90CF900895A2E0B0E0E1E5F2E00C9497
:1004A0007D1920914B0730914C072115310511F42E
:1004B00021E537E0CE010196821B930B2296E2E004
:1004C0000C949919DC018C9121E030E007C0FD010A
:1004D000E20FF31F908189272F5F3F4F26173707C1
:1004E000B4F30895A0E1B0E0E8E7F2E00C947319EA
:1004F0006B017C0120912C0330912D0340912E0340
:1005000050912F030E94D118B62EA72E982E892E17
:10051000C701B60140E020E06E010894C11CD11C67
:1005200086010E94BE1986E695E0B6010E94720D12
:1005300086E695E06FED70E00E94220D8FE393E078
:100540000E9477138FE393E060E040E00E94521333
:100550008FE393E0F50194014F2F5E2F632F722FED
:1005600022E030E00E94700F8FE393E06FEE70E0C6
:100570000E94220D84E996E060E070E00E948E14F3
:10058000009709F001C184E996E060E070E00E9404
:100590009C15009709F0F8C086E695E064EF70E0DE
:1005A0000E94600D81EC90E0909381038093800322
:1005B0008DB79EB70E970FB6F8949EBF0FBE8DBF36
:1005C000EDB7FEB731968BE994E0ADB7BEB71296A2
:1005D0009C938E9311978FEF90E09383828389E5AC
:1005E00094E09583848318E1A12EB12CA80EB91E46
:1005F000B782A6828C01085D1F4F11870087D386C2
:10060000C2868091570490915804958784870E94F0
:10061000681A8AEFE82E84E0F82E8FE5F701119230
:100620008A95E9F70F900F90EDB7FEB73196ADB709
:10063000BEB71296FC92EE92119788E391E09383F5
:100640008283809157049091580495838483D78244
:10065000C682B186A086138702870E94681AF701B6
:1006600001900020E9F7BF01615070406E197F09C9
:1006700070938103609380038B010E0D1F1DD801C1
:100680001C92EDB7FEB73C960FB6F894FEBF0FBEB6
:10069000EDBFC70101960E9462028093540380312E
:1006A00078F400D000D000D0EDB7FEB73196ADB7EA
:1006B000BEB712961C930E93119728E531E00EC039
:1006C00000D000D000D0EDB7FEB73196ADB7BEB7C1
:1006D00012961C930E9311972DE531E033832283FC
:1006E000848315820E94681AEDB7FEB736960FB65E
:1006F000F894FEBF0FBEEDBF84E693E06AEF74E0AE
:100700000E94720D6091EC027091ED02E090800306
:10071000F090810384E996E040E550E02BE934E075
:1007200002E813E0CC240E942116009799F486E693
:1007300095E061E671E00E94600D8FE393E060E078
:1007400041E00E9452138FE393E06AE671E00E9459
:10075000220D1AC086E695E062E771E00E94220D44
:100760008FE393E060E041E00E9452138FE393E057
:100770006AE771E00E94220D6091EC027091ED0237
:1007800086E695E00E94720D8FE5EAEFF4E0DF0166
:10079000982F1D929A95E9F7EBE9F4E0DF011D929D
:1007A0008A95E9F784E996E00E947A1484E996E054
:1007B0000E94CE146096ECE00C948F19CF92DF92D9
:1007C000EF92FF920F931F936B017C010E94CD0962
:1007D000DC01CB0197018601081B190B2A0B3B0B8F
:1007E000C816D906EA06FB0620F400951095209558
:1007F0003095B801C9011F910F91FF90EF90DF90E4
:10080000CF9008956091300370913103809132034D
:10081000909133030E94DE03AB01BC0180913B0346
:1008200090913C03A0913D03B0913E0348175907B6
:100830006A077B07B0F06091340370913503882715
:1008400077FD8095982F0E941D1810923503109205
:100850003403462F572F682F792FCB01BA010E94FE
:10086000720208951F93CF93DF93182FC0E0D0E05A
:10087000219684E693E00E94CE0F009779F084E6FB
:1008800093E00E94800FAC01112319F02EE330E0B9
:1008900002C02CE330E04217530759F06AE070E0E1
:1008A00080E090E00E94090A81E0C43FD80701F788
:1008B00005C081E091E0C43FD90709F480E0DF91F1
:1008C000CF911F910895A4E1B0E0E9E6F4E00C9423
:1008D0007D19A89586E695E040E855E260E070E075
:1008E0000E942B0C84E693E040E855E260E070E063
:1008F0000E94C31186E695E06EEE72E00E94720DD2
:1009000086E695E068E670E00E94220D0E944B02A8
:10091000BC0186E695E04AE050E00E943E0E8FE37F
:1009200093E068E042E020E00E947F138FE393E0D1
:100930000E9477138FE393E060E770E00E94220D3E
:100940008FE393E060E041E00E9452138FE393E075
:100950006EEE72E00E94410D68EB7BE080E090E07B
:100960000E94090A80E293E00E94A80884E693E0CE
:1009700040E855E260E070E00E94C31180E161E070
:100980000E94A40A84E693E00E94ED0F80E160E0FB
:100990000E94D80A64E670E080E090E00E94090AB4
:1009A00080E161E00E94D80A81E00E94320488233D
:1009B00021F481E08093550303C081E080936303B9
:1009C00080916303882331F080E293E060E071E07E
:1009D0000E94BE0680916303882331F486E695E089
:1009E0006CE071E00E94720D86E695E069E574E0C6
:1009F0000E94720D86E695E061E774E00E94720D38
:100A000086E695E061E874E00E94720D60915704FB
:100A10007091580486E695E04AE050E00E94F50D9A
:100A200086E695E068E770E00E94220D8FE393E090
:100A30000E9477138FE393E060E040E00E9452133E
:100A40008FE393E060E171E00E94410D8FE393E05A
:100A500060E041E00E9452138FE393E068E171E0AF
:100A60000E94410D68EB7BE080E090E00E94090A63
:100A700084E996E060E070E00E948E14009709F02F
:100A80009BC084E996E060E070E00E949C150097AE
:100A900009F092C086E695E063E870E00E94600D80
:100AA00084E996E0BE01665F7F4FAE014F5F5F4F06
:100AB0000E94D915009709F057C086E695E0BE015F
:100AC000665F7F4F0E94720D86E695E0BE016F5F04
:100AD0007F4F0E94720D8FE393E060E040E00E9440
:100AE00052138FE393E0BE01665F7F4F0E94410D7A
:100AF0008FE393E060E041E00E9452138FE393E0C4
:100B0000BE016F5F7F4F0E94410D8DB79EB70E975C
:100B10000FB6F8949EBF0FBE8DBFEDB7FEB73196EE
:100B200086E593E0ADB7BEB712969C938E9311976E
:100B300086E890E0938382838091570490915804D3
:100B4000958384838F858683178288898087118621
:100B50008A89828713868B89848715860E94681A02
:100B60008DB79EB70E9623C086E695E067E970E0E4
:100B70000E94600D00D000D000D0EDB7FEB73196D6
:100B800086E593E0ADB7BEB712969C938E9311970E
:100B900084EA90E093838283809157049091580473
:100BA000958384830E94681A8DB79EB706960FB608
:100BB000F8949EBF0FBE8DBF86E695E066E573E0B4
:100BC0000E94720D81E08093550384E693E00E94B9
:100BD000ED0F84E693E060E271E00E94410D84E64F
:100BE00093E066E573E00E94410D84E693E06DE0DA
:100BF0000E94741080E00E943204882391F480E106
:100C000060E00E94D80A64E670E080E090E00E9414
:100C1000090A80E161E00E94D80A81E00E94320462
:100C2000D8CF80919104882329F186E695E061EB85
:100C300070E00E94600D60E070E080E89FE320912A
:100C400092043091930440919404509195040E9431
:100C50008217DC01CB0180932C0390932D03A0938A
:100C60002E03B0932F0381E06CE072E043E050E08C
:100C70000E94F908809196048823F1F086E695E0B9
:100C800068EC70E00E94600D60E070E080E89FE337
:100C900020919704309198044091990450919A04BE
:100CA0000E948217DC01CB018093280390932903D3
:100CB000A0932A03B0932B0380E69AEEA0E0B0E065
:100CC00080933B0390933C03A0933D03B0933E037A
:100CD0000E94CD09DC01CB0140913B0350913C03C4
:100CE00060913D0370913E03840F951FA61FB71FAF
:100CF0008093370390933803A0933903B0933A035A
:100D00006496E2E00C94991981E090E00E94190247
:100D1000089580E090E00E94190208950F931F93B8
:100D2000FC0171836083538342833583248317835B
:100D300006831F910F910895EF92FF920F931F93D7
:100D4000CF93DF93EB0128E5E22EF12C8C01061BFB
:100D5000170BBE01600F711F49918AE497E00E9452
:100D600014170894E108F108E114F10491F788E5FB
:100D700090E0CDB7DEB7E6E00C949519A0E0B0E0C6
:100D8000E4ECF6E00C9472195C01EB01DC018D914E
:100D90009C910E94ED0FEDB7FEB738970FB6F8940F
:100DA000FEBF0FBEEDBF3196D50114968D919C917B
:100DB0001597ADB7BEB712969C938E93119782E8A4
:100DC00091E093838283D583C483D50116968D9158
:100DD0009C911797978386830E94681AEDB7FEB798
:100DE00038960FB6F894FEBF0FBEEDBFD50114962E
:100DF0006D917C9115978D919C910E94410DF5010B
:100E000080819181DC01ED91FC910190F081E02DD8
:100E10006DE00995F50180819181DC01ED91FC91F6
:100E20000480F581E02D09950097A1F3F5018081FB
:100E30009181DC01ED91FC910680F781E02D09950F
:100E40008D30910539F7F50146815781848195816F
:100E500060E070E00E940A1AC0E0D0E07724D5017B
:100E60008D919C91DC01ED91FC910480F581E02D48
:100E70000995009791F0F501C481D581C70DD11D69
:100E800080819181DC01ED91FC910680F781E02D5C
:100E9000099588837394C0E0D0E061E070E080E061
:100EA00090E00E94090A272D30E0F50186819781A4
:100EB0002817390729F02196F3E0C83EDF077CF2B6
:100EC0008824992432C1D50114966D917C9115978F
:100ED000DB01A80DB11D40E009C04F5F882D90E0F7
:100EE000F501268137818217930739F0FB01E80D60
:100EF000F11D808183948A3081F7FD01E40FF11D9B
:100F000010828C91882309F410C1833209F40DC139
:100F1000433008F40AC180E0ED01C80FD11D98816B
:100F2000903211F0993051F48F5F8417A9F7FDC00A
:100F3000903211F0993009F410828F5F841709F410
:100F4000F4C0FD01E80FF11D90819D3389F78417EE
:100F500009F4EBC010828F5F8D01080F111DF8019D
:100F60009081903211F0993021F48F5F8417A1F7AE
:100F7000DCC0841709F4D9C0CE0168E371E00E9497
:100F8000111A0097B9F4C8010E94E4199C01B90133
:100F9000882777FD8095982F0E941D18F62EE72E42
:100FA000D82EC92ED5011296CD91DC911397C15B35
:100FB000DF4F1DC0CE016CE371E00E94111A009753
:100FC00091F5C8010E94E419FC01BF01882777FD53
:100FD0008095982F0E941D18F62EE72ED82EC92E28
:100FE000D5011296CD91DC911397CC5ADF4F6881D1
:100FF00079818A819B81F701A6010F2F1E2D252F54
:101000003C2DA90198010E947E17882309F48DC008
:10101000A7019601852F912FA32FBC2D888399833B
:10102000AA83BB8380C0CE0160E471E00E94111AE4
:10103000009729F4F501C281D38124966AC0CE01BC
:1010400063E471E00E94111A009791F4D5011296A1
:10105000CD91DC911397C8010E94E4199C018C8901
:101060009D898217930709F460C03D8B2C8B5BC070
:10107000CE0167E471E00E94111A009729F4F5018E
:10108000C281D381669645C0CE016BE471E00E94B7
:10109000111A009769F4D5011296CD91DC9113973E
:1010A000C8010E94E4199C01FE01E25BFF4F11C0E0
:1010B000CE016FE471E00E94111A009789F4F501E6
:1010C000C281D381C8010E94E4199C01FE01ED5A3E
:1010D000FF4F808190E08217930739F1208323C06E
:1010E000CE0163E571E00E94111A009739F4D50131
:1010F0001296CD91DC911397AE960BC0CE0167E5A9
:1011000071E00E94111A009781F4F501C281D38128
:10111000EE96CE01B8010E94111A009731F0CE016F
:10112000B8010E941A1A99249394871408F4CBCE1C
:10113000992049F0D50112966D917C91139784EF17
:1011400091E00E949C06CDB7DEB7EDE00C948E19BD
:10115000EF92FF920F931F93CF93DF938C01DC01EB
:101160001296EC9112971396FC9188E5DF011D927F
:101170008A95E9F7F801E280F38064EF71E001C03D
:10118000BE01EB0121968AE497E00E941017D70177
:101190008D937D01B2E0CC34DB0791F7D801129634
:1011A000ED91FC91139780819181A281B3818D3063
:1011B00020EF92072EEFA2072AE5B207A9F088E5F3
:1011C000DF011D928A95E9F7F801628173818DE054
:1011D00090EFAEEFBAE5FB0180839183A283B383E6
:1011E00084EF91E00E949C06CDB7DEB7E6E00C9458
:1011F00095198230E8F4E82FF0E0EE0FFF1FE75A70
:10120000FA4F71836083813041F0809169008C7F57
:10121000842B80936900E89A089580916900440FB7
:10122000551F440F551F837F842B80936900E99AD3
:101230000895823068F4813011F0E89801C0E9988F
:10124000E82FF0E0EE0FFF1FE75AFA4F11821082ED
:1012500008951F920F920FB60F9211242F933F9370
:101260004F935F936F937F938F939F93AF93BF93AE
:10127000EF93FF938091590590915A05009729F0BB
:10128000E0915905F0915A050995FF91EF91BF91B1
:10129000AF919F918F917F916F915F914F913F910E
:1012A0002F910F900FBE0F901F9018951F920F92C5
:1012B0000FB60F9211242F933F934F935F936F9329
:1012C0007F938F939F93AF93BF93EF93FF938091FF
:1012D0005B0590915C05009729F0E0915B05F0912A
:1012E0005C050995FF91EF91BF91AF919F918F910F
:1012F0007F916F915F914F913F912F910F900FBE12
:101300000F901F9018951F920F920FB60F921124F5
:101310002F933F938F939F93AF93BF9380915D05DE
:1013200090915E05A0915F05B091600530916505D3
:10133000232F2D5F2D3720F40196A11DB11D05C06F
:10134000232F2A570296A11DB11D20936505809376
:101350005D0590935E05A0935F05B0936005809155
:10136000610590916205A0916305B09164050196B5
:10137000A11DB11D8093610590936205A093630543
:10138000B0936405BF91AF919F918F913F912F9141
:101390000F900FBE0F901F9018950F931F938FB74C
:1013A000F89400915D0510915E0520915F053091E4
:1013B00060058FBFB801C9011F910F9108950F9368
:1013C0001F939FB7F89400916105109162052091D9
:1013D00063053091640586B5A89B06C08F3F21F058
:1013E0000F5F1F4F2F4F3F4F9FBF322F212F102FC7
:1013F0000027080F111D211D311D42E0000F111F94
:10140000221F331F4A95D1F7B801C9011F910F91CF
:101410000895CF92DF92EF92FF92CF93DF936B010B
:101420007C010E94DF09DC01CB01EC010FC00E94AE
:10143000DF096C1B7D0B83E0683E780738F0089469
:10144000C108D108E108F108C851DC4FC114D1042A
:10145000E104F10461F7DF91CF91FF90EF90DF900D
:10146000CF900895019739F0880F991F880F991F21
:1014700002970197F1F70895789484B5826084BD4E
:1014800084B5816084BD85B5826085BD85B5816088
:1014900085BDEEE6F0E0808181608083E1E8F0E0E8
:1014A0001082808182608083808181608083E0E817
:1014B000F0E0808181608083E1EBF0E080818460F6
:1014C0008083E0EBF0E0808181608083EAE7F0E0F8
:1014D000808184608083808182608083808181605C
:1014E00080838081806880831092C100089583305A
:1014F00071F0843028F48130A1F0823021F514C0DD
:101500008630B1F08730D1F08430E9F404C08091A6
:1015100080008F7703C0809180008F7D8093800052
:10152000089584B58F7702C084B58F7D84BD0895FA
:101530008091B0008F778093B00008958091B000C3
:101540008F7D8093B000089590E0FC01ED55FE4F33
:10155000249189549E4FFC018491882341F190E0AD
:10156000880F991FFC01E152FE4F45915491DA0119
:101570008B529E4FFC0185919491FC019FB7F8948A
:101580008C91662331F4209582238C938081822371
:1015900008C0623049F4322F309583238C938081C8
:1015A000822B80839FBF0895822B8C939FBF0895C9
:1015B000A1E0B0E0EEEDFAE00C947B19282F30E0CA
:1015C000F901E157FE4F8491F901ED55FE4F149159
:1015D000F901E954FE4F04910023D1F0882321F052
:1015E00069830E94770A6981E02FF0E0EE0FFF1F08
:1015F000EB52FE4F85919491DC019FB7F8948C914A
:10160000662319F41095812301C0812B8C939FBF11
:101610002196E4E00C949719FC0124853585F901A5
:10162000E05CFF4F808191812E5B3F4FF90120816B
:101630003181821B930B8F7390700895FC01448558
:101640005585FA01E05CFF4F80819181FA01EE5BE4
:10165000FF4F208131818217930741F00190F08183
:10166000E02DE40FF51F808190E008958FEF9FEF4C
:101670000895FC0144855585FA01E05CFF4F208107
:101680003181FA01EE5BFF4F808191812817390784
:1016900079F0A081B181A40FB51F8C912081318197
:1016A0002F5F3F4F2F7330703183208390E0089578
:1016B0008FEF9FEF0895FC0181A1882329F0A48971
:1016C000B5898C9186FFFBCF11A20895CF93DF934C
:1016D000DC011E964D915C911F97EA01C05CDF4FC3
:1016E000288139812F5F3F4F2F733070FA01EE5BF5
:1016F000FF4F8081918128173907D9F3E881F9815B
:10170000E40FF51F60831E96ED91FC911F97E05C3E
:10171000FF4F318320835696ED91FC91579720819E
:1017200081E090E05F960C905F9702C0880F991F50
:101730000A94E2F7282B208381E091968C9391976D
:101740005496ED91FC91559780818064808381E06F
:1017500090E0DF91CF91089508951F920F920FB6F8
:101760000F9211242F933F934F938F939F93EF9357
:10177000FF938091C00082FD1CC04091C600809103
:101780000C0690910D0601968F73907020910E06B5
:1017900030910F068217930771F0E0910C06F091DB
:1017A0000D06E453FA4F408390930D0680930C0688
:1017B00002C08091C600FF91EF919F918F914F9150
:1017C0003F912F910F900FBE0F901F90189586E6B6
:1017D00095E00E940C0B009711F00E94AC0B08954D
:1017E0001F920F920FB60F9211242F933F938F9356
:1017F0009F93EF93FF932091C8053091C905809185
:10180000CA059091CB052817390731F48091C100A2
:101810008F7D8093C10014C0E091CA05F091CB0583
:10182000E857FA4F20818091CA059091CB05019627
:101830008F7390709093CB058093CA052093C60058
:10184000FF91EF919F918F913F912F910F900FBE3C
:101850000F901F901895A0E0B0E0E1E3FCE00C943D
:101860007619EC016A017B01BB24B394403081EE10
:10187000580780E0680780E0780749F4BB24EC89CA
:10188000FD89108260E874E88EE190E00FC0EC8979
:10189000FD8981E090E008A002C0880F991F0A949A
:1018A000E2F7808360E079E08DE390E0A7019601A4
:1018B0000E944B1989019A0101501040204030408C
:1018C000369527951795079580E10030180710F099
:1018D000BB20A1F6E889F9891083EA89FB89008396
:1018E00019A2EE89FF89408121E030E0C9010C8C0A
:1018F00002C0880F991F0A94E2F7482B4083EE89B3
:10190000FF894081C9010D8C02C0880F991F0A947C
:10191000E2F7482B4083EE89FF894081C9010E8C94
:1019200002C0880F991F0A94E2F7482B4083EE8982
:10193000FF8980810F8C02C0220F331F0A94E2F7C7
:10194000209528232083CDB7DEB7E9E00C949219C7
:10195000109269051092680588EE93E0A0E0B0E06F
:1019600080936A0590936B05A0936C05B0936D0509
:10197000E8E6F5E08BEF92E0929382938CEC95E0B1
:101980009587848788E895E09787868785EC90E03F
:10199000918B808B84EC90E0938B828B80EC90E039
:1019A000958B848B81EC90E0978B868B82EC90E01A
:1019B000918F808F86EC90E0938F828F84E0848F6C
:1019C00083E0858F87E0868F85E0878F81E080A325
:1019D0000895A0E0B0E0EFEEFCE00C9477196C0104
:1019E0007B01EA0100E010E00EC0D7016D917D019E
:1019F000D601ED91FC910190F081E02DC601099591
:101A0000080F191F2197209781F7C801CDB7DEB7BE
:101A1000E8E00C9493196115710589F0DB010D90D4
:101A20000020E9F7AD0141505040461B570BDC0147
:101A3000ED91FC910280F381E02D0995089580E0FD
:101A400090E00895EF92FF920F931F93CF93DF934F
:101A50007C01EB0100E010E0FE0121966491662319
:101A600051F0F701A081B181ED91FC91C701099579
:101A7000080F191FF1CFC801CDB7DEB7E6E00C940F
:101A800095190E940B0D0895DC01ED91FC910190D8
:101A9000F081E02D099508950F931F93CF93DF9365
:101AA0008C016DE00E94440DEC01C8016AE00E94C7
:101AB000440D8C0F9D1FDF91CF911F910F910895C1
:101AC0000F931F93CF93DF938C010E94220DEC01A3
:101AD000C8010E944C0D8C0F9D1FDF91CF911F916B
:101AE0000F9108950F931F93CF93DF938C010E9462
:101AF0000B0DEC01C8010E944C0D8C0F9D1FDF9156
:101B0000CF911F910F9108954F925F926F927F92A4
:101B1000AF92BF92CF92DF92EF92FF920F931F93FB
:101B2000CF93DF93CDB7DEB7A1970FB6F894DEBFA2
:101B30000FBECDBF5C01E42ECB01F22E19A221E035
:101B40002F1510F03AE0F32E21E2C22ED12CCC0E4C
:101B5000DD1E4F2C55246624772403C0E02E512F20
:101B6000C9016E2D752FA30192010E944B198901A5
:101B70009A01F09E802D1124E81A8E2D0894C10838
:101B8000D1088A3010F4805D01C0895CF601808341
:101B9000011511052105310509F7C501B6010E949E
:101BA0000B0DA1960FB6F894DEBF0FBECDBFDF912F
:101BB000CF911F910F91FF90EF90DF90CF90BF904A
:101BC000AF907F906F905F904F90089521153105F1
:101BD00049F4DC01ED91FC910190F081E02D642F3E
:101BE000099508950E94840D08950F931F93CF9334
:101BF000DF938C019A01AB0160E070E00E94E60D7A
:101C0000EC01C8010E944C0D8C0F9D1FDF91CF91FC
:101C10001F910F910895A0E0B0E0E1E1FEE00C9487
:101C20007719EC016A017B012115310541F4E88146
:101C3000F9810190F081E02D642F09951AC02A30B6
:101C40003105A9F477FF12C06DE20E94440D8C01AA
:101C500044275527BA014C195D096E097F09CE0149
:101C60002AE00E94840D800F911F03C02AE00E9489
:101C7000840DCDB7DEB7E8E00C9493190F931F9352
:101C8000CF93DF938C019A01CB01AC01662757FDFE
:101C90006095762FC8010E940B0EEC01C8010E94CE
:101CA0004C0D8C0F9D1FDF91CF911F910F910895C7
:101CB0002F923F924F925F927F928F929F92AF921C
:101CC000BF92CF92DF92EF92FF920F931F93CF9329
:101CD000DF932C014A015B01722ECB01BA01A501F1
:101CE00094010E943419882321F0C2016BE571E050
:101CF0001BC075016401E894F7F8C701B6012FEF26
:101D00003FEF4FE75FE70E943419882389F4C7014A
:101D1000B6012FEF3FEF4FE75FE70E947E171816DF
:101D20003CF4C2016FE571E00E940B0D4C01C5C08F
:101D3000C501B4012FEF3FEF4FE75FE40E94CD18DC
:101D4000181654F0C501B4012FEF3FEF4FE75FECD9
:101D50000E947E1787FF04C0C20163E671E0E4CFF2
:101D6000C501B40120E030E0A9010E947E1787FF81
:101D70000AC0C2016DE20E94440D1C01B7FAB09482
:101D8000B7F8B09402C022243324C0E050E040E011
:101D900030E02FE313C0FA01B9018F2F942FA72F42
:101DA000B22FBC01CD0120E030E040E251E40E94BE
:101DB0008217562F472F382F292FCF5FC71559F776
:101DC000C501B401DA01F9010B2F142F2F2F3E2F7B
:101DD000A90198010E941A177B01182FD92F862F6D
:101DE0009F2DA12FBD2FBC01CD010E94EF17C62E44
:101DF000072F882EC92F0E941B189B01AC018E2D26
:101E00009F2DA12FBD2FBC01CD010E9419177B0171
:101E1000182FD92FC2014C2D502F682D7C2F2AE06E
:101E200030E00E94E60D4C01820C931C772009F4EF
:101E300042C0C20167E671E00E940B0D880E991E38
:101E40003AC08E2D9F2DA12FBD2FBC01CD0120E0CA
:101E500030E040E251E40E94D118EB01182F092F25
:101E60009801862F9D2FA32FB22FBC01CD010E9478
:101E7000EA176B017C01EE24D7FCE094FE2CC20132
:101E8000B701A6012AE030E00E940B0E880E991ED1
:101E9000C701B6010E941D189B01AC01B8018C2F2F
:101EA0009D2FA72FB62FBC01CD010E9419177B01D2
:101EB000182FD92F7A94772021F6C401DF91CF9182
:101EC0001F910F91FF90EF90DF90CF90BF90AF9058
:101ED0009F908F907F905F904F903F902F900895AC
:101EE0000E94580E08950E943C0A0E946304C7EEA7
:101EF000DBE00E9402042097E1F30E94E70BF9CF98
:101F0000209192063091930628173907B9F49091E1
:101F10001006809111069817A1F0E0911006F0E0EC
:101F2000EE5EF94F80812091100630E02F5F3F4F29
:101F30002F7730702093100690E008958FEF9FEF79
:101F400008958FEF9FEF08952091920630919306A8
:101F50002817390771F4909110068091110698178F
:101F600059F0E0911006F0E0EE5EF94F808190E0CC
:101F700008958FEF9FEF08958FEF9FEF08952091C1
:101F80009206309193062817390739F48FB7F894E1
:101F900010921106109210068FBF0895209192069C
:101FA000309193062817390771F48091110620911A
:101FB000100690E080589F4F821B910960E870E006
:101FC0000E943819089580E090E0089520E001977C
:101FD0002FEF8F3F9207D9F70895FC018091920669
:101FE000909193068E179F0781F0838D8E7F838F4C
:101FF0008FB7F8941092110610921006F093930682
:10200000E09392068FBF81E0089580E00895EF92FB
:10201000FF920F931F93CF93DF93EC018B8DEE858F
:10202000FF859D8581FF04C08081892329F448C0F4
:102030008081892309F044C08B899C890E94E60F26
:1020400028E0E22EF12C01E010E08D899E890E94AB
:10205000E60FEE85FF8580819D85892311F0102B89
:1020600003C0802F80951823000F0894E108F10821
:10207000E114F10451F78F89988D0E94E60F8B8D42
:1020800081FD1095809111062091100690E0019637
:102090008F77907030E08217930779F0E091110606
:1020A000F0E0EE5EF94F10838091110690E001960A
:1020B0008F7790708093110603C08B8D81608B8F1A
:1020C000CDB7DEB7E6E00C949519FC01A189B28981
:1020D0009089662329F42C91892F8095822302C050
:1020E0008C91892B8C930895A0E0B0E0EAE7F0E1B1
:1020F0000C947819EC01F62E898D9A8D009739F49D
:1021000081E090E09B838A8380E090E047C0EFB657
:10211000F8948B8D61E081FF60E0CE010E94651034
:10212000898D9A8D05960E94E60F8B8D08E010E050
:10213000DD24D39481FF15C08D2D8F2119F0CE01A0
:1021400060E002C0CE0161E00E946510898D9A8D29
:102150000E94E60FDD0C0150104071F7CE0160E0E7
:1021600014C08D2D8F2119F0CE0161E002C0CE0187
:1021700060E00E946510898D9A8D0E94E60FDD0C4B
:102180000150104071F7CE0161E00E946510EFBE72
:10219000898D9A8D0E94E60F81E090E0CDB7DEB781
:1021A000E7E00C9494198091920690919306009721
:1021B00011F00E94071008951F920F920FB60F9210
:1021C00011242F933F934F935F936F937F938F933C
:1021D0009F93AF93BF93EF93FF930E94D310FF9110
:1021E000EF91BF91AF919F918F917F916F915F918F
:1021F0004F913F912F910F900FBE0F901F90189508
:102200001F920F920FB60F9211242F933F934F936B
:102210005F936F937F938F939F93AF93BF93EF934E
:10222000FF930E94D310FF91EF91BF91AF919F91C7
:102230008F917F916F915F914F913F912F910F906F
:102240000FBE0F901F9018951F920F920FB60F920E
:1022500011242F933F934F935F936F937F938F93AB
:102260009F93AF93BF93EF93FF930E94D310FF917F
:10227000EF91BF91AF919F918F917F916F915F91FE
:102280004F913F912F910F900FBE0F901F90189577
:102290001F93CF93DF93EC01162F862F61E00E94EE
:1022A000A40A812F61E00E94D80A812F90E0FC01EE
:1022B000ED55FE4FE491E88BFC01E954FE4FE491AB
:1022C000F0E0EE0FFF1FEB52FE4F85919491898B4A
:1022D0009A8BDF91CF911F9108951F93CF93DF9336
:1022E000EC01162F862F60E00E94A40A8B8D81FDE1
:1022F00004C0812F61E00E94D80A1C87812F90E0E2
:10230000FC01ED55FE4FE491ED87FC01E954FE4FD1
:10231000E491F0E0EE0FFF1FE553FE4F859194919D
:102320008E879F87DF91CF911F9108951F93CF9341
:10233000DF93EC01162F1B821A8288EE93E0A0E057
:10234000B0E08C839D83AE83BF838BE093E0998361
:1023500088831C8A1B8A1E8A1D8A188E1F8A1A8EE1
:10236000198E8B8D2170220F8C7F822B8B8FCE014B
:10237000642F0E944811CE01612F0E946D11DF91E0
:10238000CF911F910895CF92DF92EF92FF92CF935A
:10239000DF93EC016A017B011A8E198E188E1F8A59
:1023A0001E8A1D8A1C8A1B8A20E030E0A901440F86
:1023B000551F420F531F440F551F440F551FFA015D
:1023C000E751FE4F85919591A591B4918C159D058E
:1023D000AE05BF05E9F4FA01E351FE4F85919491F2
:1023E0008B8B9C8BFA01E151FE4F859194918D8BE3
:1023F0009E8BFA01EF50FE4F859194918F8B988FB1
:102400004D505E4FFA0185919491898F9A8F06C045
:102410002F5F3F4F2D30310509F0C8CF8F89988D40
:10242000009709F448C09C85963108F040C020917F
:102430006800983020F09E3020F082E003C084E0F5
:1024400001C081E0822B809368005C85583048F0A1
:102450005E3060F05631C8F1E0E0F0E0A0E0B0E0BE
:1024600009C0EDE6F0E0ADE6B0E004C0EBE6F0E078
:10247000ABE6B0E04C91583040F481E090E002C00F
:10248000880F991F5A95E2F710C0252F30E05E3073
:1024900018F42850304002C02E50304081E090E0C7
:1024A00002C0880F991F2A95E2F7842B8083898DBB
:1024B0009A8D0E94E60FCE010E94ED0FDF91CF9121
:1024C000FF90EF90DF90CF900895ECE6F0E0ACE65F
:1024D000B0E0D0CFFC014485463150F5483028F0BB
:1024E0004E3030F0ECE6F0E005C0EDE6F0E002C082
:1024F000EBE6F0E05081483040F481E090E002C02B
:10250000880F991F4A95E2F710C0242F30E04E3013
:1025100018F42850304002C02E50304081E090E046
:1025200002C0880F991F2A95E2F780958523808342
:1025300008952BE033E0FC01318320830E946A126E
:102540000895CF93DF93EC018E8160E00E94D80A5A
:1025500081E090E00E94320A8E8161E00E94D80AF8
:1025600081E090E00E94320A8E8160E00E94D80AE9
:1025700084E690E00E94320ADF91CF910895A0E0B6
:10258000B0E0E5ECF2E10C9477198C01C0E0D0E00A
:10259000C62EDD247801EC0EFD1EF701878161E077
:1025A0000E94A40AB6010C2E02C0759567950A9484
:1025B000E2F76170F70187810E94D80A2196C43042
:1025C000D10541F7C8010E94A112CDB7DEB7E8E0FE
:1025D0000C949319A0E0B0E0E0EFF2E10C947719CD
:1025E0008C01C0E0D0E0C62EDD247801EC0EFD1E8B
:1025F000F701878161E00E94A40AB6010C2E02C097
:10260000759567950A94E2F76170F70187810E94DA
:10261000D80A2196C830D10541F7C8010E94A112FD
:10262000CDB7DEB7E8E00C9493191F93CF93DF93F7
:10263000EC01162F8C81642F0E94D80A8D818F3F68
:1026400019F060E00E94D80A8F8584FF05C0CE0192
:10265000612F0E94EA120FC0212F30E084E03595EF
:1026600027958A95E1F7CE01622F0E94BF12CE0115
:10267000612F0E94BF12DF91CF911F91089541E019
:102680000E94151381E090E0089540E00E94151328
:102690000895FC016089262F2460208B6C600E94C5
:1026A00045130895A8E0B0E0E8E5F3E10C947D1946
:1026B000FE013196AAE6B1E028E00D90019221508A
:1026C000E1F7FC012389421710F0422F4150E42F1B
:1026D000F0E0EE0FFF1FEC0FFD1F2181260F206899
:1026E000622F0E9445132896E2E00C94991961E04C
:1026F0000E94451380ED97E00E94320A0895CF931F
:10270000DF93EC01423018F08F8588608F874B8B08
:102710001C8A222329F0413019F48F8584608F8729
:1027200080E593EC0E94320A8C8160E00E94D80A16
:102730008E8160E00E94D80A8D818F3F19F060E0A1
:102740000E94D80A6F8564FD1DC0CE0163E00E941F
:10275000BF1284E991E10E94320ACE0163E00E9437
:10276000BF1284E991E10E94320ACE0163E00E9427
:10277000BF1286E990E00E94320ACE0162E00E9418
:10278000BF1216C06062CE010E94451384E991E138
:102790000E94320A6F856062CE010E94451386E96D
:1027A00090E00E94320A6F856062CE010E9445135C
:1027B0006F856062CE010E94451384E0888BCE0154
:1027C0000E944913CE010E94771382E0898BCE01CB
:1027D00066E00E944513DF91CF9108956F927F923A
:1027E0008F92AF92CF92EF920F931F93CF93DF937D
:1027F000CDB7DEB73C01162F842FF3014483258328
:102800000683E782C086A18682869D8593879E8502
:1028100094879F8595879889968761E00E94A40A8E
:10282000F30185818F3F19F061E00E94A40AF30152
:10283000868161E00E94A40A112319F0F301178632
:1028400003C080E1F3018787C30160E141E020E03C
:102850000E947F13DF91CF911F910F91EF90CF9046
:10286000AF908F907F906F9008958F92AF92CF929C
:10287000EF920F93CF93DF93A62F742F522F302F09
:10288000AE2C8C2CEC011B821A82EBE1F3E0F98375
:10289000E88300D000D0EDB7FEB73196CDB7DEB7F4
:1028A000198211821282138261E04A2F2FEF072FC3
:1028B000E52EC32E0E94EE130F900F900F900F90F5
:1028C000DF91CF910F91EF90CF90AF908F900895BF
:1028D0008130910541F486E996E064E045E020E02E
:1028E0000E9496110895009721F486E996E00E94CF
:1028F000991208958091B2069091B306009739F02D
:1029000080E00E9419091092B3061092B20686E97F
:1029100096E00E946A1280E090E0089582E060E014
:102920000E94A40A87E061E00E94A40A86E061E0B8
:102930000E94A40A87E061E00E94D80A68EE73E072
:1029400080E090E00E94090A86E060E00E94D80AD8
:1029500060ED77E080E090E00E94090A86E061E0A7
:102960000E94D80A68EB78E880E090E00E94090AAB
:1029700080E090E008950F931F93CF93DF938B0136
:10298000C6E9D6E0CE010E94ED0FCE01B8010E944B
:10299000720DDF91CF911F910F91089562E771E061
:1029A0000E94BB1468E97AE380E090E00E94090A83
:1029B00087E060E00E94D80A80E090E008950F93DD
:1029C0001F93CF93DF938B01C6E9D6E0CE010E941F
:1029D000ED0FCE01B8010E94410DDF91CF911F9103
:1029E0000F910895CF92DF92EF92FF92CF93DF93F2
:1029F000C62F0E94CD096B017C01D0E00E94CD0959
:102A0000DC01CB018C199D09AE09BF09883823E18F
:102A1000920720E0A20720E0B20748F486E996E09A
:102A20000E94800F97FDFACF8C179D0739F7DF9131
:102A3000CF91FF90EF90DF90CF900895A0E0B0E0AD
:102A4000E4E2F5E10C946F197B016A014801590138
:102A50000E94CD092B013C01C0E0D0E00E94CD09CD
:102A6000DC01CB0184199509A609B70988159905D8
:102A7000AA05BB0558F586E996E00E94CE0F181608
:102A8000190664F786E996E00E94800F9C018A305F
:102A9000910529F4F70180818432F1F60DC0F60129
:102AA000808191810197C817D907C4F6F701EC0F0F
:102AB000FD1F20832196D2CFF701EC0FFD1F10825E
:102AC000F601D183C08380E090E002C081E090E015
:102AD000CDB7DEB7E0E10C948B19AFE0B0E0E3E7EF
:102AE000F5E10C9479198C017B018DE090E09A83DB
:102AF0008983C8016FEF71E00E94BB14C801BE0159
:102B00006D5F7F4FAE014F5F5F4F08E813E120E03C
:102B100030E00E941E15009749F4C701BE01665FB0
:102B20007F4F0E941A1A80E090E002C081E090E09E
:102B30002F96E6E00C949519A6E0B0E0E2EAF5E104
:102B40000C947B198C0186E996E040EC52E160E040
:102B500070E00E94C31181E090E0F80191838083CE
:102B60001092B3061092B20680E00E941909C801C3
:102B7000BE016F5F7F4F0E946D150097A1F4CE01DB
:102B800001960E94E01920E030E040E85FE30E94F7
:102B90007E17992787FD90958827990F881F992779
:102BA000880F991F02C081E090E02696E4E00C9423
:102BB0009719AEE1B0E0EFEDF5E10C9477198C01D7
:102BC0007B016A018CE190E09A838983C80167E008
:102BD00072E00E94BB14C801BE016D5F7F4FAE0161
:102BE0004F5F5F4F08E813E120E030E00E941E15C0
:102BF000009709F5CE0103966BE072E046E050E0E5
:102C00000E94211A0097B9F4C701BE01665F7F4F89
:102C10004AE050E00E942F1AF7011286C601BE0159
:102C20006B5E7F4F48E050E00E942F1AF60110863D
:102C300080E090E002C081E090E06E96E8E00C94C5
:102C40009319AAE0B0E0E7E2F6E10C946D194C01AB
:102C5000D62EB72E3A01A22E432E1801FA86E98607
:102C600086E990E09A838983E62FF72FDF010D90A4
:102C70000020E9F7CD0101978E1B9F0BA22FB32FE8
:102C8000FD0101900020E9F73197EA1BFB0B8E0F45
:102C90009F1FCC2049F008968138910508F0ADC0FF
:102CA000C4016BE672E008C007968138910508F010
:102CB000A4C0C40168E772E00E94DF14C4016D2D56
:102CC0007B2D0E94DF146114710441F1C4016FE196
:102CD00072E00E94DF1400D000D000D0EDB7FEB744
:102CE00031968E010D5F1F4FADB7BEB712961C9384
:102CF0000E93119781E292E09383828375826482BE
:102D00000E94461AEDB7FEB736960FB6F894FEBF8E
:102D10000FBEEDBFC401B8010E94DF14C4016A2DCB
:102D2000742D0E94BB14C40164EB76E0AE014F5FCA
:102D30005F4F08EB18E820E030E00E941E15009776
:102D400009F05BC084EB96E064E872E046E050E096
:102D50000E94211A009709F050C08BEB96E00E9468
:102D6000E4197C010E94CD092B013C0100E010E038
:102D7000A984BA840894A108B10824C00E94CD098E
:102D8000DC01CB0184199509A609B709883BF8E84D
:102D90009F07F0E0AF07F0E0BF0790F586E996E007
:102DA0000E94CE0F181619064CF786E996E00E948D
:102DB000800F0A151B0524F4F101E00FF11F808339
:102DC0000F5F1F4F0E151F054CF3C4016AE00E94F0
:102DD000F21489859A85E816F90644F0280E391E02
:102DE000089421083108D1011C9204C0E20CF31CA4
:102DF000F701108280E090E005C081E090E002C021
:102E000082E090E02A96E2E10C94891981E090E05A
:102E10000E946814089580E090E00E94681408956C
:102E2000CB010E94681C0895CB01642F0E94701C86
:102E300008955058BB27AA270ED075C166D130F02F
:102E40006BD120F031F49F3F11F41EF45BC10EF4FE
:102E5000E095E7FB51C1E92F77D180F3BA176207FC
:102E600073078407950718F071F49EF58FC10EF46F
:102E7000E0950B2EBA2FA02D0B01B90190010C018A
:102E8000CA01A0011124FF27591B99F0593F50F4A2
:102E9000503E68F11A16F040A22F232F342F4427FA
:102EA000585FF3CF469537952795A795F0405395F2
:102EB000C9F77EF41F16BA0B620B730B840BBAF0C2
:102EC0009150A1F0FF0FBB1F661F771F881FC2F72D
:102ED0000EC0BA0F621F731F841F48F48795779541
:102EE0006795B795F7959E3F08F0B3CF9395880FF8
:102EF00008F09927EE0F979587950895D9D008F493
:102F000081E008950CD00FC107D140F0FED030F021
:102F100021F45F3F19F0F0C0511139C1F3C014D151
:102F200098F39923C9F35523B1F3951B550BBB2790
:102F3000AA2762177307840738F09F5F5F4F220F3D
:102F4000331F441FAA1FA9F333D00E2E3AF0E0E836
:102F500030D091505040E695001CCAF729D0FE2F82
:102F600027D0660F771F881FBB1F26173707480714
:102F7000AB07B0E809F0BB0B802DBF01FF279358CA
:102F80005F4F2AF09E3F510568F0B6C000C15F3F19
:102F9000ECF3983EDCF3869577956795B795F795B2
:102FA0009F5FC9F7880F911D9695879597F90895AA
:102FB000E1E0660F771F881FBB1F62177307840746
:102FC000BA0720F0621B730B840BBA0BEE1F88F755
:102FD000E095089504D06894B111D9C00895BCD08B
:102FE00088F09F5790F0B92F9927B751A0F0D1F0F2
:102FF000660F771F881F991F1AF0BA95C9F712C07C
:10300000B13081F0C3D0B1E00895C0C0672F782FF0
:103010008827B85F39F0B93FCCF3869577956795E7
:10302000B395D9F73EF490958095709561957F4F53
:103030008F4F9F4F0895E89409C097FB3EF49095F9
:103040008095709561957F4F8F4F9F4F9923A9F081
:10305000F92F96E9BB279395F69587957795679510
:10306000B795F111F8CFFAF4BB0F11F460FF1BC054
:103070006F5F7F4F8F4F9F4F16C0882311F096E9E7
:1030800011C0772321F09EE8872F762F05C0662395
:1030900071F096E8862F70E060E02AF09A95660F4E
:1030A000771F881FDAF7880F9695879597F9089507
:1030B000990F0008550FAA0BE0E8FEEF1616170649
:1030C000E807F907C0F012161306E407F50798F0B1
:1030D000621B730B840B950B39F40A2661F0232BCA
:1030E000242B252B21F408950A2609F4A140A69546
:1030F0008FEF811D811D089597F99F6780E870E02B
:1031000060E008959FEF80EC089500240A9416165D
:10311000170618060906089500240A9412161306C5
:10312000140605060895092E0394000C11F4882353
:1031300052F0BB0F40F4BF2B11F460FF04C06F5F6F
:103140007F4F8F4F9F4F089557FD9058440F551F45
:1031500059F05F3F71F04795880F97FB991F61F019
:103160009F3F79F087950895121613061406551F90
:10317000F2CF4695F1DF08C0161617061806991FFC
:10318000F1CF86957105610508940895E894BB27F1
:1031900066277727CB0197F908958ADF08F48FEF28
:1031A00008950BD0C0CFB1DF28F0B6DF18F095231B
:1031B00009F0A2CFA7CF1124EACFC6DFA0F3959FD5
:1031C000D1F3950F50E0551F629FF001729FBB270E
:1031D000F00DB11D639FAA27F00DB11DAA1F649FBA
:1031E0006627B00DA11D661F829F2227B00DA11D6D
:1031F000621F739FB00DA11D621F839FA00D611DF3
:10320000221F749F3327A00D611D231F849F600D13
:10321000211D822F762F6A2F11249F5750408AF04C
:10322000E1F088234AF0EE0FFF1FBB1F661F771FD8
:10323000881F91505040A9F79E3F510570F05CCF18
:10324000A6CF5F3FECF3983EDCF3869577956795C4
:10325000B795F795E7959F5FC1F7FE2B880F911DF6
:103260009695879597F9089523DF880B990B089514
:1032700097FB092E07260AD077FD04D065D006D02B
:1032800000201AF4709561957F4F0895F6F7909598
:1032900081959F4F0895A1E21A2EAA1BBB1BFD0129
:1032A0000DC0AA1FBB1FEE1FFF1FA217B307E40725
:1032B000F50720F0A21BB30BE40BF50B661F771F7D
:1032C000881F991F1A9469F760957095809590955D
:1032D0009B01AC01BD01CF0108952F923F924F9207
:1032E0005F926F927F928F929F92AF92BF92CF9296
:1032F000DF92EF92FF920F931F93CF93DF93CDB79F
:10330000DEB7CA1BDB0B0FB6F894DEBF0FBECDBF16
:1033100009942A88398848885F846E847D848C84E7
:103320009B84AA84B984C884DF80EE80FD800C81F0
:103330001B81AA81B981CE0FD11D0FB6F894DEBFD3
:103340000FBECDBFED010895AA1BBB1B51E107C005
:10335000AA1FBB1FA617B70710F0A61BB70B881F25
:10336000991F5A95A9F780959095BC01CD010895B4
:10337000EE0FFF1F0590F491E02D0994EF920F934B
:103380001F93CF93322FC02F47FF02C0A4E101C08B
:10339000A4E0E42FFF27E7FDF095F7FF03C0F095C9
:1033A000E195FF4F4C2F512F2E2F032FEA2E0E9415
:1033B0007E1C8C2F912FCF911F910F91EF9008952C
:1033C000662777270C94D61DFC0188279927E89457
:1033D00021912032E9F3293010F02E30C8F32B323E
:1033E00041F02D3239F4689404C00E943E1A820FD5
:1033F000911D219120532A30C0F31EF490958195A0
:103400009F4F0895911114C6803219F0895085504C
:10341000D0F70895DC0101C06D9341505040E0F7B2
:103420000895FB01DC018D91019080190110D9F301
:10343000990B0895FB01DC0101900D920020E1F74A
:103440000895FB01DC014150504030F08D91019016
:10345000801919F40020B9F7881B990B0895FB0116
:10346000DC014150504048F001900D920020C9F716
:1034700001C01D9241505040E0F708957AE0979FB7
:10348000902D879F802D910D11240895AEE0B0E01E
:10349000ECE4FAE10C947B190D891E8986E08C839B
:1034A0001A8309838FEF9FE79E838D83AE01475E6A
:1034B0005F4FCE0101966F89788D0E948A1AEF8145
:1034C000F885E00FF11F10822E96E4E00C94971916
:1034D000AEE0B0E0EEE6FAE10C947B190D891E89AE
:1034E0008EE08C831A8309838FEF9FE79E838D8301
:1034F000AE01475E5F4FCE0101966F89788D0E94C5
:103500008A1AEF81F885E00FF11F10822E96E4E011
:103510000C949719ADE0B0E0E0E9FAE10C946D1974
:103520003C017D876C875A01FC01178216828381DA
:1035300081FFC8C12E010894411C511CF3019381E5
:10354000EC85FD8593FD859193FF8191FD87EC8747
:10355000882309F4B3C1853241F493FD859193FF2B
:103560008191FD87EC87853229F490E0B3010E94B8
:103570004920E4CFFF24EE2410E01032B0F48B3267
:1035800069F08C3228F4803251F0833271F40BC030
:103590008D3239F0803349F411602CC01260146010
:1035A00029C0186027C0106125C017FD2EC0282F24
:1035B00020532A3098F416FF08C08F2D880FF82E5C
:1035C000FF0CFF0CF80EF20E15C08E2D880FE82EA2
:1035D000EE0CEE0CE80EE20E10620CC08E3221F4FE
:1035E00016FD6CC1106406C08C3611F4106802C060
:1035F000883659F4EC85FD8593FD859193FF819183
:10360000FD87EC87882309F0B8CF982F9554933025
:1036100018F09052933038F424E030E0A20EB31E3C
:103620003FE339830FC0833631F0833781F0833530
:1036300009F05AC022C0F5018081898322E030E080
:10364000A20EB31E21E0C22ED12C420114C092E082
:10365000292E312C2A0C3B1CF5018080918016FF0D
:1036600003C06F2D70E002C06FEF7FEFC4010E94B6
:103670003E206C0151011F7715C082E0282E312CAD
:103680002A0C3B1CF5018080918016FF03C06F2D32
:1036900070E002C06FEF7FEFC4010E9433206C0125
:1036A0001068510113FD1CC006C080E290E0B30118
:1036B0000E944920EA948E2D90E0C816D906A8F3FE
:1036C0000FC0F40117FD859117FF81914F0190E024
:1036D000B3010E944920E110EA940894C108D1087E
:1036E000C114D10471F7E7C0843611F0893651F561
:1036F000F50117FF07C080819181A281B38124E089
:1037000030E008C080819181AA2797FDA095BA2F4B
:1037100022E030E0A20EB31E012F0F76B7FF08C0E3
:10372000B095A095909581959F4FAF4FBF4F006882
:10373000BC01CD01A2012AE030E00E947520D82E04
:10374000D4183FC0853721F41F7E2AE030E020C026
:10375000197F8F36A9F0803720F4883509F0AEC084
:103760000BC0803721F0883709F0A8C001C0106174
:1037700014FF09C0146007C014FF08C0166006C01B
:1037800028E030E005C020E130E002C020E132E076
:10379000F50117FF07C0608171818281938144E048
:1037A00050E006C06081718180E090E042E050E02E
:1037B000A40EB51EA2010E947520D82ED418012F88
:1037C0000F7706FF09C00E7FDF1430F404FF06C038
:1037D00002FD04C00F7E02C01D2D01C01F2D802FD1
:1037E00090E004FF0CC0FE01ED0DF11D208120339F
:1037F00011F4097E09C002FF06C01E5F05C086786D
:103800009070009709F01F5F802E992403FD12C06D
:1038100000FF0DC0FD2C1E1550F4FE0CF11A1E2DDC
:1038200006C080E290E0B3010E9449201F5F1E1590
:10383000C0F304C01E1510F4E11A01C0EE2484FE8A
:103840000FC080E390E0B3010E94492082FE1FC0B8
:1038500081FE03C088E590E010C088E790E00DC0CD
:10386000C40186789070009791F081FC02C080E2DC
:1038700001C08BE207FD8DE290E0B3010E94492078
:1038800006C080E390E0B3010E944920FA94DF145F
:10389000C0F3DA94F201ED0DF11D808190E0B301E7
:1038A0000E944920DD20A9F706C080E290E0B30124
:1038B0000E944920EA94EE20C1F740CEF3018681B0
:1038C000978102C08FEF9FEF2D96E2E10C9489194A
:1038D000F999FECF92BD81BDF89A992780B50895D8
:1038E000262FF999FECF1FBA92BD81BD20BD0FB61C
:1038F000F894FA9AF99A0FBE01960895A9E0B0E0FB
:10390000E4E8FCE10C9471196A01122FF02E2BE30C
:10391000201718F0B02EB39402C03CE3B32EAE01D2
:103920004F5F5F4F27E00B2D0E94401FBC01A98114
:10393000B0E0CD01897090708130910531F0E1FCEB
:1039400006C0E0FE06C040E205C04DE203C04BE207
:1039500001C040E0A3FF36C0442311F084E001C061
:1039600083E0811710F4181B01C010E0E4FC0BC0C9
:10397000912FF60180E202C0819391509923E1F7E3
:10398000C10ED11C10E0442319F0F60141936F01E0
:10399000E2FE05C08EE4F601808391E404C08EE669
:1039A000F601808391E69183828383E090E0C80EE4
:1039B000D91E812FF60190E202C091938150882395
:1039C000E1F73AC0A2FF3FC0442311F084E001C0F8
:1039D00083E0811710F4181B01C010E0E4FC0BC059
:1039E000912FF60180E202C0819391509923E1F773
:1039F000C10ED11C10E0442319F0F60141936F0170
:103A0000E2FE07C089E4F60180838EE4818386E4C8
:103A100006C089E6F60180838EE6818386E682838E
:103A200083E090E0C80ED91E812FF60190E202C01B
:103A3000919381508823E1F7C10ED11CF6011082C9
:103A40008EEF9FEFAFC021E030E0442311F420E07F
:103A500030E0161617061CF4CB01019602C081E077
:103A600090E0280F391FFF2021F08F2D90E0019664
:103A700002C080E090E0820F931F212F30E0821778
:103A800093071CF4512F581B01C050E08E2D90E07D
:103A90009C0120713070E4FC0DC0E3FC0BC0852F4D
:103AA000F60190E202C0919381508823E1F7C50EA0
:103AB000D11C50E0442319F0F60141936F01211508
:103AC000310559F4852FF60190E302C0919381509E
:103AD0008823E1F7C50ED11C50E0B60E4A8120E1E3
:103AE000622E712C6A227B22A4FF03C0413309F4A9
:103AF000BA941B142CF48B2D893018F088E001C087
:103B000081E09B0177FF02C020E030E0A0E0B0E060
:103B10009EE2E92E4B01881A9108CB01821B930B80
:103B20008E010F5F1F4F080F191F8F2D90E0AA24E1
:103B3000BB24A81AB90AFFEF2F3F3F0719F4F6017B
:103B4000E1926F016217730744F0821693062CF41A
:103B5000F801EA0FFB1F818101C080E32150304052
:103B600011962A153B0524F0F60181936F01E3CFEE
:103B70002617370741F4463328F4453321F46114FE
:103B8000710409F481E3F6018193852FDF0190E24E
:103B900002C09D9381508823E1F7E50FF11D10824B
:103BA00080E090E02996EEE00C948D19A0E0B0E062
:103BB000ECEDFDE10C9471195B016115710521F0CB
:103BC000DB018C9311969C937C01E7010894E11C26
:103BD000F11C08816701802F90E00E94021A009773
:103BE000A1F70D3241F4098142E0C42ED12CCC0E54
:103BF000DD1E11E009C00B3231F4098132E0C32E21
:103C0000D12CCC0EDD1E10E0E6012197CE0165E837
:103C100072E043E050E00E941B200097D1F4E601DF
:103C20002296CE0168E872E045E050E00E941B2039
:103C3000009711F4E6012796A114B10419F0F501DB
:103C4000D183C08330E020E090E8112309F40AC159
:103C500004C1CE016DE872E043E050E00E941B20F9
:103C6000009759F4A114B10409F4F9C0C6010296F1
:103C7000D50111969C938E93F2C040E050E0BA01BA
:103C80008824992400530A3090F51260212F30E0E7
:103C9000C9018870907012FF06C0009769F50894FA
:103CA000811C911C29C0009719F008948108910883
:103CB000DB01CA01D2E0880F991FAA1FBB1FDA954A
:103CC000D1F7480F591F6A1F7B1F440F551F661FEE
:103CD000771F400F511D611D711D4839B9E95B0700
:103CE000B9E96B07B9E17B0738F0146005C00E3FF6
:103CF00039F413FD43C01860F60101916F01C2CF82
:103D0000053311F00531D1F5D601EC91ED3211F406
:103D1000106108C0EB3229F0C601019621E030E0C5
:103D200008C0D6011196EC911197C601029622E0C7
:103D300030E0E053EA3020F06C01C21AD30A1EC012
:103D4000DC0120E030E0FCE020383F075CF4C901F2
:103D5000880F991F880F991F280F391F220F331FB3
:103D60002E0F311DED91E0536D01EA3060F314FF29
:103D700003C0309521953F4F820E931EC12FD0E096
:103D800011FF08C0A114B10429F0C6010197D501A3
:103D90008D939C93CB01BA010E941B186B017C018F
:103DA000CE01837090708330910521F4F7FAF0947E
:103DB000F7F8F094C701B60120E030E0A9010E94B5
:103DC0007E17882309F444C097FE07C0909481941D
:103DD00091089394CCEBD2E002C0C4EAD2E098EE12
:103DE000692E9FEF792E6C0E7D1E20E2A22EB12C43
:103DF0000FC0FE010591159125913491C701B601BF
:103E0000A90198010E94D1186B017C018A189B08B6
:103E10008A149B0474F72497B594A794C615D70504
:103E2000B9F7C601D7012A2F220F2B2F221F2F3FB0
:103E300049F0BC01CD0120E030E0A9010E947E17CD
:103E4000882331F482E290E09093500780934F07EB
:103E50003C2D2D2D9E2D8F2D06C08FEF04C030E000
:103E600020E090EC8FE7B901AC01872F922FA52FAE
:103E7000B42FBC01CD01CDB7DEB7EEE00C948D19A7
:103E8000283008F027E03327DA01990F311D87FD2C
:103E9000916000966105710539F432602E5F3D93A3
:103EA00030E32A95E1F708959F3F30F0803871059F
:103EB000610509F03C5F3C5F3D93913008F08068FC
:103EC000911DDF93CF931F930F93FF92EF92192FC2
:103ED000987F9695E92F96959695E90FFF27E65ED0
:103EE000FC4F99273327EE24FF24A701E701059013
:103EF0000894079428F4360FE71EF81E491F511D39
:103F0000660F771F881F991F0694A1F705900794E5
:103F100028F4E70EF81E491F561FC11D770F881F92
:103F2000991F661F0694A1F70590079428F4F80ED0
:103F3000491F561FC71FD11D880F991F661F771F66
:103F40000694A1F70590079420F4490F561FC71F48
:103F5000D81F990F661F771F881F0694A9F78491B1
:103F60001095177041F0D695C79557954795F794DA
:103F7000E7941A95C1F7E0ECF2E06894159015917A
:103F800035916591959105907FE27395E118F10A5D
:103F9000430B560BC90BD009C0F7E10CF11E431FB0
:103FA000561FC91FD01D7EF4703311F48A95E6CFD9
:103FB000E894015030F0080F0AF40027021708F4C3
:103FC000202F2395022F7A3328F079E37D932A95C9
:103FD000E9F710C07D932A9589F606949795679521
:103FE000379517951794E118F10A430B560BC90B37
:103FF000D00998F023957E9173957A3308F070E399
:104000007C932013B8F77E9170617D9330F0839597
:1040100071E37D9370E32A95E1F71124EF90FF900F
:104020000F911F91CF91DF91992787FD909508956A
:10403000992788270895FB01DC014150504088F002
:104040008D9181341CF08B350CF4805E6591613468
:104050001CF06B350CF4605E861B611171F3990BDB
:104060000895881BFCCFFC01059061507040011041
:10407000D8F7809590958E0F9F1F0895FC01615091
:10408000704001900110D8F7809590958E0F9F1F7A
:1040900008950F931F93CF93DF938C01EB018B81D6
:1040A00081FF1BC082FF0DC02E813F818C819D81CD
:1040B0002817390764F4E881F9810193F983E883CB
:1040C00006C0E885F985802F0995009731F48E8127
:1040D0009F8101969F838E8302C00FEF1FEFC8015F
:1040E000DF91CF911F910F910895FA01AA272830EF
:1040F00051F1203181F1E8946F936E7F6E5F7F4FB5
:104100008F4F9F4FAF4FB1E03ED0B4E03CD0670F30
:10411000781F891F9A1FA11D680F791F8A1F911D83
:10412000A11D6A0F711D811D911DA11D20D009F4D3
:1041300068943F912AE0269F11243019305D319315
:10414000DEF6CF010895462F4770405D4193B3E0FE
:104150000FD0C9F7F6CF462F4F70405D4A3318F0A5
:10416000495D31FD4052419302D0A9F7EACFB4E056
:10417000A6959795879577956795BA95C9F700970E
:104180006105710508959B01AC010A2E06945795AF
:10419000479537952795BA95C9F7620F731F841F06
:1041A000951FA01D089513E0C0ECD3E004C0FE01EC
:1041B0000E94BA192296C43CD107C9F7F894FFCFE0
:1041C0004E4745494749452E545854005344210011
:1041D00047657474696E670074696D652E2E2E00D4
:1041E000617070656E6420003130372E3136312EAB
:1041F0003136342E31363600733166007332660044
:104200006E6D0075696400617069007331650073DB
:104210003265006C6174006C6F6E006E616E0069D7
:104220006E66006F7666002E0000000040001400ED
:104230005400245945002454522031002454523D46
:104240004E47002454522025640024545720220055
:104250002478253032780022002454573D4E470000
:10426000245444002454443D4E4700245443202504
:1042700073202564002454433D4E470024505200CF
:10428000245053202564002450533D4E4700244CB5
:1042900047204D53424153454400244C47204D5341
:1042A000415353495354454400244C4720535441EF
:1042B0004E44414C4F4E4500244C473D4E47002450
:1042C00059560024595200245954002459543D4F42
:1042D0004B002457502068747470733A2F2F003AA3
:1042E0000025750024575020687474703A2F2F00F1
:1042F0002457503D4F4B00746F6B656E3D25732600
:104300007374617475733D25730061726475696EB1
:104310006F2D74776565742E61707073706F742E75
:10432000636F6D0075706461746500245747206881
:10433000747470733A2F2F00245747206874747078
:104340003A2F2F002457473D4F4B0024535200244F
:1043500053523D4E47002453430024535320002022
:104360002200222000554E49434F4445004153430B
:104370004949002453533D4F4B0024594C20256498
:104380000024594C3D4F4B0024594220256C7500A8
:104390002459423D4F4B00245949002459493D4F6F
:1043A0004B00245953000000510720002801322EF1
:1043B000322E335F33470000000000660BE90C0C1F
:1043C0000B390B1E0B5B0B000000007410E90CCEC8
:1043D0000F800FA40FBF0F000000003F13E90C0077
:00000001FF
