:100000000C9495010C94C3030C94F0030C948C0C89
:100010000C94B00C0C94D40C0C94BD010C94BD0148
:100020000C94BD010C94BD010C94BD010C94BD0158
:100030000C94BD010C94BD010C94BD010C94BD0148
:100040000C941D040C94BD010C94A8050C94EB05B4
:100050000C94BD010C94BD010C94BD010C94BD0128
:100060000C94BD010C94BD0153656E736F72206DCD
:100070006F64656C3A2020204C4E442037313200AA
:10008000467265652052414D3A090049443A0909D2
:10009000007365747570204F4B2E002F7361666579
:1000A000636173742F73686F72742E7068703F6130
:1000B00070695F6B65793D71314C4B7537525138C2
:1000C0007335706D7978756E6E4457266C61743D2A
:1000D0002573266C6F6E3D25732663706D3D257309
:1000E0002669643D2573004669726D776172655FAC
:1000F0007665723A0925730A0000000007000201C4
:1001000000000304060000000000000000010204DB
:100110000810204080010204081020010204081089
:100120002004040404040404040202020202020380
:10013000030303030300000000230026002900003E
:10014000000000250028002B0000000000240027EC
:10015000002A0000C201000100110011000C000083
:10016000E100000A0025002500210000960000198A
:1001700000390039003600127A00001F00460046A0
:100180000044008070000022004D004D004A000035
:100190004B00003600750075007200403800004AC0
:1001A000009C009C009900802500007200EC00EC8F
:1001B00000E900C0120000E900DA01DA01D70160AD
:1001C000090000D701B603B603B303B0040000B3BF
:1001D000036E076E076B07580200006E07DC0EDC2B
:1001E0000ED80E2C010000DC0EC11DC11DBE1D4924
:1001F0004E46494E4954594E414E000020410000A0
:10020000C84200401C4620BCBE4CCA1B0E5AAEC59C
:100210009D74CDCCCC3D0AD7233C17B7D13877CCD1
:100220002B329595E6241FB14F0A00407A10F35AFD
:1002300000A0724E18090010A5D4E80000E8764826
:10024000170000E40B54020000CA9A3B000000E1D2
:10025000F505000080969800000040420F00000065
:10026000A08601000000102700000000E803000045
:1002700000006400000000000A000000000001000F
:10028000000000002C76D888DC674F0823DFC1DF30
:10029000AE59E1B1B796E5E3E453C63AE651997633
:1002A00096E8E6C28426EB898C9B62ED407C6FFC6D
:1002B000EFBC9C9F40F2BAA56FA5F490055A2AF7AF
:1002C0005C936B6CF9676DC11BFCE0E40D47FEF5B8
:1002D00020E6B500D0ED902E030094357705008020
:1002E000841E080000204E0A000000C80C3333337F
:1002F000330F986E12831141EF8D2114893BE6551F
:1003000016CFFEE6DB18D1844B381BF77C1D901D01
:10031000A4BBE424203284725E228100C9F124EC63
:10032000A1E53D27A306910A960A11241FBECFEF2F
:10033000D8E0DEBFCDBF13E0A0E0B1E0E6EBFFE226
:1003400002C005900D92A236B107D9F716E0A2E6D9
:10035000B3E001C01D92AC3AB107E1F713E0C8E287
:10036000D3E004C02297FE010E94EA10C432D107F4
:10037000C9F70E942E080C94CE170C9400008091AF
:1003800030049091310401969093310480933004AD
:1003900081E0809332040895A2E0B0E0E2EDF1E064
:1003A0000C94AD102091A6063091A70621153105B9
:1003B00011F42CEA36E0CE010196821B930B2296B3
:1003C000E2E00C94C910CF93DF93C2ECD4E0CE01ED
:1003D00040E855E260E070E00E942606CE010E94EF
:1003E000470789EB9CEFA7E0BCE380932804909338
:1003F0002904A0932A04B0932B04CE0168E670E090
:100400000E945B0710923C0410923B04CE0160E80E
:1004100070E00E941D070E94CC01BC01CE014AE0A1
:1004200050E00E94140880E06FEB71E043E050E080
:100430000E94930388EE93E0A0E0B0E0809337043D
:1004400090933804A0933904B0933A040E9467044F
:10045000DC01CB014091370450913804609139049C
:1004600070913A04840F951FA61FB71F8093330421
:1004700090933404A0933504B0933604CE016BE816
:1004800070E00E941D0760913B0370913C03CE0118
:100490000E946D07CE0161E970E00E945B07DF9169
:1004A000CF910895A0E1B0E0E8E5F2E00C94A71048
:1004B0006B017C01209128043091290440912A0489
:1004C00050912B040E94051020E030E04AE754E4EC
:1004D0000E94051020E030E040E05FE30E94520EF1
:1004E0000E94220FDC01CB01809324049093250409
:1004F000A0932604B0932704C701B60140E020E092
:100500006E010894C11CD11C86010E94EE100DE3FF
:1005100014E088E7D8011D928A95E9F7EDB7FEB798
:100520003C970FB6F894FEBF0FBEEDBF3196ADB746
:10053000BEB712961C930E9311978BE990E09383AC
:10054000828380913F0390914003958384838091BF
:100550003D0390913E0397838683D186C086809128
:100560003B0390913C03938782870E947911EDB7FA
:10057000FEB73C960FB6F894FEBF0FBEEDBF82ECFF
:1005800094E0B8010E946D0782EC94E060E071E0B5
:100590000E943C078CE695E060E070E00E946108F4
:1005A000009709F061C08CE695E060E070E00E9481
:1005B0006F09009709F058C082EC94E060E171E0A7
:1005C0000E946D0782EC94E06BE171E00E943C07B1
:1005D00081EC809362036091390370913A038CE659
:1005E00095E040E550E0980103E613E0E1ECEE2EE3
:1005F000F12CCC240E94AC090097B1F482EC94E079
:1006000063E371E00E946D0782EC94E067E371E0C0
:100610000E943C0782EC94E0B8010E943C0782EC07
:1006200094E069E371E00CC082EC94E06BE371E06C
:100630000E943C076091390370913A0382EC94E088
:100640000E946D0782EC94E069E571E00E946D07FD
:100650008CE695E00E944D088CE695E00E94A1088A
:100660006096E8E00C94C31082EC94E064E671E0DC
:10067000E7CFCF92DF92EF92FF920F931F936B0120
:100680007C010E946704DC01CB0197018601081BF5
:10069000190B2A0B3B0BC816D906EA06FB0620F4F9
:1006A0000095109520953095B801C9011F910F91C3
:1006B000FF90EF90DF90CF90089560912C0470919F
:1006C0002D0480912E0490912F040E943903AB01D8
:1006D000BC018091370490913804A0913904B09105
:1006E0003A04481759076A077B07E0F06091300425
:1006F00070913104882777FD8095982F0E94550FBF
:1007000020E030E040EA50E40E94BA0E109231043A
:1007100010923004462F572F682F792FCB01BA0142
:100720000E94520208958230E8F4E82FF0E0EE0FC4
:10073000FF1FEB54FB4F71836083813041F0809148
:1007400069008C7F842B80936900E89A08958091DA
:100750006900440F551F440F551F837F842B8093DE
:100760006900E99A0895823068F4813011F0E898C0
:1007700001C0E998E82FF0E0EE0FFF1FEB54FB4FAC
:100780001182108208951F920F920FB60F921124BA
:100790002F933F934F935F936F937F938F939F9389
:1007A000AF93BF93EF93FF938091B5049091B604FC
:1007B000009729F0E091B504F091B6040995FF91F6
:1007C000EF91BF91AF919F918F917F916F915F91C9
:1007D0004F913F912F910F900FBE0F901F90189542
:1007E0001F920F920FB60F9211242F933F934F93A6
:1007F0005F936F937F938F939F93AF93BF93EF9389
:10080000FF938091B7049091B804009729F0E0918C
:10081000B704F091B8040995FF91EF91BF91AF91A2
:100820009F918F917F916F915F914F913F912F9108
:100830000F900FBE0F901F9018951F920F920FB63A
:100840000F9211242F933F938F939F93AF93BF9356
:100850008091B9049091BA04A091BB04B091BC04FA
:100860003091C104232F2D5F2D3720F40196A11D57
:10087000B11D05C0232F2A570296A11DB11D20933B
:10088000C1048093B9049093BA04A093BB04B093BD
:10089000BC048091BD049091BE04A091BF04B091AE
:1008A000C0040196A11DB11D8093BD049093BE04A8
:1008B000A093BF04B093C004BF91AF919F918F915B
:1008C0003F912F910F900FBE0F901F9018950F938F
:1008D0001F938FB7F8940091B9041091BA04209136
:1008E000BB043091BC048FBFB801C9011F910F91A7
:1008F00008950F931F939FB7F8940091BD04109132
:10090000BE042091BF043091C00486B5A89B06C0E8
:100910008F3F21F00F5F1F4F2F4F3F4F9FBF322F51
:10092000212F102F0027080F111D211D311D42E01E
:10093000000F111F221F331F4A95D1F7B801C901BB
:100940001F910F910895CF92DF92EF92FF92CF9374
:10095000DF936B017C010E947904DC01CB01EC0187
:100960000FC00E9479046C1B7D0B83E0683E780702
:1009700038F00894C108D108E108F108C851DC4FEB
:10098000C114D104E104F10461F7DF91CF91FF902C
:10099000EF90DF90CF900895789484B5826084BD05
:1009A00084B5816084BD85B5826085BD85B5816073
:1009B00085BDEEE6F0E0808181608083E1E8F0E0D3
:1009C0001082808182608083808181608083E0E802
:1009D000F0E0808181608083E1EBF0E080818460E1
:1009E0008083E0EBF0E0808181608083EAE7F0E0E3
:1009F0008081846080838081826080838081816047
:100A000080838081806880831092C1000895FC01FA
:100A100024853585F901E05CFF4F808191812E5B53
:100A20003F4FF90120813181821B930B8F739070AE
:100A30000895FC0144855585FA01E05CFF4F8081F3
:100A40009181FA01EE5BFF4F20813181821793077C
:100A500041F00190F081E02DE40FF51F808190E0DE
:100A600008958FEF9FEF0895FC0144855585FA01A5
:100A7000E05CFF4F20813181FA01EE5BFF4F808106
:100A800091812817390779F0A081B181A40FB51F92
:100A90008C91208131812F5F3F4F2F7330703183D4
:100AA000208390E008958FEF9FEF0895FC0181A1CE
:100AB000882329F0A489B5898C9186FFFBCF11A2E8
:100AC0000895CF93DF93DC011E964D915C911F97A3
:100AD000EA01C05CDF4F288139812F5F3F4F2F73C0
:100AE0003070FA01EE5BFF4F808191812817390742
:100AF000D9F3E881F981E40FF51F60831E96ED912B
:100B0000FC911F97E05CFF4F318320835696ED9157
:100B1000FC915797208181E090E05F960C905F9761
:100B200002C0880F991F0A94E2F7282B208381E0E6
:100B300091968C9391975496ED91FC915597808165
:100B40008064808381E090E0DF91CF9108950895E3
:100B50001F920F920FB60F9211242F933F934F9332
:100B60008F939F93EF93FF938091C00082FD1CC0F1
:100B70004091C600809168059091690501968F7338
:100B8000907020916A0530916B058217930771F080
:100B9000E0916805F0916905E85DFA4F4083909314
:100BA00069058093680502C08091C600FF91EF91AE
:100BB0009F918F914F913F912F910F900FBE0F906A
:100BC0001F90189582EC94E00E940705009711F0A1
:100BD0000E94A70508951F920F920FB60F9211243D
:100BE0002F933F938F939F93EF93FF93209124052F
:100BF0003091250580912605909127052817390702
:100C000031F48091C1008F7D8093C10014C0E091C8
:100C10002605F0912705EC51FB4F20818091260598
:100C20009091270501968F7390709093270580937C
:100C300026052093C600FF91EF919F918F913F91E0
:100C40002F910F900FBE0F901F901895A0E0B0E06D
:100C5000ECE2F6E00C94A610EC016A017B01BB24E7
:100C6000B394403081EE580780E0680780E0780751
:100C700049F4BB24EC89FD89108260E874E88EE1B8
:100C800090E00FC0EC89FD8981E090E008A002C0EF
:100C9000880F991F0A94E2F7808360E079E08DE382
:100CA00090E0A70196010E947B1089019A010150F2
:100CB000104020403040369527951795079580E1E4
:100CC0000030180710F0BB20A1F6E889F9891083DD
:100CD000EA89FB89008319A2EE89FF89408121E01E
:100CE00030E0C9010C8C02C0880F991F0A94E2F70A
:100CF000482B4083EE89FF894081C9010D8C02C0D9
:100D0000880F991F0A94E2F7482B4083EE89FF89E8
:100D10004081C9010E8C02C0880F991F0A94E2F726
:100D2000482B4083EE89FF8980810F8C02C0220FFF
:100D3000331F0A94E2F7209528232083CDB7DEB72E
:100D4000E9E00C94C2101092C5041092C40488EE1D
:100D500093E0A0E0B0E08093C6049093C704A09312
:100D6000C804B093C904E4ECF4E085E493E0929302
:100D7000829388E295E09587848784EE94E0978754
:100D8000868785EC90E0918B808B84EC90E0938B50
:100D9000828B80EC90E0958B848B81EC90E0978B3C
:100DA000868B82EC90E0918F808F86EC90E0938F21
:100DB000828F84E0848F83E0858F87E0868F85E053
:100DC000878F81E080A30895A0E0B0E0EAEEF6E02E
:100DD0000C94A7106C017B01EA0100E010E00EC04A
:100DE000D7016D917D01D601ED91FC910190F081CB
:100DF000E02DC6010995080F191F2197209781F74B
:100E0000C801CDB7DEB7E8E00C94C31061157105D9
:100E100089F0DB010D900020E9F7AD014150504011
:100E2000461B570BDC01ED91FC910280F381E02D14
:100E30000995089580E090E00895EF92FF920F9356
:100E40001F93CF93DF937C01EB0100E010E0FE01E4
:100E500021966491662351F0F701A081B181ED9153
:100E6000FC91C7010995080F191FF1CFC801CDB733
:100E7000DEB7E6E00C94C5100E9406070895DC0179
:100E8000ED91FC910190F081E02D099508950F936B
:100E90001F93CF93DF938C016DE00E943F07EC011D
:100EA000C8016AE00E943F078C0F9D1FDF91CF9120
:100EB0001F910F9108950F931F93CF93DF938C0190
:100EC0000E941D07EC01C8010E9447078C0F9D1F5F
:100ED000DF91CF911F910F9108950F931F93CF939F
:100EE000DF938C010E940607EC01C8010E944707AE
:100EF0008C0F9D1FDF91CF911F910F9108954F92FD
:100F00005F926F927F92AF92BF92CF92DF92EF92F9
:100F1000FF920F931F93CF93DF93CDB7DEB7A197C7
:100F20000FB6F894DEBF0FBECDBF5C01E42ECB013F
:100F3000F22E19A221E02F1510F03AE0F32E21E253
:100F4000C22ED12CCC0EDD1E4F2C552466247724C6
:100F500003C0E02E512FC9016E2D752FA301920100
:100F60000E947B1089019A01F09E802D1124E81ABD
:100F70008E2D0894C108D1088A3010F4805D01C01C
:100F8000895CF6018083011511052105310509F7FA
:100F9000C501B6010E940607A1960FB6F894DEBF00
:100FA0000FBECDBFDF91CF911F910F91FF90EF90BA
:100FB000DF90CF90BF90AF907F906F905F904F90F9
:100FC0000895A0E0B0E0E7EEF7E00C94A710EC0184
:100FD0006A017B012115310541F4E881F981019015
:100FE000F081E02D642F09951AC02A303105A9F44B
:100FF00077FF12C06DE20E943F078C0144275527FE
:10100000BA014C195D096E097F09CE012AE00E94E0
:101010007F07800F911F03C02AE00E947F07CDB792
:10102000DEB7E8E00C94C3100F931F93CF93DF93C8
:101030008C019A01CB01AC01662757FD6095762F94
:10104000C8010E94E107EC01C8010E9447078C0F0C
:101050009D1FDF91CF911F910F9108950E94CC04A5
:101060000E94E301C2EED5E00E945D032097E1F308
:101070000E94E205F9CF8130910541F48EE695E0BA
:1010800064E045E020E00E94460D0895009721F4B9
:101090008EE695E00E94490E089580918A05909110
:1010A0008B05009739F080E00E94B30310928B0506
:1010B00010928A058EE695E00E941A0E80E090E07C
:1010C000089582E060E00E94C80A87E061E00E9423
:1010D000C80A86E061E00E94C80A87E061E00E94D9
:1010E000FC0A68EE73E080E090E00E94A30486E0D2
:1010F00060E00E94FC0A60ED77E080E090E00E94F2
:10110000A30486E061E00E94FC0A68EB78E880E0D6
:1011100090E00E94A30480E090E008950F931F9355
:10112000CF93DF938B01CEE6D5E0CE010E949D0BDD
:10113000CE01B8010E946D07DF91CF911F910F91F1
:10114000089569EB71E00E948E0868E97AE380E017
:1011500090E00E94A30487E060E00E94FC0A80E027
:1011600090E008950F931F93CF93DF938B01CEE60A
:10117000D5E0CE010E949D0BCE01B8010E943C0734
:10118000DF91CF911F910F910895CF92DF92EF924F
:10119000FF92CF93DF93C62F0E9467046B017C01FF
:1011A000D0E00E946704DC01CB018C199D09AE09D7
:1011B000BF09883823E1920720E0A20720E0B207A8
:1011C00048F48EE695E00E94300B97FDEACF8C172D
:1011D0009D0739F7DF91CF91FF90EF90DF90CF908F
:1011E0000895A0E0B0E0E7EFF8E00C949F107B01D9
:1011F0006A01480159010E9467042B013C01C0E0CB
:10120000D0E00E946704DC01CB0184199509A6098E
:10121000B70988159905AA05BB0558F58EE695E02E
:101220000E947E0B1816190664F78EE695E00E9460
:10123000300B9C018A30910529F4F70180818432BA
:10124000F1F60DC0F601808191810197C817D90789
:10125000C4F6F701EC0FFD1F20832196D2CFF701D2
:10126000EC0FFD1F1082F601D183C08380E090E077
:1012700002C081E090E0CDB7DEB7E0E10C94BB1096
:10128000AFE0B0E0E6E4F9E00C94A9108C017B013A
:101290008DE090E09A838983C80166E472E00E9441
:1012A0008E08C801BE016D5F7F4FAE014F5F5F4F7B
:1012B00008E813E120E030E00E94F108009749F4CB
:1012C000C701BE01665F7F4F0E943A1180E090E047
:1012D00002C081E090E02F96E6E00C94C510A6E0F5
:1012E000B0E0E5E7F9E00C94AB108C018EE695E0F8
:1012F00040EC52E160E070E00E94730D81E090E00C
:10130000F8019183808310928B0510928A0580E00A
:101310000E94B303C801BE016F5F7F4F0E94400966
:101320000097A1F4CE0101960E94101120E030E058
:1013300040E85FE30E94B60E992787FD90958827C5
:10134000990F881F9927880F991F02C081E090E0AC
:101350002696E4E00C94C710AAE0B0E0E2EBF9E0D6
:101360000C949D104C01D62EB72E3A01A22E432E7E
:101370001801FA86E98686E990E09A838983E62F48
:10138000F72FDF010D900020E9F7CD0101978E1BAB
:101390009F0BA22FB32FFD0101900020E9F7319799
:1013A000EA1BFB0B8E0F9F1FCC2049F0089681385B
:1013B000910508F0ADC0C4016BEB72E008C0079660
:1013C0008138910508F0A4C0C40168EC72E00E9465
:1013D000B208C4016D2D7B2D0E94B2086114710406
:1013E00041F1C40166E672E00E94B20800D000D06C
:1013F00000D0EDB7FEB731968E010D5F1F4FADB730
:10140000BEB712961C930E93119788E692E09383D1
:101410008283758264820E945711EDB7FEB73696BB
:101420000FB6F894FEBF0FBEEDBFC401B8010E9415
:10143000B208C4016A2D742D0E948E08C4016CE8A4
:1014400075E0AE014F5F5F4F08EB18E820E030E039
:101450000E94F108009709F05BC08CE895E064ED0C
:1014600072E046E050E00E944111009709F050C040
:1014700083E995E00E9414117C010E9467042B010E
:101480003C0100E010E0A984BA840894A108B108E6
:1014900024C00E946704DC01CB0184199509A609C8
:1014A000B709883BF8E89F07F0E0AF07F0E0BF0717
:1014B00090F58EE695E00E947E0B181619064CF703
:1014C0008EE695E00E94300B0A151B0524F4F1010D
:1014D000E00FF11F80830F5F1F4F0E151F054CF3A8
:1014E000C4016AE00E94C50889859A85E816F90654
:1014F00044F0280E391E089421083108D1011C92AD
:1015000004C0E20CF31CF701108280E090E005C0FB
:1015100081E090E002C082E090E02A96E2E10C9443
:10152000B91081E090E00E943B08089580E090E0CF
:101530000E943B080895833071F0843028F4813094
:10154000A1F0823021F514C08630B1F08730D1F09F
:101550008430E9F404C0809180008F7703C08091CB
:1015600080008F7D80938000089584B58F7702C0BE
:1015700084B58F7D84BD08958091B0008F7780936E
:10158000B00008958091B0008F7D8093B0000895E1
:1015900090E0FC01E35FFE4F24918F5D9E4FFC01C4
:1015A0008491882341F190E0880F991FFC01E75B4B
:1015B000FE4F45915491DA01815C9E4FFC0185916B
:1015C0009491FC019FB7F8948C91662331F4209597
:1015D00082238C938081822308C0623049F4322FA9
:1015E000309583238C938081822B80839FBF0895C5
:1015F000822B8C939FBF0895A1E0B0E0E2E0FBE076
:101600000C94AB10282F30E0F901E750FF4F849184
:10161000F901E35FFE4F1491F901EF5DFE4F049174
:101620000023D1F0882321F069830E949B0A6981FD
:10163000E02FF0E0EE0FFF1FE15CFE4F85919491EB
:10164000DC019FB7F8948C91662319F410958123DF
:1016500001C0812B8C939FBF2196E4E00C94C710AE
:101660002091A4063091A50628173907B9F4909166
:101670002206809123069817A1F0E0912206F0E05F
:10168000EC5DF94F80812091220630E02F5F3F4FC3
:101690002F7730702093220690E008958FEF9FEF10
:1016A00008958FEF9FEF08952091A4063091A5062D
:1016B0002817390771F49091220680912306981714
:1016C00059F0E0912206F0E0EC5DF94F808190E066
:1016D00008958FEF9FEF08958FEF9FEF089520916A
:1016E000A4063091A5062817390739F48FB7F89466
:1016F00010922306109222068FBF08952091A4060F
:101700003091A5062817390771F48091230620919E
:10171000220690E080589F4F821B910960E870E09C
:101720000E946810089580E090E0089520E00197FD
:101730002FEF8F3F9207D9F70895FC018091A406FF
:101740009091A5068E179F0781F0838D8E7F838FE2
:101750008FB7F8941092230610922206F093A506F4
:10176000E093A4068FBF81E0089580E00895EF9292
:10177000FF920F931F93CF93DF93EC018B8DEE8538
:10178000FF859D8581FF04C08081892329F448C09D
:101790008081892309F044C08B899C890E94960B23
:1017A00028E0E22EF12C01E010E08D899E890E9454
:1017B000960BEE85FF8580819D85892311F0102B86
:1017C00003C0802F80951823000F0894E108F108CA
:1017D000E114F10451F78F89988D0E94960B8B8D3F
:1017E00081FD1095809123062091220690E00196BC
:1017F0008F77907030E08217930779F0E09123069D
:10180000F0E0EC5DF94F10838091230690E00196A3
:101810008F7790708093230603C08B8D81608B8FB0
:10182000CDB7DEB7E6E00C94C510FC01A189B28902
:101830009089662329F42C91892F8095822302C0F8
:101840008C91892B8C930895A0E0B0E0EAE2FCE053
:101850000C94A810EC01F62E898D9A8D009739F41E
:1018600081E090E09B838A8380E090E047C0EFB600
:10187000F8948B8D61E081FF60E0CE010E94150C31
:10188000898D9A8D05960E94960B8B8D08E010E04D
:10189000DD24D39481FF15C08D2D8F2119F0CE0149
:1018A00060E002C0CE0161E00E94150C898D9A8D26
:1018B0000E94960BDD0C0150104071F7CE0160E0E4
:1018C00014C08D2D8F2119F0CE0161E002C0CE0130
:1018D00060E00E94150C898D9A8D0E94960BDD0C9C
:1018E0000150104071F7CE0161E00E94150CEFBE6F
:1018F000898D9A8D0E94960B81E090E0CDB7DEB77E
:10190000E7E00C94C4108091A4069091A50600977E
:1019100011F00E94B70B08951F920F920FB60F920D
:1019200011242F933F934F935F936F937F938F93E4
:101930009F93AF93BF93EF93FF930E94830CFF910C
:10194000EF91BF91AF919F918F917F916F915F9137
:101950004F913F912F910F900FBE0F901F901895B0
:101960001F920F920FB60F9211242F933F934F9314
:101970005F936F937F938F939F93AF93BF93EF93F7
:10198000FF930E94830CFF91EF91BF91AF919F91C4
:101990008F917F916F915F914F913F912F910F9018
:1019A0000FBE0F901F9018951F920F920FB60F92B7
:1019B00011242F933F934F935F936F937F938F9354
:1019C0009F93AF93BF93EF93FF930E94830CFF917C
:1019D000EF91BF91AF919F918F917F916F915F91A7
:1019E0004F913F912F910F900FBE0F901F90189520
:1019F0001F93CF93DF93EC01162F862F61E00E9497
:101A0000C80A812F61E00E94FC0A812F90E0FC014E
:101A1000E35FFE4FE491E88BFC01EF5DFE4FE49144
:101A2000F0E0EE0FFF1FE15CFE4F85919491898BF2
:101A30009A8BDF91CF911F9108951F93CF93DF93DE
:101A4000EC01162F862F60E00E94C80A8B8D81FD65
:101A500004C0812F61E00E94FC0A1C87812F90E066
:101A6000FC01E35FFE4FE491ED87FC01EF5DFE4F6B
:101A7000E491F0E0EE0FFF1FEB5CFE4F8591949137
:101A80008E879F87DF91CF911F9108951F93CF93EA
:101A9000DF93EC01162F1B821A8288EE93E0A0E000
:101AA000B0E08C839D83AE83BF8385E593E099830B
:101AB00088831C8A1B8A1E8A1D8A188E1F8A1A8E8A
:101AC000198E8B8D2170220F8C7F822B8B8FCE01F4
:101AD000642F0E94F80CCE01612F0E941D0DDF9132
:101AE000CF911F910895CF92DF92EF92FF92CF9303
:101AF000DF93EC016A017B011A8E198E188E1F8A02
:101B00001E8A1D8A1C8A1B8A20E030E0A901440F2E
:101B1000551F420F531F440F551F440F551FFA0105
:101B2000ED5AFE4F85919591A591B4918C159D0527
:101B3000AE05BF05E9F4FA01E95AFE4F859194918B
:101B40008B8B9C8BFA01E75AFE4F859194918D8B7C
:101B50009E8BFA01E55AFE4F859194918F8B988F59
:101B6000435A5E4FFA0185919491898F9A8F06C0EE
:101B70002F5F3F4F2D30310509F0C8CF8F89988DE9
:101B8000009709F448C09C85963108F040C0209128
:101B90006800983020F09E3020F082E003C084E09E
:101BA00001C081E0822B809368005C85583048F04A
:101BB0005E3060F05631C8F1E0E0F0E0A0E0B0E067
:101BC00009C0EDE6F0E0ADE6B0E004C0EBE6F0E021
:101BD000ABE6B0E04C91583040F481E090E002C0B8
:101BE000880F991F5A95E2F710C0252F30E05E301C
:101BF00018F42850304002C02E50304081E090E070
:101C000002C0880F991F2A95E2F7842B8083898D63
:101C10009A8D0E94960BCE010E949D0BDF91CF9171
:101C2000FF90EF90DF90CF900895ECE6F0E0ACE607
:101C3000B0E0D0CFFC014485463150F5483028F063
:101C40004E3030F0ECE6F0E005C0EDE6F0E002C02A
:101C5000EBE6F0E05081483040F481E090E002C0D3
:101C6000880F991F4A95E2F710C0242F30E04E30BC
:101C700018F42850304002C02E50304081E090E0EF
:101C800002C0880F991F2A95E2F7809585238083EB
:101C9000089525E533E0FC01318320830E941A0E6C
:101CA00008955058BB27AA270ED075C166D130F0D1
:101CB0006BD120F031F49F3F11F41EF45BC10EF4A0
:101CC000E095E7FB51C1E92F77D180F3BA1762079E
:101CD00073078407950718F071F49EF58FC10EF411
:101CE000E0950B2EBA2FA02D0B01B90190010C012C
:101CF000CA01A0011124FF27591B99F0593F50F444
:101D0000503E68F11A16F040A22F232F342F44279B
:101D1000585FF3CF469537952795A795F040539593
:101D2000C9F77EF41F16BA0B620B730B840BBAF063
:101D30009150A1F0FF0FBB1F661F771F881FC2F7CE
:101D40000EC0BA0F621F731F841F48F487957795E2
:101D50006795B795F7959E3F08F0B3CF9395880F99
:101D600008F09927EE0F979587950895D9D008F434
:101D700081E008950CD00FC107D140F0FED030F0C3
:101D800021F45F3F19F0F0C0511139C1F3C014D1F3
:101D900098F39923C9F35523B1F3951B550BBB2732
:101DA000AA2762177307840738F09F5F5F4F220FDF
:101DB000331F441FAA1FA9F333D00E2E3AF0E0E8D8
:101DC00030D091505040E695001CCAF729D0FE2F24
:101DD00027D0660F771F881FBB1F261737074807B6
:101DE000AB07B0E809F0BB0B802DBF01FF2793586C
:101DF0005F4F2AF09E3F510568F0B6C000C15F3FBB
:101E0000ECF3983EDCF3869577956795B795F79553
:101E10009F5FC9F7880F911D9695879597F908954B
:101E2000E1E0660F771F881FBB1F621773078407E7
:101E3000BA0720F0621B730B840BBA0BEE1F88F7F6
:101E4000E095089504D06894B111D9C00895BCD02C
:101E500088F09F5790F0B92F9927B751A0F0D1F093
:101E6000660F771F881F991F1AF0BA95C9F712C01D
:101E7000B13081F0C3D0B1E00895C0C0672F782F92
:101E80008827B85F39F0B93FCCF386957795679589
:101E9000B395D9F73EF490958095709561957F4FF5
:101EA0008F4F9F4F0895E89409C097FB3EF490959B
:101EB0008095709561957F4F8F4F9F4F9923A9F023
:101EC000F92F96E9BB279395F695879577956795B2
:101ED000B795F111F8CFFAF4BB0F11F460FF1BC0F6
:101EE0006F5F7F4F8F4F9F4F16C0882311F096E989
:101EF00011C0772321F09EE8872F762F05C0662337
:101F000071F096E8862F70E060E02AF09A95660FEF
:101F1000771F881FDAF7880F9695879597F90895A8
:101F2000990F0008550FAA0BE0E8FEEF16161706EA
:101F3000E807F907C0F012161306E407F50798F052
:101F4000621B730B840B950B39F40A2661F0232B6B
:101F5000242B252B21F408950A2609F4A140A695E7
:101F60008FEF811D811D089597F99F6780E870E0CC
:101F700060E008959FEF80EC089500240A941616FF
:101F8000170618060906089500240A941216130667
:101F9000140605060895092E0394000C11F48823F5
:101FA00052F0BB0F40F4BF2B11F460FF04C06F5F11
:101FB0007F4F8F4F9F4F089557FD9058440F551FE7
:101FC00059F05F3F71F04795880F97FB991F61F0BB
:101FD0009F3F79F087950895121613061406551F32
:101FE000F2CF4695F1DF08C0161617061806991F9E
:101FF000F1CF86957105610508940895E894BB2793
:1020000066277727CB0197F908950BD0C4CFB5DFAA
:1020100028F0BADF18F0952309F0A6CFABCF112432
:10202000EECFCADFA0F3959FD1F3950F50E0551F77
:10203000629FF001729FBB27F00DB11D639FAA271D
:10204000F00DB11DAA1F649F6627B00DA11D661F6C
:10205000829F2227B00DA11D621F739FB00DA11D8D
:10206000621F839FA00D611D221F749F3327A00D47
:10207000611D231F849F600D211D822F762F6A2FE3
:1020800011249F5750408AF0E1F088234AF0EE0F68
:10209000FF1FBB1F661F771F881F91505040A9F775
:1020A0009E3F510570F060CFAACF5F3FECF3983EA2
:1020B000DCF3869577956795B795F795E7959F5FDC
:1020C000C1F7FE2B880F911D9695879597F9089576
:1020D00097FB092E07260AD077FD04D065D006D0DD
:1020E00000201AF4709561957F4F0895F6F790954A
:1020F00081959F4F0895A1E21A2EAA1BBB1BFD01DB
:102100000DC0AA1FBB1FEE1FFF1FA217B307E407D6
:10211000F50720F0A21BB30BE40BF50B661F771F2E
:10212000881F991F1A9469F760957095809590950E
:102130009B01AC01BD01CF0108952F923F924F92B8
:102140005F926F927F928F929F92AF92BF92CF9247
:10215000DF92EF92FF920F931F93CF93DF93CDB750
:10216000DEB7CA1BDB0B0FB6F894DEBF0FBECDBFC8
:1021700009942A88398848885F846E847D848C8499
:102180009B84AA84B984C884DF80EE80FD800C81A2
:102190001B81AA81B981CE0FD11D0FB6F894DEBF85
:1021A0000FBECDBFED010895AA1BBB1B51E107C0B7
:1021B000AA1FBB1FA617B70710F0A61BB70B881FD7
:1021C000991F5A95A9F780959095BC01CD01089566
:1021D000EE0FFF1F0590F491E02D0994EF920F93FD
:1021E0001F93CF93322FC02F47FF02C0A4E101C03D
:1021F000A4E0E42FFF27E7FDF095F7FF03C0F0957B
:10220000E195FF4F4C2F512F2E2F032FEA2E0E94C6
:1022100079138C2F912FCF911F910F91EF900895EB
:10222000662777270C94D114FC0188279927E89416
:1022300021912032E9F3293010F02E30C8F32B32EF
:1022400041F02D3239F4689404C00E944F11820F7E
:10225000911D219120532A30C0F31EF49095819551
:102260009F4F08959111DFC5803219F08950855034
:10227000D0F70895FB01DC0101900D920020E1F7F9
:102280000895FB01DC014150504030F08D910190E8
:10229000801919F40020B9F7881B990B08957AE08A
:1022A000979F902D879F802D910D11240895AEE06A
:1022B000B0E0EDE5F1E10C94AB100D891E8986E0EC
:1022C0008C831A8309838FEF9FE79E838D83AE01F2
:1022D000475E5F4FCE0101966F89788D0E949B11FA
:1022E000EF81F885E00FF11F10822E96E4E00C9448
:1022F000C710AEE0B0E0EFE7F1E10C94AB100D8950
:102300001E898EE08C831A8309838FEF9FE79E835B
:102310008D83AE01475E5F4FCE0101966F89788D48
:102320000E949B11EF81F885E00FF11F10822E961D
:10233000E4E00C94C710ADE0B0E0E1EAF1E10C9408
:102340009D103C017D876C875A01FC011782168223
:10235000838181FFC8C12E010894411C511CF301E7
:102360009381EC85FD8593FD859193FF8191FD8798
:10237000EC87882309F4B3C1853241F493FD85913C
:1023800093FF8191FD87EC87853229F490E0B301BA
:102390000E944417E4CFFF24EE2410E01032B0F482
:1023A0008B3269F08C3228F4803251F0833271F430
:1023B0000BC08D3239F0803349F411602CC01260AB
:1023C000146029C0186027C0106125C017FD2EC0F9
:1023D000282F20532A3098F416FF08C08F2D880F1D
:1023E000F82EFF0CFF0CF80EF20E15C08E2D880F84
:1023F000E82EEE0CEE0CE80EE20E10620CC08E32EF
:1024000021F416FD6CC1106406C08C3611F41068FE
:1024100002C0883659F4EC85FD8593FD859193FFC4
:102420008191FD87EC87882309F0B8CF982F9554C8
:10243000933018F09052933038F424E030E0A20E3C
:10244000B31E3FE339830FC0833631F0833781F009
:10245000833509F05AC022C0F5018081898322E0CA
:1024600030E0A20EB31E21E0C22ED12C420114C0D6
:1024700092E0292E312C2A0C3B1CF50180809180A2
:1024800016FF03C06F2D70E002C06FEF7FEFC40135
:102490000E9439176C0151011F7715C082E0282E68
:1024A000312C2A0C3B1CF5018080918016FF03C063
:1024B0006F2D70E002C06FEF7FEFC4010E942E17F6
:1024C0006C011068510113FD1CC006C080E290E051
:1024D000B3010E944417EA948E2D90E0C816D906E5
:1024E000A8F30FC0F40117FD859117FF81914F01EB
:1024F00090E0B3010E944417E110EA940894C108E7
:10250000D108C114D10471F7E7C0843611F08936BF
:1025100051F5F50117FF07C080819181A281B38138
:1025200024E030E008C080819181AA2797FDA09522
:10253000BA2F22E030E0A20EB31E012F0F76B7FFB4
:1025400008C0B095A095909581959F4FAF4FBF4F14
:102550000068BC01CD01A2012AE030E00E947017A2
:10256000D82ED4183FC0853721F41F7E2AE030E0F2
:1025700020C0197F8F36A9F0803720F4883509F004
:10258000AEC00BC0803721F0883709F0A8C001C069
:10259000106114FF09C0146007C014FF08C0166062
:1025A00006C028E030E005C020E130E002C020E1B4
:1025B00032E0F50117FF07C060817181828193814C
:1025C00044E050E006C06081718180E090E042E02C
:1025D00050E0A40EB51EA2010E947017D82ED41888
:1025E000012F0F7706FF09C00E7FDF1430F404FFC0
:1025F00006C002FD04C00F7E02C01D2D01C01F2DAC
:10260000802F90E004FF0CC0FE01ED0DF11D208134
:10261000203311F4097E09C002FF06C01E5F05C009
:1026200086789070009709F01F5F802E992403FD33
:1026300012C000FF0DC0FD2C1E1550F4FE0CF11A47
:102640001E2D06C080E290E0B3010E9444171F5F78
:102650001E15C0F304C01E1510F4E11A01C0EE24CB
:1026600084FE0FC080E390E0B3010E94441782FE15
:102670001FC081FE03C088E590E010C088E790E0AD
:102680000DC0C40186789070009791F081FC02C063
:1026900080E201C08BE207FD8DE290E0B3010E9471
:1026A000441706C080E390E0B3010E944417FA94F7
:1026B000DF14C0F3DA94F201ED0DF11D808190E09A
:1026C000B3010E944417DD20A9F706C080E290E024
:1026D000B3010E944417EA94EE20C1F740CEF30103
:1026E0008681978102C08FEF9FEF2D96E2E10C94D7
:1026F000B910A9E0B0E0EFE7F3E10C94A1106A0192
:10270000122FF02E2BE3201718F0B02EB39402C036
:102710003CE3B32EAE014F5F5F4F27E00B2D0E94CD
:102720003B16BC01A981B0E0CD0189709070813069
:10273000910531F0E1FC06C0E0FE06C040E205C0B4
:102740004DE203C04BE201C040E0A3FF36C044238A
:1027500011F084E001C083E0811710F4181B01C060
:1027600010E0E4FC0BC0912FF60180E202C08193DF
:1027700091509923E1F7C10ED11C10E0442319F0C8
:10278000F60141936F01E2FE05C08EE4F6018083FD
:1027900091E404C08EE6F601808391E69183828302
:1027A00083E090E0C80ED91E812FF60190E202C0AE
:1027B000919381508823E1F73AC0A2FF3FC04423A0
:1027C00011F084E001C083E0811710F4181B01C0F0
:1027D00010E0E4FC0BC0912FF60180E202C081936F
:1027E00091509923E1F7C10ED11C10E0442319F058
:1027F000F60141936F01E2FE07C089E4F601808390
:102800008EE4818386E406C089E6F60180838EE645
:10281000818386E6828383E090E0C80ED91E812FF3
:10282000F60190E202C0919381508823E1F7C10E36
:10283000D11CF60110828EEF9FEFAFC021E030E097
:10284000442311F420E030E0161617061CF4CB01E7
:10285000019602C081E090E0280F391FFF2021F08F
:102860008F2D90E0019602C080E090E0820F931FD0
:10287000212F30E0821793071CF4512F581B01C001
:1028800050E08E2D90E09C0120713070E4FC0DC072
:10289000E3FC0BC0852FF60190E202C091938150BA
:1028A0008823E1F7C50ED11C50E0442319F0F6014E
:1028B00041936F012115310559F4852FF60190E3FD
:1028C00002C0919381508823E1F7C50ED11C50E0DE
:1028D000B60E4A8120E1622E712C6A227B22A4FF6F
:1028E00003C0413309F4BA941B142CF48B2D8930A6
:1028F00018F088E001C081E09B0177FF02C020E072
:1029000030E0A0E0B0E09EE2E92E4B01881A910889
:10291000CB01821B930B8E010F5F1F4F080F191FF6
:102920008F2D90E0AA24BB24A81AB90AFFEF2F3FED
:102930003F0719F4F601E1926F016217730744F043
:10294000821693062CF4F801EA0FFB1F818101C067
:1029500080E32150304011962A153B0524F0F60102
:1029600081936F01E3CF2617370741F4463328F4EC
:10297000453321F46114710409F481E3F601819374
:10298000852FDF0190E202C09D9381508823E1F7FB
:10299000E50FF11D108280E090E02996EEE00C94A6
:1029A000BD10A0E0B0E0E7EDF4E10C94A1105B01F4
:1029B0006115710521F0DB018C9311969C937C01CC
:1029C000E7010894E11CF11C08816701802F90E069
:1029D0000E9432110097A1F70D3241F4098142E0C3
:1029E000C42ED12CCC0EDD1E11E009C00B3231F407
:1029F000098132E0C32ED12CCC0EDD1E10E0E601A1
:102A00002197CE016FEE71E043E050E00E9416176F
:102A10000097D1F4E6012296CE0162EF71E045E025
:102A200050E00E941617009711F4E6012796A114B2
:102A3000B10419F0F501D183C08330E020E090E8C3
:102A4000112309F40AC104C1CE0167EF71E043E02C
:102A500050E00E941617009759F4A114B10409F42C
:102A6000F9C0C6010296D50111969C938E93F2C0CF
:102A700040E050E0BA018824992400530A3090F5D0
:102A80001260212F30E0C9018870907012FF06C0DB
:102A9000009769F50894811C911C29C0009719F0D2
:102AA000089481089108DB01CA01D2E0880F991FC0
:102AB000AA1FBB1FDA95D1F7480F591F6A1F7B1F4A
:102AC000440F551F661F771F400F511D611D711D5B
:102AD0004839B9E95B07B9E96B07B9E17B0738F019
:102AE000146005C00E3F39F413FD43C01860F601B1
:102AF00001916F01C2CF053311F00531D1F5D60137
:102B0000EC91ED3211F4106108C0EB3229F0C601EE
:102B1000019621E030E008C0D6011196EC911197A2
:102B2000C601029622E030E0E053EA3020F06C016A
:102B3000C21AD30A1EC0DC0120E030E0FCE02038DD
:102B40003F075CF4C901880F991F880F991F280F50
:102B5000391F220F331F2E0F311DED91E0536D01F0
:102B6000EA3060F314FF03C0309521953F4F820E89
:102B7000931EC12FD0E011FF08C0A114B10429F0A9
:102B8000C6010197D5018D939C93CB01BA010E9498
:102B9000530F6B017C01CE018370907083309105DF
:102BA00021F4F7FAF094F7F8F094C701B60120E0A9
:102BB00030E0A9010E94B60E882309F444C097FEB4
:102BC00007C09094819491089394C6E2D2E002C029
:102BD000CEE0D2E098EE692E9FEF792E6C0E7D1E2E
:102BE00020E2A22EB12C0FC0FE0105911591259176
:102BF0003491C701B601A90198010E9405106B012B
:102C00007C018A189B088A149B0474F72497B59456
:102C1000A794C615D705B9F7C601D7012A2F220FE9
:102C20002B2F221F2F3F49F0BC01CD0120E030E0C7
:102C3000A9010E94B60E882331F482E290E09093BD
:102C4000AB068093AA063C2D2D2D9E2D8F2D06C000
:102C50008FEF04C030E020E090EC8FE7B901AC01C9
:102C6000872F922FA52FB42FBC01CD01CDB7DEB792
:102C7000EEE00C94BD10283008F027E03327DA018D
:102C8000990F311D87FD916000966105710539F43A
:102C900032602E5F3D9330E32A95E1F708959F3F20
:102CA00030F080387105610509F03C5F3C5F3D9371
:102CB000913008F08068911DDF93CF931F930F939D
:102CC000FF92EF92192F987F9695E92F96959695FA
:102CD000E90FFF27EC57FD4F99273327EE24FF24F8
:102CE000A701E70105900894079428F4360FE71E22
:102CF000F81E491F511D660F771F881F991F0694E4
:102D0000A1F70590079428F4E70EF81E491F561FF7
:102D1000C11D770F881F991F661F0694A1F70590A4
:102D2000079428F4F80E491F561FC71FD11D880F9E
:102D3000991F661F771F0694A1F70590079420F44A
:102D4000490F561FC71FD81F990F661F771F881F6F
:102D50000694A9F784911095177041F0D695C79500
:102D600057954795F794E7941A95C1F7EAE2F2E090
:102D700068941590159135916591959105907FE234
:102D80007395E118F10A430B560BC90BD009C0F734
:102D9000E10CF11E431F561FC91FD01D7EF4703376
:102DA00011F48A95E6CFE894015030F0080F0AF448
:102DB0000027021708F4202F2395022F7A3328F0DA
:102DC00079E37D932A95E9F710C07D932A9589F6DA
:102DD000069497956795379517951794E118F10A1A
:102DE000430B560BC90BD00998F023957E91739530
:102DF0007A3308F070E37C932013B8F77E9170610A
:102E00007D9330F0839571E37D9370E32A95E1F72C
:102E10001124EF90FF900F911F91CF91DF9199278F
:102E200087FD90950895992788270895FB01DC0177
:102E30004150504088F08D9181341CF08B350CF45A
:102E4000805E659161341CF06B350CF4605E861B0E
:102E5000611171F3990B0895881BFCCFFC0105905B
:102E6000615070400110D8F7809590958E0F9F1F8C
:102E70000895FC016150704001900110D8F78095D1
:102E800090958E0F9F1F08950F931F93CF93DF93FD
:102E90008C01EB018B8181FF1BC082FF0DC02E8155
:102EA0003F818C819D812817390764F4E881F9817D
:102EB0000193F983E88306C0E885F985802F099599
:102EC000009731F48E819F8101969F838E8302C08B
:102ED0000FEF1FEFC801DF91CF911F910F91089560
:102EE000FA01AA27283051F1203181F1E8946F933B
:102EF0006E7F6E5F7F4F8F4F9F4FAF4FB1E03ED0E1
:102F0000B4E03CD0670F781F891F9A1FA11D680F7E
:102F1000791F8A1F911DA11D6A0F711D811D911DB1
:102F2000A11D20D009F468943F912AE0269F112426
:102F30003019305D3193DEF6CF010895462F47708A
:102F4000405D4193B3E00FD0C9F7F6CF462F4F70E5
:102F5000405D4A3318F0495D31FD4052419302D043
:102F6000A9F7EACFB4E0A6959795879577956795E9
:102F7000BA95C9F700976105710508959B01AC01E9
:102F80000A2E06945795479537952795BA95C9F710
:102F9000620F731F841F951FA01D089513E0C8E2E0
:102FA000D3E004C0FE010E94EA102296CA32D10783
:062FB000C9F7F894FFCF01
:102FB600496E697469616C697A696E672E2E2000A4
:102FC6005375636365656465642E00687474704741
:102FD600455428292072657175657374696E672E6C
:102FE6002E20004F4B21005B005D0043616E27746D
:102FF60020676574204854545020726573706F6E54
:1030060073652066726F6D200053687574646F7700
:103016006E2E2E004661696C65642E00696E7465BD
:10302600726E65742D76696C6C6167652E6E65745B
:10303600003437003133392E373434370033352EE8
:10304600363631370071314C4B753752513873353E
:10305600706D7978756E6E4457006E616E00696E9C
:1030660066006F7666002E000024594500245452EF
:103076002031002454523D4E4700245452202564EA
:10308600002454572022002478253032780022006C
:103096002454573D4E4700245444002454443D4E86
:1030A6004700245443202573202564002454433DBF
:1030B6004E470024505200245053202564002450CB
:1030C600533D4E4700244C47204D534241534544FF
:1030D60000244C47204D5341535349535445440013
:1030E600244C47205354414E44414C4F4E450024F6
:1030F6004C473D4E47002459560024595200245946
:1031060054002459543D4F4B002457502068747482
:1031160070733A2F2F003A00257500245750206807
:103126007474703A2F2F002F0020220022202200D4
:103136002457503D4F4B00746F6B656E3D257326CB
:103146007374617475733D25730061726475696E7D
:103156006F2D74776565742E61707073706F742E41
:10316600636F6D007570646174650024574720684D
:10317600747470733A2F2F00245747206874747044
:103186003A2F2F002457473D4F4B0024535200241B
:1031960053523D4E470024534300245353200022EC
:1031A6002000554E49434F44450041534349490089
:1031B6002453533D4F4B0024594C20256400245979
:1031C6004C3D4F4B0024594220256C750024594232
:1031D6003D4F4B00245949002459493D4F4B00248B
:1031E6005953000000AC0620006C01810184018D5A
:1031F60001000000006105E40607053405190556BF
:103206000500000000240CE4067E0B300B540B6F07
:023216000B00AB
:00000001FF
