:100000000C94D7010C9405090C9432090C94B81087
:100010000C94DC100C9400110C94FF010C94FF0163
:100020000C94FF010C94FF010C94FF010C94FF0150
:100030000C94FF010C94FF010C94FF010C94FF0140
:100040000C945F090C94FF010C94890B0C94CC0B5D
:100050000C94FF010C94FF010C94FF010C94FF0120
:100060000C94FF010C94FF0146726565203A09006B
:100070006E4765696769650053656E736F72204DE1
:100080006F64656C3A204C4E44203733313700475B
:1000900065742074696D652E20004F4B0025303447
:1000A0006425632563256325632E6C6F67004661B5
:1000B000696C65642074696D652E00253034642D8B
:1000C0002D2D2D2E6C6F6700496E697469616C6906
:1000D0007A696E672E2E200075532F480053756382
:1000E0006365656465642E002F7363726970747351
:1000F0002F73686F72742E7068703F6170695F6BE8
:1001000065793D2573266C61743D2573266C6F6E91
:100110003D25732663706D3D25732669643D256416
:100120000024424E5244442C25642C2C2C2C257344
:100130002C2C2C2C25732C2C25732C2C2C2C2C2C7F
:10014000002A302558002A25580053656E64204F38
:100150004B210053656E64204F4B004E6F20485476
:100160005450006E6F2048545450007265616420F2
:1001700025732030202564000000000700020100E4
:100180000003040600000000000000000102040853
:1001900010204080010204081020010204081020F1
:1001A000040404040404040402020202020203031D
:1001B00003030303000000002300260029000000C1
:1001C0000000250028002B0000000000240027006C
:1001D0002A0000C201000100110011000C0000E122
:1001E00000000A00250025002100009600001900EB
:1001F000390039003600127A00001F004600460020
:1002000044008070000022004D004D004A00004B69
:1002100000003600750075007200403800004A008A
:100220009C009C009900802500007200EC00EC000E
:10023000E900C0120000E900DA01DA01D701600923
:100240000000D701B603B603B303B0040000B30344
:100250006E076E076B07580200006E07DC0EDC0E9F
:10026000D80E2C010000DC0EC11DC11DBE1D494E63
:1002700046494E4954594E414E000020410000C8A5
:100280004200401C4620BCBE4CCA1B0E5AAEC59D47
:1002900074CDCCCC3D0AD7233C17B7D13877CC2BC3
:1002A000329595E6241FB14F0A00407A10F35A00A8
:1002B000A0724E18090010A5D4E80000E87648178F
:1002C0000000E40B54020000CA9A3B000000E1F574
:1002D00005000080969800000040420F000000A03A
:1002E0008601000000102700000000E80300000065
:1002F000006400000000000A00000000000100008F
:100300000000002C76D888DC674F0823DFC1DFAE01
:1003100059E1B1B796E5E3E453C63AE651997696CA
:10032000E8E6C28426EB898C9B62ED407C6FFCEF93
:10033000BC9C9F40F2BAA56FA5F490055A2AF75CC1
:10034000936B6CF9676DC11BFCE0E40D47FEF52073
:10035000E6B500D0ED902E0300943577050080843B
:100360001E080000204E0A000000C80C333333334F
:100370000F986E12831141EF8D2114893BE65516BB
:10038000CFFEE6DB18D1844B381BF77C1D901DA4F3
:10039000BBE424203284725E228100C9F124ECA1E6
:1003A000E53D27006006840CE2166506E716112479
:1003B0001FBECFEFD8E0DEBFCDBF13E0A0E0B1E0BD
:1003C000E8E7F1E402C005900D92A032B107D9F739
:1003D00017E0A0E2B3E001C01D92AD34B107E1F730
:1003E00013E0CAEAD3E004C02297FE010E949619E6
:1003F000C43AD107C9F70E944F0F0C94AF200C9458
:100400000000809130039091310301969093310365
:100410008093300381E0809332030895CF92EF926E
:100420000F931F938130910501F580E693E06AE018
:100430004DE020E00E9472118BE393E06EE04FE00C
:1004400028E009E03BE0E32E5CE0C52E0E94111499
:1004500080E293E060E673E04FE354E026EF34E09F
:100460000FE510E00E946A0606C0009721F480E6BE
:1004700093E00E9475121F910F91EF90CF90089515
:10048000A2E0B0E0E6E4F2E00C94591920914707AD
:10049000309148072115310511F42DE437E0CE01E4
:1004A0000196821B930B2296E2E00C947519DC01F5
:1004B0008C9121E030E007C0FD01E20FF31F908135
:1004C00089272F5F3F4F26173707B4F30895A0E120
:1004D000B0E0EDE6F2E00C944F196B017C01209145
:1004E00028033091290340912A0350912B030E9445
:1004F000AD18B62EA72E982E892EC701B60140E062
:1005000020E06E010894C11CD11C86010E949A193A
:1005100082E695E0B6010E944E0D82E695E068EC19
:1005200070E00E94FE0C8BE393E00E9453138BE378
:1005300093E060E040E00E942E138BE393E0F5012E
:1005400094014F2F5E2F632F722F22E030E00E9424
:100550004C0F8BE393E068ED70E00E94FE0C80E9A5
:1005600096E060E070E00E946A14009709F02CC1E8
:1005700080E996E060E070E00E947815009709F04D
:1005800023C182E695E06DED70E00E943C0D81ECA8
:1005900090E090937D0380937C038DB79EB70E9778
:1005A0000FB6F8949EBF0FBE8DBFEDB7FEB7319664
:1005B00007E914E0ADB7BEB712961C930E931197DE
:1005C00088EE90E09383828385E594E0958384832D
:1005D00028E1822E912C880E991E9782868238E21D
:1005E000A32EB12CA80EB91EB186A086D386C286D2
:1005F0008091530490915404958784870E94441AF3
:10060000EDB7FEB73E960FB6F894FEBF0FBEEDBF36
:1006100082E695E0B8010E944E0D46EFE42E44E0DC
:10062000F42E8FE5D7011D928A95E9F7EDB7FEB755
:100630003C970FB6F894FEBF0FBEEDBF3196ADB735
:10064000BEB71296FC92EE92119781E291E09383ED
:100650008283809153049091540495838483D7823C
:10066000C68291868086B386A2860E94441AEDB720
:10067000FEB73C960FB6F894FEBF0FBEEDBF82E604
:1006800095E0B7010E944E0DD7010D900020E9F7CB
:10069000BD01615070406E197F0970937D036093B6
:1006A0007C038B010E0D1F1DF8011082C7010196FE
:1006B0000E94570280935003803178F400D000D01C
:1006C00000D0EDB7FEB73196ADB7BEB712961C930A
:1006D0000E93119721E431E00EC000D000D000D07D
:1006E000EDB7FEB73196ADB7BEB712961C930E9319
:1006F000119726E431E033832283848315820E949C
:10070000441AEDB7FEB736960FB6F894FEBF0FBE8B
:10071000EDBF80E693E066EF74E00E944E0D6091BD
:10072000EC027091ED02E0907C03F0907D0380E993
:1007300096E040E550E027E934E00EE713E0CC24F2
:100740000E94FD15009799F482E695E06AE471E055
:100750000E943C0D8BE393E060E041E00E942E1389
:100760008BE393E063E571E00E94FE0C1AC082E621
:1007700095E06BE571E00E94FE0C8BE393E060E096
:1007800041E00E942E138BE393E063E671E00E9448
:10079000FE0C6091EC027091ED0282E695E00E9401
:1007A0004E0D8FE5E7E9F4E0DF011D928A95E9F748
:1007B00080E996E00E94561480E996E00E94AA140F
:1007C0006096ECE00C946B198FE5E6EFF4E0DF0146
:1007D0001D928A95E9F7E5CFCF92DF92EF92FF92D3
:1007E0000F931F936B017C010E94A909DC01CB01CF
:1007F00097018601081B190B2A0B3B0BC816D9065B
:10080000EA06FB0620F40095109520953095B80176
:10081000C9011F910F91FF90EF90DF90CF90089545
:1008200060912C0370912D0380912E0390912F03E2
:100830000E94EC03AB01BC01809137039091380317
:10084000A0913903B0913A03481759076A077B070B
:10085000B0F06091300370913103882777FD809567
:10086000982F0E94F9171092310310923003462FEF
:10087000572F682F792FCB01BA010E946702089584
:100880001F93CF93DF93182FC0E0D0E0219680E62E
:1008900093E00E94AA0F009779F080E693E00E940F
:1008A0005C0FAC01112319F02EE330E002C02CE301
:1008B00030E04217530759F06AE070E080E090E0C2
:1008C0000E94E50981E0C43FD80701F705C081E037
:1008D00091E0C43FD90709F480E0DF91CF911F91E7
:1008E0000895A4E1B0E0E7E7F4E00C945919A89565
:1008F00082E695E040E855E260E070E00E94070C77
:1009000080E693E040E855E260E070E00E949F11CD
:1009100082E695E06EEE72E00E944E0D82E695E072
:1009200068E670E00E94FE0C0E944002BC0182E674
:1009300095E04AE050E00E941A0E8BE393E068E0F5
:1009400042E020E00E945B138BE393E00E9453138C
:100950008BE393E060E770E00E94FE0C8BE393E092
:1009600060E041E00E942E138BE393E06EEE72E0B4
:100970000E941D0D68EB7BE080E090E00E94E5099D
:1009800082E695E068E770E00E943C0D8DEE9DE008
:10099000AEE3BBE38093280390932903A0932A033B
:1009A000B0932B0380E293E00E94840880E693E0FA
:1009B00040E855E260E070E00E949F1180E161E054
:1009C0000E94800A80E693E00E94C90F80E160E007
:1009D0000E94B40A64E670E080E090E00E94E509BD
:1009E00080E161E00E94B40A81E00E944004882313
:1009F00021F481E08093510303C081E080935F0381
:100A000080915F03882331F080E293E060E071E041
:100A10000E949A0680915F03882331F482E695E074
:100A20006CE071E00E944E0D82E695E065E574E0B1
:100A30000E944E0D82E695E06DE674E00E944E0D38
:100A400082E695E06DE774E00E944E0D60915304DC
:100A50007091540482E695E04AE050E00E94D10D86
:100A600082E695E06FE870E00E94FE0C8BE393E075
:100A70000E9453138BE393E060E040E00E942E134A
:100A80008BE393E060E171E00E941D0D8BE393E046
:100A900060E041E00E942E138BE393E068E171E097
:100AA0000E941D0D68EB7BE080E090E00E94E5096C
:100AB00080E996E060E070E00E946A14009709F017
:100AC0009BC080E996E060E070E00E947815009796
:100AD00009F092C082E695E06AE970E00E943C0D60
:100AE00080E996E0BE01665F7F4FAE014F5F5F4FCA
:100AF0000E94B515009709F057C082E695E0BE0147
:100B0000665F7F4F0E944E0D82E695E0BE016F5FEB
:100B10007F4F0E944E0D8BE393E060E040E00E9427
:100B20002E138BE393E0BE01665F7F4F0E941D0D85
:100B30008BE393E060E041E00E942E138BE393E0AF
:100B4000BE016F5F7F4F0E941D0D8DB79EB70E9740
:100B50000FB6F8949EBF0FBE8DBFEDB7FEB73196AE
:100B600082E593E0ADB7BEB712969C938E93119732
:100B70008DE990E093838283809153049091540493
:100B8000958384838F8586831782888980871186E1
:100B90008A89828713868B89848715860E94441AE6
:100BA0008DB79EB70E9623C082E695E06EEA70E0A0
:100BB0000E943C0D00D000D000D0EDB7FEB73196BA
:100BC00082E593E0ADB7BEB712969C938E931197D2
:100BD0008BEB90E093838283809153049091540433
:100BE000958384830E94441A8DB79EB706960FB6EC
:100BF000F8949EBF0FBE8DBF82E695E062E573E07C
:100C00000E944E0D81E08093510380E693E00E94A4
:100C1000C90F80E693E060E271E00E941D0D80E65E
:100C200093E062E573E00E941D0D80E693E06DE0C5
:100C30000E94501080E00E944004882391F480E1DB
:100C400060E00E94B40A64E670E080E090E00E94F8
:100C5000E50980E161E00E94B40A81E00E9440045D
:100C6000D8CF81E061E072E043E050E00E94D50817
:100C700080E69AEEA0E0B0E08093370390933803CB
:100C8000A0933903B0933A030E94A909DC01CB0178
:100C900040913703509138036091390370913A03C2
:100CA000840F951FA61FB71F8093330390933403BF
:100CB000A0933503B09336036496E2E00C94751963
:100CC00081E090E00E940E02089580E090E00E9492
:100CD0000E0208950F931F93FC0171836083538369
:100CE000428335832483178306831F910F910895D0
:100CF000EF92FF920F931F93CF93DF93EB0128E5C1
:100D0000E22EF12C8C01061B170BBE01600F711F28
:100D1000499186E497E00E94F0160894E108F108F2
:100D2000E114F10491F788E590E0CDB7DEB7E6E095
:100D30000C947119A0E0B0E0E0EAF6E00C944E19D2
:100D40005C01EB01DC018D919C910E94C90FEDB714
:100D5000FEB738970FB6F894FEBF0FBEEDBF3196C1
:100D6000D50114968D919C911597ADB7BEB712968B
:100D70009C938E9311978BE691E093838283D58326
:100D8000C483D50116968D919C911797978386837E
:100D90000E94441AEDB7FEB738960FB6F894FEBF1E
:100DA0000FBEEDBFD50114966D917C9115978D9175
:100DB0009C910E941D0DF50180819181DC01ED91D6
:100DC000FC910190F081E02D6DE00995F5018081A5
:100DD0009181DC01ED91FC910480F581E02D099574
:100DE0000097A1F3F50180819181DC01ED91FC91E7
:100DF0000680F781E02D09958D30910539F7F501D1
:100E0000468157818481958160E070E00E94E619F7
:100E1000C0E0D0E07724D5018D919C91DC01ED916B
:100E2000FC910480F581E02D0995009791F0F50182
:100E3000C481D581C70DD11D80819181DC01ED91E7
:100E4000FC910680F781E02D099588837394C0E0BA
:100E5000D0E061E070E080E090E00E94E509272D9D
:100E600030E0F501868197812817390729F021960E
:100E7000F3E0C83EDF077CF28824992432C1D50113
:100E800014966D917C911597DB01A80DB11D40E082
:100E900009C04F5F882D90E0F501268137818217C8
:100EA000930739F0FB01E80DF11D808183948A30AE
:100EB00081F7FD01E40FF11D10828C91882309F464
:100EC00010C1833209F40DC1433008F40AC180E037
:100ED000ED01C80FD11D9881903211F0993051F475
:100EE0008F5F8417A9F7FDC0903211F0993009F493
:100EF00010828F5F841709F4F4C0FD01E80FF11D23
:100F000090819D3389F7841709F4EBC010828F5FBD
:100F10008D01080F111DF8019081903211F0993068
:100F200021F48F5F8417A1F7DCC0841709F4D9C0BE
:100F3000CE0168E371E00E94ED190097B9F4C80191
:100F40000E94C0199C01B901882777FD8095982FD0
:100F50000E94F917F62EE72ED82EC92ED50112962B
:100F6000CD91DC911397C15BDF4F1DC0CE016CE3C7
:100F700071E00E94ED19009791F5C8010E94C01917
:100F8000FC01BF01882777FD8095982F0E94F917F3
:100F9000F62EE72ED82EC92ED5011296CD91DC91D2
:100FA0001397CC5ADF4F688179818A819B81F70141
:100FB000A6010F2F1E2D252F3C2DA90198010E945F
:100FC0005A17882309F48DC0A7019601852F912F08
:100FD000A32FBC2D88839983AA83BB8380C0CE01B5
:100FE00060E471E00E94ED19009729F4F501C281D7
:100FF000D38124966AC0CE0163E471E00E94ED19AA
:10100000009791F4D5011296CD91DC911397C80108
:101010000E94C0199C018C899D898217930709F44D
:1010200060C03D8B2C8B5BC0CE0167E471E00E94F9
:10103000ED19009729F4F501C281D381669645C068
:10104000CE016BE471E00E94ED19009769F4D501BF
:101050001296CD91DC911397C8010E94C0199C0192
:10106000FE01E25BFF4F11C0CE016FE471E00E9410
:10107000ED19009789F4F501C281D381C8010E945E
:10108000C0199C01FE01ED5AFF4F808190E082174C
:10109000930739F1208323C0CE0163E571E00E94FC
:1010A000ED19009739F4D5011296CD91DC91139783
:1010B000AE960BC0CE0167E571E00E94ED19009776
:1010C00081F4F501C281D381EE96CE01B8010E9470
:1010D000ED19009731F0CE01B8010E94F61999245C
:1010E0009394871408F4CBCE992049F0D501129639
:1010F0006D917C91139784EF91E00E947806CDB7B3
:10110000DEB7EDE00C946A19EF92FF920F931F93F4
:10111000CF93DF938C01DC011296EC91129713961A
:10112000FC9188E5DF011D928A95E9F7F801E280DC
:10113000F38064EF71E001C0BE01EB01219686E40B
:1011400097E00E94EC16D7018D937D01B2E0CC347C
:10115000DB0791F7D8011296ED91FC9113978081EE
:101160009181A281B3818D3020EF92072EEFA207EB
:101170002AE5B207A9F088E5DF011D928A95E9F713
:10118000F801628173818DE090EFAEEFBAE5FB016B
:1011900080839183A283B38384EF91E00E947806D9
:1011A000CDB7DEB7E6E00C9471198230E8F4E82F91
:1011B000F0E0EE0FFF1FEB5AFA4F7183608381302E
:1011C00041F0809169008C7F842B80936900E89ABC
:1011D000089580916900440F551F440F551F837F68
:1011E000842B80936900E99A0895823068F48130F5
:1011F00011F0E89801C0E998E82FF0E0EE0FFF1F2A
:10120000EB5AFA4F1182108208951F920F920FB677
:101210000F9211242F933F934F935F936F937F937C
:101220008F939F93AF93BF93EF93FF938091550557
:1012300090915605009729F0E0915505F0915605DB
:101240000995FF91EF91BF91AF919F918F917F9100
:101250006F915F914F913F912F910F900FBE0F9023
:101260001F9018951F920F920FB60F9211242F9373
:101270003F934F935F936F937F938F939F93AF931E
:10128000BF93EF93FF938091570590915805009776
:1012900029F0E0915705F09158050995FF91EF91DC
:1012A000BF91AF919F918F917F916F915F914F917E
:1012B0003F912F910F900FBE0F901F9018951F9286
:1012C0000F920FB60F9211242F933F938F939F93FA
:1012D000AF93BF938091590590915A05A0915B05FA
:1012E000B0915C0530916105232F2D5F2D3720F4DF
:1012F0000196A11DB11D05C0232F2A570296A11DDD
:10130000B11D209361058093590590935A05A093D0
:101310005B05B0935C0580915D0590915E05A091A1
:101320005F05B09160050196A11DB11D80935D051B
:1013300090935E05A0935F05B0936005BF91AF9158
:101340009F918F913F912F910F900FBE0F901F9003
:1013500018950F931F938FB7F8940091590510912A
:101360005A0520915B0530915C058FBFB801C9011A
:101370001F910F9108950F931F939FB7F8940091B9
:101380005D0510915E0520915F053091600586B581
:10139000A89B06C08F3F21F00F5F1F4F2F4F3F4F7D
:1013A0009FBF322F212F102F0027080F111D211D45
:1013B000311D42E0000F111F221F331F4A95D1F744
:1013C000B801C9011F910F910895CF92DF92EF925A
:1013D000FF92CF93DF936B017C010E94BB09DC017C
:1013E000CB01EC010FC00E94BB096C1B7D0B83E09D
:1013F000683E780738F00894C108D108E108F10880
:10140000C851DC4FC114D104E104F10461F7DF914C
:10141000CF91FF90EF90DF90CF900895019739F032
:10142000880F991F880F991F02970197F1F7089568
:10143000789484B5826084BD84B5816084BD85B5AF
:10144000826085BD85B5816085BDEEE6F0E0808176
:1014500081608083E1E8F0E0108280818260808397
:10146000808181608083E0E8F0E08081816080831A
:10147000E1EBF0E0808184608083E0EBF0E080814C
:1014800081608083EAE7F0E08081846080838081EE
:101490008260808380818160808380818068808396
:1014A0001092C1000895833071F0843028F48130A7
:1014B000A1F0823021F514C08630B1F08730D1F030
:1014C0008430E9F404C0809180008F7703C080915C
:1014D00080008F7D80938000089584B58F7702C04F
:1014E00084B58F7D84BD08958091B0008F778093FF
:1014F000B00008958091B0008F7D8093B000089572
:1015000090E0FC01E457FE4F249180569E4FFC0171
:101510008491882341F190E0880F991FFC01E853E2
:10152000FE4F45915491DA0182549E4FFC01859102
:101530009491FC019FB7F8948C91662331F4209527
:1015400082238C938081822308C0623049F4322F39
:10155000309583238C938081822B80839FBF089555
:10156000822B8C939FBF0895A1E0B0E0EAEBFAE0F4
:101570000C945719282F30E0F901E858FE4F849158
:10158000F901E457FE4F1491F901E056FE4F049122
:101590000023D1F0882321F069830E94530A6981D6
:1015A000E02FF0E0EE0FFF1FE254FE4F8591949183
:1015B000DC019FB7F8948C91662319F41095812370
:1015C00001C0812B8C939FBF2196E4E00C9473198A
:1015D000FC0124853585F901E05CFF4F8081918114
:1015E0002E5B3F4FF90120813181821B930B8F735A
:1015F00090700895FC0144855585FA01E05CFF4F29
:1016000080819181FA01EE5BFF4F20813181821749
:10161000930741F00190F081E02DE40FF51F8081E8
:1016200090E008958FEF9FEF0895FC014485558564
:10163000FA01E05CFF4F20813181FA01EE5BFF4F40
:10164000808191812817390779F0A081B181A40F99
:10165000B51F8C91208131812F5F3F4F2F733070E8
:101660003183208390E008958FEF9FEF0895FC0170
:1016700081A1882329F0A489B5898C9186FFFBCFAD
:1016800011A20895CF93DF93DC011E964D915C91DA
:101690001F97EA01C05CDF4F288139812F5F3F4FE0
:1016A0002F733070FA01EE5BFF4F80819181281714
:1016B0003907D9F3E881F981E40FF51F60831E969D
:1016C000ED91FC911F97E05CFF4F3183208356968C
:1016D000ED91FC915797208181E090E05F960C900E
:1016E0005F9702C0880F991F0A94E2F7282B208386
:1016F00081E091968C9391975496ED91FC9155973A
:1017000080818064808381E090E0DF91CF910895B3
:1017100008951F920F920FB60F9211242F933F93AB
:101720004F938F939F93EF93FF938091C00082FD1F
:101730001CC04091C6008091080690910906019650
:101740008F73907020910A0630910B0682179307D1
:1017500071F0E0910806F0910906E853FA4F4083D2
:10176000909309068093080602C08091C600FF91FD
:10177000EF919F918F914F913F912F910F900FBEBD
:101780000F901F90189582E695E00E94E80A009756
:1017900011F00E94880B08951F920F920FB60F92BE
:1017A00011242F933F938F939F93EF93FF93209157
:1017B000C4053091C5058091C6059091C7052817CD
:1017C000390731F48091C1008F7D8093C10014C02E
:1017D000E091C605F091C705EC57FA4F2081809142
:1017E000C6059091C70501968F7390709093C705B9
:1017F0008093C6052093C600FF91EF919F918F9132
:101800003F912F910F900FBE0F901F901895A0E061
:10181000B0E0EDE0FCE00C945219EC016A017B01B0
:10182000BB24B394403081EE580780E0680780E025
:10183000780749F4BB24EC89FD89108260E874E8DC
:101840008EE190E00FC0EC89FD8981E090E008A076
:1018500002C0880F991F0A94E2F7808360E079E064
:101860008DE390E0A70196010E94271989019A0152
:101870000150104020403040369527951795079528
:1018800080E10030180710F0BB20A1F6E889F98943
:101890001083EA89FB89008319A2EE89FF894081C0
:1018A00021E030E0C9010C8C02C0880F991F0A9416
:1018B000E2F7482B4083EE89FF894081C9010D8CF6
:1018C00002C0880F991F0A94E2F7482B4083EE89E3
:1018D000FF894081C9010E8C02C0880F991F0A94AC
:1018E000E2F7482B4083EE89FF8980810F8C02C08C
:1018F000220F331F0A94E2F7209528232083CDB7C7
:10190000DEB7E9E00C946E1910926505109264053B
:1019100088EE93E0A0E0B0E08093660590936705C1
:10192000A0936805B0936905E4E6F5E08BEF92E0DB
:101930009293829388EC95E09587848784E895E07C
:101940009787868785EC90E0918B808B84EC90E084
:10195000938B828B80EC90E0958B848B81EC90E074
:10196000978B868B82EC90E0918F808F86EC90E055
:10197000938F828F84E0848F83E0858F87E0868FCA
:1019800085E0878F81E080A30895A0E0B0E0EBECD4
:10199000FCE00C9453196C017B01EA0100E010E0BB
:1019A0000EC0D7016D917D01D601ED91FC910190A2
:1019B000F081E02DC6010995080F191F2197209786
:1019C00081F7C801CDB7DEB7E8E00C946F19611557
:1019D000710589F0DB010D900020E9F7AD01415060
:1019E0005040461B570BDC01ED91FC910280F381C6
:1019F000E02D0995089580E090E00895EF92FF9220
:101A00000F931F93CF93DF937C01EB0100E010E075
:101A1000FE0121966491662351F0F701A081B18106
:101A2000ED91FC91C7010995080F191FF1CFC8016D
:101A3000CDB7DEB7E6E00C9471190E94E70C08956B
:101A4000DC01ED91FC910190F081E02D0995089564
:101A50000F931F93CF93DF938C016DE00E94200DB5
:101A6000EC01C8016AE00E94200D8C0F9D1FDF91E0
:101A7000CF911F910F9108950F931F93CF93DF93F1
:101A80008C010E94FE0CEC01C8010E94280D8C0FF5
:101A90009D1FDF91CF911F910F9108950F931F9379
:101AA000CF93DF938C010E94E70CEC01C8010E94E8
:101AB000280D8C0F9D1FDF91CF911F910F910895DD
:101AC0004F925F926F927F92AF92BF92CF92DF92CE
:101AD000EF92FF920F931F93CF93DF93CDB7DEB7B3
:101AE000A1970FB6F894DEBF0FBECDBF5C01E42E08
:101AF000CB01F22E19A221E02F1510F03AE0F32EBF
:101B000021E2C22ED12CCC0EDD1E4F2C5524662492
:101B1000772403C0E02E512FC9016E2D752FA3012C
:101B200092010E94271989019A01F09E802D1124AB
:101B3000E81A8E2D0894C108D1088A3010F4805D0F
:101B400001C0895CF601808301151105210531056D
:101B500009F7C501B6010E94E70CA1960FB6F894EB
:101B6000DEBF0FBECDBFDF91CF911F910F91FF90D0
:101B7000EF90DF90CF90BF90AF907F906F905F908D
:101B80004F9008952115310549F4DC01ED91FC9148
:101B90000190F081E02D642F099508950E94600D59
:101BA00008950F931F93CF93DF938C019A01AB019C
:101BB00060E070E00E94C20DEC01C8010E94280D97
:101BC0008C0F9D1FDF91CF911F910F910895A0E081
:101BD000B0E0EDEEFDE00C945319EC016A017B01DD
:101BE0002115310541F4E881F9810190F081E02D62
:101BF000642F09951AC02A303105A9F477FF12C065
:101C00006DE20E94200D8C0144275527BA014C1922
:101C10005D096E097F09CE012AE00E94600D800FE8
:101C2000911F03C02AE00E94600DCDB7DEB7E8E047
:101C30000C946F190F931F93CF93DF938C019A012C
:101C4000CB01AC01662757FD6095762FC8010E9435
:101C5000E70DEC01C8010E94280D8C0F9D1FDF913C
:101C6000CF911F910F9108952F923F924F925F92C3
:101C70007F928F929F92AF92BF92CF92DF92EF921C
:101C8000FF920F931F93CF93DF932C014A015B01C7
:101C9000722ECB01BA01A50194010E94101988236C
:101CA00021F0C2016BE571E01BC075016401E8948D
:101CB000F7F8C701B6012FEF3FEF4FE75FE70E944C
:101CC0001019882389F4C701B6012FEF3FEF4FE7C2
:101CD0005FE70E945A1718163CF4C2016FE571E0E5
:101CE0000E94E70C4C01C5C0C501B4012FEF3FEFC6
:101CF0004FE75FE40E94A918181654F0C501B4011B
:101D00002FEF3FEF4FE75FEC0E945A1787FF04C0A9
:101D1000C20163E671E0E4CFC501B40120E030E028
:101D2000A9010E945A1787FF0AC0C2016DE20E94F2
:101D3000200D1C01B7FAB094B7F8B09402C0222469
:101D40003324C0E050E040E030E02FE313C0FA015C
:101D5000B9018F2F942FA72FB22FBC01CD0120E006
:101D600030E040E251E40E945E17562F472F382F93
:101D7000292FCF5FC71559F7C501B401DA01F90161
:101D80000B2F142F2F2F3E2FA90198010E94F6161A
:101D90007B01182FD92F862F9F2DA12FBD2FBC017E
:101DA000CD010E94CB17C62E072F882EC92F0E9467
:101DB000F7179B01AC018E2D9F2DA12FBD2FBC01CC
:101DC000CD010E94F5167B01182FD92FC2014C2D91
:101DD000502F682D7C2F2AE030E00E94C20D4C016C
:101DE000820C931C772009F442C0C20167E671E0BF
:101DF0000E94E70C880E991E3AC08E2D9F2DA12FB0
:101E0000BD2FBC01CD0120E030E040E251E40E9452
:101E1000AD18EB01182F092F9801862F9D2FA32FA6
:101E2000B22FBC01CD010E94C6176B017C01EE24CC
:101E3000D7FCE094FE2CC201B701A6012AE030E0F5
:101E40000E94E70D880E991EC701B6010E94F9177E
:101E50009B01AC01B8018C2F9D2FA72FB62FBC0181
:101E6000CD010E94F5167B01182FD92F7A94772087
:101E700021F6C401DF91CF911F910F91FF90EF9058
:101E8000DF90CF90BF90AF909F908F907F905F90AA
:101E90004F903F902F9008950E94340E08950E9415
:101EA000180A0E947104C3ECDBE00E941004209722
:101EB000E1F30E94C30BF9CF20918E0630918F067B
:101EC00028173907B9F490910C0680910D069817E0
:101ED000A1F0E0910C06F0E0E25FF94F80812091E3
:101EE0000C0630E02F5F3F4F2F77307020930C06A9
:101EF00090E008958FEF9FEF08958FEF9FEF089583
:101F000020918E0630918F062817390771F4909131
:101F10000C0680910D06981759F0E0910C06F0E040
:101F2000E25FF94F808190E008958FEF9FEF089571
:101F30008FEF9FEF089520918E0630918F0628171E
:101F4000390739F48FB7F89410920D0610920C06E9
:101F50008FBF089520918E0630918F06281739077C
:101F600071F480910D0620910C0690E080589F4FEF
:101F7000821B910960E870E00E941419089580E0C6
:101F800090E0089520E001972FEF8F3F9207D9F757
:101F90000895FC0180918E0690918F068E179F0701
:101FA00081F0838D8E7F838F8FB7F89410920D060A
:101FB00010920C06F0938F06E0938E068FBF81E09F
:101FC000089580E00895EF92FF920F931F93CF93AF
:101FD000DF93EC018B8DEE85FF859D8581FF04C02D
:101FE0008081892329F448C08081892309F044C075
:101FF0008B899C890E94C20F28E0E22EF12C01E01F
:1020000010E08D899E890E94C20FEE85FF85808138
:102010009D85892311F0102B03C0802F80951823F4
:10202000000F0894E108F108E114F10451F78F89D9
:10203000988D0E94C20F8B8D81FD109580910D06A9
:1020400020910C0690E001968F77907030E0821717
:10205000930779F0E0910D06F0E0E25FF94F10830D
:1020600080910D0690E001968F77907080930D0619
:1020700003C08B8D81608B8FCDB7DEB7E6E00C940B
:102080007119FC01A189B2899089662329F42C91E8
:10209000892F8095822302C08C91892B8C9308957F
:1020A000A0E0B0E0E6E5F0E10C945419EC01F62E66
:1020B000898D9A8D009739F481E090E09B838A8323
:1020C00080E090E047C0EFB6F8948B8D61E081FF2F
:1020D00060E0CE010E944110898D9A8D05960E9484
:1020E000C20F8B8D08E010E0DD24D39481FF15C072
:1020F0008D2D8F2119F0CE0160E002C0CE0161E08C
:102100000E944110898D9A8D0E94C20FDD0C0150F2
:10211000104071F7CE0160E014C08D2D8F2119F0B1
:10212000CE0161E002C0CE0160E00E944110898DC5
:102130009A8D0E94C20FDD0C0150104071F7CE0144
:1021400061E00E944110EFBE898D9A8D0E94C20FFE
:1021500081E090E0CDB7DEB7E7E00C947019809194
:102160008E0690918F06009711F00E94E30F08955C
:102170001F920F920FB60F9211242F933F934F93FC
:102180005F936F937F938F939F93AF93BF93EF93DF
:10219000FF930E94AF10FF91EF91BF91AF919F917C
:1021A0008F917F916F915F914F913F912F910F9000
:1021B0000FBE0F901F9018951F920F920FB60F929F
:1021C00011242F933F934F935F936F937F938F933C
:1021D0009F93AF93BF93EF93FF930E94AF10FF9134
:1021E000EF91BF91AF919F918F917F916F915F918F
:1021F0004F913F912F910F900FBE0F901F90189508
:102200001F920F920FB60F9211242F933F934F936B
:102210005F936F937F938F939F93AF93BF93EF934E
:10222000FF930E94AF10FF91EF91BF91AF919F91EB
:102230008F917F916F915F914F913F912F910F906F
:102240000FBE0F901F9018951F93CF93DF93EC0153
:10225000162F862F61E00E94800A812F61E00E9484
:10226000B40A812F90E0FC01E457FE4FE491E88B23
:10227000FC01E056FE4FE491F0E0EE0FFF1FE25448
:10228000FE4F85919491898B9A8BDF91CF911F910D
:1022900008951F93CF93DF93EC01162F862F60E0F4
:1022A0000E94800A8B8D81FD04C0812F61E00E9415
:1022B000B40A1C87812F90E0FC01E457FE4FE491A3
:1022C000ED87FC01E056FE4FE491F0E0EE0FFF1FBA
:1022D000EC54FE4F859194918E879F87DF91CF912B
:1022E0001F9108951F93CF93DF93EC01162F1B824C
:1022F0001A8288EE93E0A0E0B0E08C839D83AE83E9
:10230000BF838BE093E0998388831C8A1B8A1E8A93
:102310001D8A188E1F8A1A8E198E8B8D2170220F9E
:102320008C7F822B8B8FCE01642F0E942411CE01D3
:10233000612F0E944911DF91CF911F910895CF9293
:10234000DF92EF92FF92CF93DF93EC016A017B0162
:102350001A8E198E188E1F8A1E8A1D8A1C8A1B8A45
:1023600020E030E0A901440F551F420F531F440FD6
:10237000551F440F551FFA01EE52FE4F859195915E
:10238000A591B4918C159D05AE05BF05E9F4FA0140
:10239000EA52FE4F859194918B8B9C8BFA01E85207
:1023A000FE4F859194918D8B9E8BFA01E652FE4FE4
:1023B000859194918F8B988F44525E4FFA0185914D
:1023C0009491898F9A8F06C02F5F3F4F2D30310532
:1023D00009F0C8CF8F89988D009709F448C09C8573
:1023E000963108F040C020916800983020F09E306F
:1023F00020F082E003C084E001C081E0822B809362
:1024000068005C85583048F05E3060F05631C8F1A5
:10241000E0E0F0E0A0E0B0E009C0EDE6F0E0ADE61D
:10242000B0E004C0EBE6F0E0ABE6B0E04C91583031
:1024300040F481E090E002C0880F991F5A95E2F7BE
:1024400010C0252F30E05E3018F42850304002C014
:102450002E50304081E090E002C0880F991F2A95ED
:10246000E2F7842B8083898D9A8D0E94C20FCE0162
:102470000E94C90FDF91CF91FF90EF90DF90CF9036
:102480000895ECE6F0E0ACE6B0E0D0CFFC01448586
:10249000463150F5483028F04E3030F0ECE6F0E0B0
:1024A00005C0EDE6F0E002C0EBE6F0E05081483018
:1024B00040F481E090E002C0880F991F4A95E2F74E
:1024C00010C0242F30E04E3018F42850304002C0A5
:1024D0002E50304081E090E002C0880F991F2A956D
:1024E000E2F780958523808308952BE033E0FC019B
:1024F000318320830E9446120895CF93DF93EC012D
:102500008E8160E00E94B40A81E090E00E940E0A91
:102510008E8161E00E94B40A81E090E00E940E0A80
:102520008E8160E00E94B40A84E690E00E940E0A68
:10253000DF91CF910895A0E0B0E0E1EAF2E10C94E0
:1025400053198C01C0E0D0E0C62EDD247801EC0EDA
:10255000FD1EF701878161E00E94800AB6010C2E02
:1025600002C0759567950A94E2F76170F70187815B
:102570000E94B40A2196C430D10541F7C8010E94D7
:102580007D12CDB7DEB7E8E00C946F19A0E0B0E0A3
:10259000ECECF2E10C9453198C01C0E0D0E0C62EB3
:1025A000DD247801EC0EFD1EF701878161E00E94B9
:1025B000800AB6010C2E02C0759567950A94E2F761
:1025C0006170F70187810E94B40A2196C830D10555
:1025D00041F7C8010E947D12CDB7DEB7E8E00C9448
:1025E0006F191F93CF93DF93EC01162F8C81642F0B
:1025F0000E94B40A8D818F3F19F060E00E94B40AF6
:102600008F8584FF05C0CE01612F0E94C6120FC0C6
:10261000212F30E084E0359527958A95E1F7CE01AA
:10262000622F0E949B12CE01612F0E949B12DF91AC
:10263000CF911F91089541E00E94F11281E090E056
:10264000089540E00E94F1120895FC016089262F50
:102650002460208B6C600E9421130895A8E0B0E0F4
:10266000E4E3F3E10C945919FE013196AAE6B1E0D6
:1026700028E00D9001922150E1F7FC0123894217D7
:1026800010F0422F4150E42FF0E0EE0FFF1FEC0F4F
:10269000FD1F2181260F2068622F0E94211328969A
:1026A000E2E00C94751961E00E94211380ED97E03F
:1026B0000E940E0A0895CF93DF93EC01423018F088
:1026C0008F8588608F874B8B1C8A222329F04130AD
:1026D00019F48F8584608F8780E593EC0E940E0A41
:1026E0008C8160E00E94B40A8E8160E00E94B40A8E
:1026F0008D818F3F19F060E00E94B40A6F8564FD00
:102700001DC0CE0163E00E949B1284E991E10E940A
:102710000E0ACE0163E00E949B1284E991E10E94BF
:102720000E0ACE0163E00E949B1286E990E00E94AF
:102730000E0ACE0162E00E949B1216C06062CE01BA
:102740000E94211384E991E10E940E0A6F85606264
:10275000CE010E94211386E990E00E940E0A6F8547
:102760006062CE010E9421136F856062CE010E94DB
:10277000211384E0888BCE010E942513CE010E9494
:10278000531382E0898BCE0166E00E942113DF9112
:10279000CF9108956F927F928F92AF92CF92EF92E6
:1027A0000F931F93CF93DF93CDB7DEB73C01162F66
:1027B000842FF301448325830683E782C086A186A4
:1027C00082869D8593879E8594879F859587988926
:1027D000968761E00E94800AF30185818F3F19F09E
:1027E00061E00E94800AF301868161E00E94800A14
:1027F000112319F0F301178603C080E1F3018787E5
:10280000C30160E141E020E00E945B13DF91CF91C2
:102810001F910F91EF90CF90AF908F907F906F901E
:1028200008958F92AF92CF92EF920F93CF93DF9351
:10283000A62F742F522F302FAE2C8C2CEC011B8224
:102840001A82EBE1F3E0F983E88300D000D0EDB722
:10285000FEB73196CDB7DEB719821182128213828C
:1028600061E04A2F2FEF072FE52EC32E0E94CA13D7
:102870000F900F900F900F90DF91CF910F91EF90ED
:10288000CF90AF908F9008958130910541F482E907
:1028900096E064E045E020E00E9472110895009700
:1028A00021F482E996E00E94751208958091AE06A7
:1028B0009091AF06009739F080E00E94F5081092E1
:1028C000AF061092AE0682E996E00E94461280E0C2
:1028D00090E0089582E060E00E94800A87E061E075
:1028E0000E94800A86E061E00E94800A87E061E041
:1028F0000E94B40A68EE73E080E090E00E94E5096F
:1029000086E060E00E94B40A60ED77E080E090E04D
:102910000E94E50986E061E00E94B40A68EB78E86D
:1029200080E090E00E94E50980E090E008950F9338
:102930001F93CF93DF938B01C2E9D6E0CE010E94B3
:10294000C90FCE01B8010E944E0DDF91CF911F91AA
:102950000F91089562E771E00E94971468E97AE3A5
:1029600080E090E00E94E50987E060E00E94B40A00
:1029700080E090E008950F931F93CF93DF938B0136
:10298000C2E9D6E0CE010E94C90FCE01B8010E9473
:102990001D0DDF91CF911F910F910895CF92DF927E
:1029A000EF92FF92CF93DF93C62F0E94A9096B018C
:1029B0007C01D0E00E94A909DC01CB018C199D09A2
:1029C000AE09BF09883823E1920720E0A20720E082
:1029D000B20748F482E996E00E945C0F97FDFACFB7
:1029E0008C179D0739F7DF91CF91FF90EF90DF9023
:1029F000CF900895A0E0B0E0E0E0F5E10C944B1931
:102A00007B016A01480159010E94A9092B013C017F
:102A1000C0E0D0E00E94A909DC01CB01841995092E
:102A2000A609B70988159905AA05BB0558F582E9D5
:102A300096E00E94AA0F1816190664F782E996E03C
:102A40000E945C0F9C018A30910529F4F701808176
:102A50008432F1F60DC0F601808191810197C8178B
:102A6000D907C4F6F701EC0FFD1F20832196D2CFC2
:102A7000F701EC0FFD1F1082F601D183C08380E0C7
:102A800090E002C081E090E0CDB7DEB7E0E10C94C9
:102A90006719AFE0B0E0EFE4F5E10C9455198C0153
:102AA0007B018DE090E09A838983C8016FEF71E02C
:102AB0000E949714C801BE016D5F7F4FAE014F5F4A
:102AC0005F4F08E813E120E030E00E94FA1400971D
:102AD00049F4C701BE01665F7F4F0E94F61980E08E
:102AE00090E002C081E090E02F96E6E00C9471192E
:102AF000A6E0B0E0EEE7F5E10C9457198C0182E90D
:102B000096E040EC52E160E070E00E949F1181E0AD
:102B100090E0F801918380831092AF061092AE0688
:102B200080E00E94F508C801BE016F5F7F4F0E94E0
:102B300049150097A1F4CE0101960E94BC1920E02E
:102B400030E040E85FE30E945A17992787FD90958F
:102B50008827990F881F9927880F991F02C081E045
:102B600090E02696E4E00C947319AEE1B0E0EBEB54
:102B7000F5E10C9453198C017B016A018CE190E022
:102B80009A838983C80167E072E00E949714C801A4
:102B9000BE016D5F7F4FAE014F5F5F4F08E813E1ED
:102BA00020E030E00E94FA14009709F5CE01039668
:102BB0006BE072E046E050E00E94FD190097B9F426
:102BC000C701BE01665F7F4F4AE050E00E940B1ACA
:102BD000F7011286C601BE016B5E7F4F48E050E0F0
:102BE0000E940B1AF601108680E090E002C081E09E
:102BF00090E06E96E8E00C946F19AAE0B0E0E3E094
:102C0000F6E10C9449194C01D62EB72E3A01A22EAA
:102C1000432E1801FA86E98686E990E09A83898333
:102C2000E62FF72FDF010D900020E9F7CD01019786
:102C30008E1B9F0BA22FB32FFD0101900020E9F7FF
:102C40003197EA1BFB0B8E0F9F1FCC2049F0089693
:102C50008138910508F0ADC0C4016BE672E008C090
:102C600007968138910508F0A4C0C40168E772E0B6
:102C70000E94BB14C4016D2D7B2D0E94BB146114F6
:102C8000710441F1C4016FE172E00E94BB1400D0F5
:102C900000D000D0EDB7FEB731968E010D5F1F4F0B
:102CA000ADB7BEB712961C930E93119781E292E0D6
:102CB00093838283758264820E94221AEDB7FEB7E5
:102CC00036960FB6F894FEBF0FBEEDBFC401B80133
:102CD0000E94BB14C4016A2D742D0E949714C40174
:102CE00060EB76E0AE014F5F5F4F08EB18E820E045
:102CF00030E00E94FA14009709F05BC080EB96E088
:102D000064E872E046E050E00E94FD19009709F087
:102D100050C087EB96E00E94C0197C010E94A9096F
:102D20002B013C0100E010E0A984BA840894A108BA
:102D3000B10824C00E94A909DC01CB0184199509BE
:102D4000A609B709883BF8E89F07F0E0AF07F0E075
:102D5000BF0790F582E996E00E94AA0F181619069F
:102D60004CF782E996E00E945C0F0A151B0524F4DB
:102D7000F101E00FF11F80830F5F1F4F0E151F053C
:102D80004CF3C4016AE00E94CE1489859A85E81646
:102D9000F90644F0280E391E089421083108D101A3
:102DA0001C9204C0E20CF31CF701108280E090E05A
:102DB00005C081E090E002C082E090E02A96E2E166
:102DC0000C94651981E090E00E944414089580E01D
:102DD00090E00E9444140895CB010E94441C089581
:102DE000CB01642F0E944C1C08955058BB27AA2782
:102DF0000ED075C166D130F06BD120F031F49F3F19
:102E000011F41EF45BC10EF4E095E7FB51C1E92F0C
:102E100077D180F3BA17620773078407950718F014
:102E200071F49EF58FC10EF4E0950B2EBA2FA02DF4
:102E30000B01B90190010C01CA01A0011124FF2767
:102E4000591B99F0593F50F4503E68F11A16F04062
:102E5000A22F232F342F4427585FF3CF4695379561
:102E60002795A795F0405395C9F77EF41F16BA0B26
:102E7000620B730B840BBAF09150A1F0FF0FBB1FD4
:102E8000661F771F881FC2F70EC0BA0F621F731F1D
:102E9000841F48F4879577956795B795F7959E3F7A
:102EA00008F0B3CF9395880F08F09927EE0F979508
:102EB00087950895D9D008F481E008950CD00FC10A
:102EC00007D140F0FED030F021F45F3F19F0F0C0A0
:102ED000511139C1F3C014D198F39923C9F3552383
:102EE000B1F3951B550BBB27AA27621773078407FD
:102EF00038F09F5F5F4F220F331F441FAA1FA9F3B3
:102F000033D00E2E3AF0E0E830D091505040E695A4
:102F1000001CCAF729D0FE2F27D0660F771F881F05
:102F2000BB1F261737074807AB07B0E809F0BB0BF4
:102F3000802DBF01FF2793585F4F2AF09E3F510518
:102F400068F0B6C000C15F3FECF3983EDCF38695B5
:102F500077956795B795F7959F5FC9F7880F911D8E
:102F60009695879597F90895E1E0660F771F881F7A
:102F7000BB1F621773078407BA0720F0621B730B2D
:102F8000840BBA0BEE1F88F7E095089504D068947F
:102F9000B111D9C00895BCD088F09F5790F0B92FD7
:102FA0009927B751A0F0D1F0660F771F881F991F9E
:102FB0001AF0BA95C9F712C0B13081F0C3D0B1E0B0
:102FC0000895C0C0672F782F8827B85F39F0B93FC0
:102FD000CCF3869577956795B395D9F73EF49095A0
:102FE0008095709561957F4F8F4F9F4F0895E8941E
:102FF00009C097FB3EF490958095709561957F4F41
:103000008F4F9F4F9923A9F0F92F96E9BB279395EE
:10301000F695879577956795B795F111F8CFFAF4FE
:10302000BB0F11F460FF1BC06F5F7F4F8F4F9F4F2F
:1030300016C0882311F096E911C0772321F09EE88D
:10304000872F762F05C0662371F096E8862F70E0F3
:1030500060E02AF09A95660F771F881FDAF7880FCD
:103060009695879597F90895990F0008550FAA0B23
:10307000E0E8FEEF16161706E807F907C0F012168B
:103080001306E407F50798F0621B730B840B950B8E
:1030900039F40A2661F0232B242B252B21F40895E3
:1030A0000A2609F4A140A6958FEF811D811D089580
:1030B00097F99F6780E870E060E008959FEF80ECEB
:1030C000089500240A94161617061806090608958E
:1030D00000240A9412161306140605060895092EF4
:1030E0000394000C11F4882352F0BB0F40F4BF2B63
:1030F00011F460FF04C06F5F7F4F8F4F9F4F0895A3
:1031000057FD9058440F551F59F05F3F71F0479598
:10311000880F97FB991F61F09F3F79F0879508957D
:10312000121613061406551FF2CF4695F1DF08C09C
:10313000161617061806991FF1CF869571056105B9
:1031400008940895E894BB2766277727CB0197F961
:1031500008958ADF08F48FEF08950BD0C0CFB1DF58
:1031600028F0B6DF18F0952309F0A2CFA7CF1124DD
:10317000EACFC6DFA0F3959FD1F3950F50E0551F1E
:10318000629FF001729FBB27F00DB11D639FAA27BC
:10319000F00DB11DAA1F649F6627B00DA11D661F0B
:1031A000829F2227B00DA11D621F739FB00DA11D2C
:1031B000621F839FA00D611D221F749F3327A00DE6
:1031C000611D231F849F600D211D822F762F6A2F82
:1031D00011249F5750408AF0E1F088234AF0EE0F07
:1031E000FF1FBB1F661F771F881F91505040A9F714
:1031F0009E3F510570F05CCFA6CF5F3FECF3983E49
:10320000DCF3869577956795B795F795E7959F5F7A
:10321000C1F7FE2B880F911D9695879597F9089514
:1032200023DF880B990B089597FB092E07260AD0F8
:1032300077FD04D065D006D000201AF47095619512
:103240007F4F0895F6F7909581959F4F0895A1E2DD
:103250001A2EAA1BBB1BFD010DC0AA1FBB1FEE1F10
:10326000FF1FA217B307E407F50720F0A21BB30B5B
:10327000E40BF50B661F771F881F991F1A9469F7D7
:1032800060957095809590959B01AC01BD01CF0133
:1032900008952F923F924F925F926F927F928F92FA
:1032A0009F92AF92BF92CF92DF92EF92FF920F93D5
:1032B0001F93CF93DF93CDB7DEB7CA1BDB0B0FB6DF
:1032C000F894DEBF0FBECDBF09942A88398848889C
:1032D0005F846E847D848C849B84AA84B984C88432
:1032E000DF80EE80FD800C811B81AA81B981CE0F29
:1032F000D11D0FB6F894DEBF0FBECDBFED0108950E
:10330000AA1BBB1B51E107C0AA1FBB1FA617B7070B
:1033100010F0A61BB70B881F991F5A95A9F7809527
:103320009095BC01CD010895EE0FFF1F0590F4911B
:10333000E02D0994EF920F931F93CF93322FC02F5C
:1033400047FF02C0A4E101C0A4E0E42FFF27E7FD8E
:10335000F095F7FF03C0F095E195FF4F4C2F512FEB
:103360002E2F032FEA2E0E945A1C8C2F912FCF91C3
:103370001F910F91EF900895662777270C94B21D47
:10338000FC0188279927E89421912032E9F329301C
:1033900010F02E30C8F32B3241F02D3239F46894FE
:1033A00004C00E941A1A820F911D219120532A30C5
:1033B000C0F31EF4909581959F4F0895911114C606
:1033C000803219F089508550D0F70895DC0101C092
:1033D0006D9341505040E0F70895FB01DC018D9161
:1033E000019080190110D9F3990B0895FB01DC01BC
:1033F00001900D920020E1F70895FB01DC0141509E
:10340000504030F08D910190801919F40020B9F7E7
:10341000881B990B0895FB01DC014150504048F096
:1034200001900D920020C9F701C01D9241505040FB
:10343000E0F708957AE0979F902D879F802D910D5A
:1034400011240895AEE0B0E0E8E2FAE10C945719D7
:103450000D891E8986E08C831A8309838FEF9FE78D
:103460009E838D83AE01475E5F4FCE0101966F89CB
:10347000788D0E94661AEF81F885E00FF11F1082A7
:103480002E96E4E00C947319AEE0B0E0EAE4FAE1C1
:103490000C9457190D891E898EE08C831A83098339
:1034A0008FEF9FE79E838D83AE01475E5F4FCE0116
:1034B00001966F89788D0E94661AEF81F885E00F7A
:1034C000F11F10822E96E4E00C947319ADE0B0E089
:1034D000ECE6FAE10C9449193C017D876C875A01AE
:1034E000FC0117821682838181FFC8C12E010894D6
:1034F000411C511CF3019381EC85FD8593FD859161
:1035000093FF8191FD87EC87882309F4B3C185324D
:1035100041F493FD859193FF8191FD87EC8785327E
:1035200029F490E0B3010E942520E4CFFF24EE248B
:1035300010E01032B0F48B3269F08C3228F4803213
:1035400051F0833271F40BC08D3239F0803349F47D
:1035500011602CC01260146029C0186027C010616F
:1035600025C017FD2EC0282F20532A3098F416FFAF
:1035700008C08F2D880FF82EFF0CFF0CF80EF20EEE
:1035800015C08E2D880FE82EEE0CEE0CE80EE20E24
:1035900010620CC08E3221F416FD6CC1106406C09E
:1035A0008C3611F4106802C0883659F4EC85FD851C
:1035B00093FD859193FF8191FD87EC87882309F026
:1035C000B8CF982F9554933018F09052933038F428
:1035D00024E030E0A20EB31E3FE339830FC08336F0
:1035E00031F0833781F0833509F05AC022C0F501EC
:1035F0008081898322E030E0A20EB31E21E0C22E3A
:10360000D12C420114C092E0292E312C2A0C3B1CF3
:10361000F5018080918016FF03C06F2D70E002C01D
:103620006FEF7FEFC4010E941A206C0151011F77D8
:1036300015C082E0282E312C2A0C3B1CF50180801D
:10364000918016FF03C06F2D70E002C06FEF7FEF17
:10365000C4010E940F206C011068510113FD1CC0B1
:1036600006C080E290E0B3010E942520EA948E2DEE
:1036700090E0C816D906A8F30FC0F40117FD859194
:1036800017FF81914F0190E0B3010E942520E110C6
:10369000EA940894C108D108C114D10471F7E7C0B5
:1036A000843611F0893651F5F50117FF07C0808186
:1036B0009181A281B38124E030E008C080819181B2
:1036C000AA2797FDA095BA2F22E030E0A20EB31EE4
:1036D000012F0F76B7FF08C0B095A0959095819502
:1036E0009F4FAF4FBF4F0068BC01CD01A2012AE040
:1036F00030E00E945120D82ED4183FC0853721F4E5
:103700001F7E2AE030E020C0197F8F36A9F0803775
:1037100020F4883509F0AEC00BC0803721F088371F
:1037200009F0A8C001C0106114FF09C0146007C0EF
:1037300014FF08C0166006C028E030E005C020E194
:1037400030E002C020E132E0F50117FF07C06081E0
:1037500071818281938144E050E006C06081718173
:1037600080E090E042E050E0A40EB51EA2010E946D
:103770005120D82ED418012F0F7706FF09C00E7FD5
:10378000DF1430F404FF06C002FD04C00F7E02C047
:103790001D2D01C01F2D802F90E004FF0CC0FE01E5
:1037A000ED0DF11D2081203311F4097E09C002FFC7
:1037B00006C01E5F05C086789070009709F01F5FF5
:1037C000802E992403FD12C000FF0DC0FD2C1E1594
:1037D00050F4FE0CF11A1E2D06C080E290E0B301F9
:1037E0000E9425201F5F1E15C0F304C01E1510F493
:1037F000E11A01C0EE2484FE0FC080E390E0B30123
:103800000E94252082FE1FC081FE03C088E590E053
:1038100010C088E790E00DC0C401867890700097D2
:1038200091F081FC02C080E201C08BE207FD8DE2D5
:1038300090E0B3010E94252006C080E390E0B30130
:103840000E942520FA94DF14C0F3DA94F201ED0D02
:10385000F11D808190E0B3010E942520DD20A9F7B1
:1038600006C080E290E0B3010E942520EA94EE2099
:10387000C1F740CEF3018681978102C08FEF9FEFA1
:103880002D96E2E10C946519F999FECF92BD81BDA8
:10389000F89A992780B50895262FF999FECF1FBA77
:1038A00092BD81BD20BD0FB6F894FA9AF99A0FBE69
:1038B00001960895A9E0B0E0E0E6FCE10C944D1912
:1038C0006A01122FF02E2BE3201718F0B02EB394BC
:1038D00002C03CE3B32EAE014F5F5F4F27E00B2DDC
:1038E0000E941C1FBC01A981B0E0CD0189709070BD
:1038F0008130910531F0E1FC06C0E0FE06C040E2F7
:1039000005C04DE203C04BE201C040E0A3FF36C05A
:10391000442311F084E001C083E0811710F4181BE8
:1039200001C010E0E4FC0BC0912FF60180E202C060
:10393000819391509923E1F7C10ED11C10E04423EB
:1039400019F0F60141936F01E2FE05C08EE4F60125
:10395000808391E404C08EE6F601808391E6918332
:10396000828383E090E0C80ED91E812FF60190E299
:1039700002C0919381508823E1F73AC0A2FF3FC073
:10398000442311F084E001C083E0811710F4181B78
:1039900001C010E0E4FC0BC0912FF60180E202C0F0
:1039A000819391509923E1F7C10ED11C10E044237B
:1039B00019F0F60141936F01E2FE07C089E4F601B8
:1039C00080838EE4818386E406C089E6F6018083E5
:1039D0008EE6818386E6828383E090E0C80ED91E5E
:1039E000812FF60190E202C0919381508823E1F784
:1039F000C10ED11CF60110828EEF9FEFAFC021E007
:103A000030E0442311F420E030E0161617061CF4D1
:103A1000CB01019602C081E090E0280F391FFF2002
:103A200021F08F2D90E0019602C080E090E0820F9F
:103A3000931F212F30E0821793071CF4512F581B3E
:103A400001C050E08E2D90E09C0120713070E4FCAC
:103A50000DC0E3FC0BC0852FF60190E202C09193EC
:103A600081508823E1F7C50ED11C50E0442319F0A2
:103A7000F60141936F012115310559F4852FF601A7
:103A800090E302C0919381508823E1F7C50ED11CC9
:103A900050E0B60E4A8120E1622E712C6A227B2210
:103AA000A4FF03C0413309F4BA941B142CF48B2DEA
:103AB000893018F088E001C081E09B0177FF02C0E7
:103AC00020E030E0A0E0B0E09EE2E92E4B01881A51
:103AD0009108CB01821B930B8E010F5F1F4F080FC4
:103AE000191F8F2D90E0AA24BB24A81AB90AFFEF52
:103AF0002F3F3F0719F4F601E1926F016217730738
:103B000044F0821693062CF4F801EA0FFB1F818122
:103B100001C080E32150304011962A153B0524F066
:103B2000F60181936F01E3CF2617370741F446333F
:103B300028F4453321F46114710409F481E3F6019A
:103B40008193852FDF0190E202C09D9381508823ED
:103B5000E1F7E50FF11D108280E090E02996EEE09C
:103B60000C946919A0E0B0E0E8EBFDE10C944D196C
:103B70005B016115710521F0DB018C9311969C931B
:103B80007C01E7010894E11CF11C08816701802F8A
:103B900090E00E94DE190097A1F70D3241F40981EF
:103BA00042E0C42ED12CCC0EDD1E11E009C00B3238
:103BB00031F4098132E0C32ED12CCC0EDD1E10E091
:103BC000E6012197CE016EE672E043E050E00E94EC
:103BD000F71F0097D1F4E6012296CE0161E772E06B
:103BE00045E050E00E94F71F009711F4E601279688
:103BF000A114B10419F0F501D183C08330E020E0B5
:103C000090E8112309F40AC104C1CE0166E772E00D
:103C100043E050E00E94F71F009759F4A114B1044B
:103C200009F4F9C0C6010296D50111969C938E93B2
:103C3000F2C040E050E0BA018824992400530A30D1
:103C400090F51260212F30E0C9018870907012FF4A
:103C500006C0009769F50894811C911C29C0009743
:103C600019F0089481089108DB01CA01D2E0880F9D
:103C7000991FAA1FBB1FDA95D1F7480F591F6A1F5A
:103C80007B1F440F551F661F771F400F511D611D7D
:103C9000711D4839B9E95B07B9E96B07B9E17B07E1
:103CA00038F0146005C00E3F39F413FD43C01860AE
:103CB000F60101916F01C2CF053311F00531D1F545
:103CC000D601EC91ED3211F4106108C0EB3229F00D
:103CD000C601019621E030E008C0D6011196EC91B2
:103CE0001197C601029622E030E0E053EA3020F05E
:103CF0006C01C21AD30A1EC0DC0120E030E0FCE0F7
:103D000020383F075CF4C901880F991F880F991F5D
:103D1000280F391F220F331F2E0F311DED91E05355
:103D20006D01EA3060F314FF03C0309521953F4FD9
:103D3000820E931EC12FD0E011FF08C0A114B10460
:103D400029F0C6010197D5018D939C93CB01BA014F
:103D50000E94F7176B017C01CE0183709070833055
:103D6000910521F4F7FAF094F7F8F094C701B60141
:103D700020E030E0A9010E945A17882309F444C0CA
:103D800097FE07C09094819491089394C5EAD2E07D
:103D900002C0CDE8D2E098EE692E9FEF792E6C0E2E
:103DA0007D1E20E2A22EB12C0FC0FE0105911591BF
:103DB00025913491C701B601A90198010E94AD185F
:103DC0006B017C018A189B088A149B0474F7249762
:103DD000B594A794C615D705B9F7C601D7012A2F00
:103DE000220F2B2F221F2F3F49F0BC01CD0120E0D5
:103DF00030E0A9010E945A17882331F482E290E052
:103E000090934C0780934B073C2D2D2D9E2D8F2D8D
:103E100006C08FEF04C030E020E090EC8FE7B901DE
:103E2000AC01872F922FA52FB42FBC01CD01CDB7A8
:103E3000DEB7EEE00C946919283008F027E033274C
:103E4000DA01990F311D87FD9160009661057105BA
:103E500039F432602E5F3D9330E32A95E1F70895FF
:103E60009F3F30F080387105610509F03C5F3C5F91
:103E70003D93913008F08068911DDF93CF931F939D
:103E80000F93FF92EF92192F987F9695E92F9695B1
:103E90009695E90FFF27ED5FFC4F99273327EE2416
:103EA000FF24A701E70105900894079428F4360F32
:103EB000E71EF81E491F511D660F771F881F991FA7
:103EC0000694A1F70590079428F4E70EF81E491F01
:103ED000561FC11D770F881F991F661F0694A1F7F3
:103EE0000590079428F4F80E491F561FC71FD11DCF
:103EF000880F991F661F771F0694A1F705900794F6
:103F000020F4490F561FC71FD81F990F661F771F30
:103F1000881F0694A9F784911095177041F0D695E3
:103F2000C79557954795F794E7941A95C1F7E9EA2D
:103F3000F2E06894159015913591659195910590F1
:103F40007FE27395E118F10A430B560BC90BD009B8
:103F5000C0F7E10CF11E431F561FC91FD01D7EF490
:103F6000703311F48A95E6CFE894015030F0080FD1
:103F70000AF40027021708F4202F2395022F7A3322
:103F800028F079E37D932A95E9F710C07D932A956F
:103F900089F6069497956795379517951794E118C4
:103FA000F10A430B560BC90BD00998F023957E916B
:103FB00073957A3308F070E37C932013B8F77E9101
:103FC00070617D9330F0839571E37D9370E32A9562
:103FD000E1F71124EF90FF900F911F91CF91DF91A6
:103FE000992787FD90950895992788270895FB01C3
:103FF000DC014150504088F08D9181341CF08B35AC
:104000000CF4805E659161341CF06B350CF4605EDD
:10401000861B611171F3990B0895881BFCCFFC017D
:104020000590615070400110D8F7809590958E0FE3
:104030009F1F0895FC016150704001900110D8F756
:10404000809590958E0F9F1F08950F931F93CF9388
:10405000DF938C01EB018B8181FF1BC082FF0DC0C0
:104060002E813F818C819D812817390764F4E88176
:10407000F9810193F983E88306C0E885F985802FEB
:104080000995009731F48E819F8101969F838E83DD
:1040900002C00FEF1FEFC801DF91CF911F910F9169
:1040A0000895FA01AA27283051F1203181F1E894CE
:1040B0006F936E7F6E5F7F4F8F4F9F4FAF4FB1E01B
:1040C0003ED0B4E03CD0670F781F891F9A1FA11D16
:1040D000680F791F8A1F911DA11D6A0F711D811D17
:1040E000911DA11D20D009F468943F912AE0269FDC
:1040F00011243019305D3193DEF6CF010895462F3B
:104100004770405D4193B3E00FD0C9F7F6CF462F1B
:104110004F70405D4A3318F0495D31FD4052419384
:1041200002D0A9F7EACFB4E0A69597958795779541
:104130006795BA95C9F700976105710508959B01C8
:10414000AC010A2E06945795479537952795BA9551
:10415000C9F7620F731F841F951FA01D089513E0F8
:10416000CAEAD3E004C0FE010E9496192296CE3A14
:08417000D107C9F7F894FFCF55
:104178004E4745494749452E545854005344210059
:1041880047657474696E670074696D652E2E2E001C
:10419800617070656E6420003130372E3136312EF3
:1041A8003136342E3136360073316600733266008C
:1041B8006E6D007569640061706900733165007324
:1041C8003265006C6174006C6F6E006E616E006920
:1041D8006E66006F7666002E000000004000140036
:1041E8005400245945002454522031002454523D8F
:1041F8004E4700245452202564002454572022009E
:104208002478253032780022002454573D4E470048
:10421800245444002454443D4E470024544320254C
:1042280073202564002454433D4E47002450520017
:10423800245053202564002450533D4E4700244CFD
:1042480047204D53424153454400244C47204D5389
:10425800415353495354454400244C472053544137
:104268004E44414C4F4E4500244C473D4E47002498
:1042780059560024595200245954002459543D4F8A
:104288004B002457502068747470733A2F2F003AEB
:104298000025750024575020687474703A2F2F0039
:1042A8002457503D4F4B00746F6B656E3D25732648
:1042B8007374617475733D25730061726475696EFA
:1042C8006F2D74776565742E61707073706F742EBE
:1042D800636F6D00757064617465002457472068CA
:1042E800747470733A2F2F002457472068747470C1
:1042F8003A2F2F002457473D4F4B00245352002498
:1043080053523D4E4700245343002453532000206A
:104318002200222000554E49434F44450041534353
:104328004949002453533D4F4B0024594C202564E0
:104338000024594C3D4F4B0024594220256C7500F0
:104348002459423D4F4B00245949002459493D4FB7
:104358004B002459530000004D0720002801322E3D
:10436800322E335F33470000000000420BC50CE8D3
:104378000A150BFA0A370B000000005010C50CAAEA
:104388000F5C0F800F9B0F000000001B13C50C0073
:00000001FF
